{"contracts/OpenDirective.sol":{"OpenDirective":{"abi":[{"inputs":[{"internalType":"address","name":"agent","type":"address"},{"internalType":"contract IERC20","name":"dToken","type":"address"},{"internalType":"string","name":"name","type":"string"},{"internalType":"string","name":"symbol","type":"string"}],"stateMutability":"nonpayable","type":"constructor"},{"inputs":[{"internalType":"address","name":"target","type":"address"}],"name":"AddressEmptyCode","type":"error"},{"inputs":[{"internalType":"address","name":"account","type":"address"}],"name":"AddressInsufficientBalance","type":"error"},{"inputs":[{"internalType":"address","name":"spender","type":"address"},{"internalType":"uint256","name":"allowance","type":"uint256"},{"internalType":"uint256","name":"needed","type":"uint256"}],"name":"ERC20InsufficientAllowance","type":"error"},{"inputs":[{"internalType":"address","name":"sender","type":"address"},{"internalType":"uint256","name":"balance","type":"uint256"},{"internalType":"uint256","name":"needed","type":"uint256"}],"name":"ERC20InsufficientBalance","type":"error"},{"inputs":[{"internalType":"address","name":"approver","type":"address"}],"name":"ERC20InvalidApprover","type":"error"},{"inputs":[{"internalType":"address","name":"receiver","type":"address"}],"name":"ERC20InvalidReceiver","type":"error"},{"inputs":[{"internalType":"address","name":"sender","type":"address"}],"name":"ERC20InvalidSender","type":"error"},{"inputs":[{"internalType":"address","name":"spender","type":"address"}],"name":"ERC20InvalidSpender","type":"error"},{"inputs":[{"internalType":"address","name":"receiver","type":"address"},{"internalType":"uint256","name":"assets","type":"uint256"},{"internalType":"uint256","name":"max","type":"uint256"}],"name":"ERC4626ExceededMaxDeposit","type":"error"},{"inputs":[{"internalType":"address","name":"receiver","type":"address"},{"internalType":"uint256","name":"shares","type":"uint256"},{"internalType":"uint256","name":"max","type":"uint256"}],"name":"ERC4626ExceededMaxMint","type":"error"},{"inputs":[{"internalType":"address","name":"owner","type":"address"},{"internalType":"uint256","name":"shares","type":"uint256"},{"internalType":"uint256","name":"max","type":"uint256"}],"name":"ERC4626ExceededMaxRedeem","type":"error"},{"inputs":[{"internalType":"address","name":"owner","type":"address"},{"internalType":"uint256","name":"assets","type":"uint256"},{"internalType":"uint256","name":"max","type":"uint256"}],"name":"ERC4626ExceededMaxWithdraw","type":"error"},{"inputs":[],"name":"FailedInnerCall","type":"error"},{"inputs":[],"name":"MathOverflowedMulDiv","type":"error"},{"inputs":[],"name":"ReentrancyGuardReentrantCall","type":"error"},{"inputs":[{"internalType":"address","name":"token","type":"address"}],"name":"SafeERC20FailedOperation","type":"error"},{"anonymous":false,"inputs":[{"indexed":true,"internalType":"address","name":"owner","type":"address"},{"indexed":true,"internalType":"address","name":"spender","type":"address"},{"indexed":false,"internalType":"uint256","name":"value","type":"uint256"}],"name":"Approval","type":"event"},{"anonymous":false,"inputs":[{"indexed":true,"internalType":"address","name":"sender","type":"address"},{"indexed":true,"internalType":"address","name":"owner","type":"address"},{"indexed":false,"internalType":"uint256","name":"assets","type":"uint256"},{"indexed":false,"internalType":"uint256","name":"shares","type":"uint256"}],"name":"Deposit","type":"event"},{"anonymous":false,"inputs":[{"indexed":true,"internalType":"address","name":"token","type":"address"},{"indexed":true,"internalType":"uint256","name":"amount","type":"uint256"},{"indexed":true,"internalType":"uint256","name":"time","type":"uint256"},{"indexed":false,"internalType":"address","name":"sender","type":"address"}],"name":"FundsAdded","type":"event"},{"anonymous":false,"inputs":[{"indexed":true,"internalType":"address","name":"from","type":"address"},{"indexed":true,"internalType":"address","name":"to","type":"address"},{"indexed":false,"internalType":"uint256","name":"value","type":"uint256"}],"name":"Transfer","type":"event"},{"anonymous":false,"inputs":[{"indexed":true,"internalType":"address","name":"sender","type":"address"},{"indexed":true,"internalType":"address","name":"receiver","type":"address"},{"indexed":true,"internalType":"address","name":"owner","type":"address"},{"indexed":false,"internalType":"uint256","name":"assets","type":"uint256"},{"indexed":false,"internalType":"uint256","name":"shares","type":"uint256"}],"name":"Withdraw","type":"event"},{"anonymous":false,"inputs":[{"indexed":true,"internalType":"uint256","name":"proposalNum","type":"uint256"},{"indexed":true,"internalType":"bool","name":"closed","type":"bool"},{"indexed":false,"internalType":"address","name":"closer","type":"address"}],"name":"proposalC","type":"event"},{"anonymous":false,"inputs":[{"indexed":true,"internalType":"address","name":"token","type":"address"},{"indexed":true,"internalType":"uint256","name":"proposalNum","type":"uint256"},{"indexed":true,"internalType":"uint256","name":"amount","type":"uint256"},{"indexed":false,"internalType":"address","name":"recipient","type":"address"}],"name":"proposalO","type":"event"},{"inputs":[{"internalType":"address","name":"agent","type":"address"}],"name":"addAgent","outputs":[],"stateMutability":"nonpayable","type":"function"},{"inputs":[{"internalType":"contract IERC20","name":"token","type":"address"},{"internalType":"uint256","name":"amount","type":"uint256"},{"internalType":"address","name":"sender","type":"address"}],"name":"addFunds","outputs":[{"internalType":"bool","name":"","type":"bool"}],"stateMutability":"nonpayable","type":"function"},{"inputs":[{"internalType":"address","name":"owner","type":"address"},{"internalType":"address","name":"spender","type":"address"}],"name":"allowance","outputs":[{"internalType":"uint256","name":"","type":"uint256"}],"stateMutability":"view","type":"function"},{"inputs":[{"internalType":"address","name":"spender","type":"address"},{"internalType":"uint256","name":"value","type":"uint256"}],"name":"approve","outputs":[{"internalType":"bool","name":"","type":"bool"}],"stateMutability":"nonpayable","type":"function"},{"inputs":[],"name":"asset","outputs":[{"internalType":"address","name":"","type":"address"}],"stateMutability":"view","type":"function"},{"inputs":[{"internalType":"address","name":"account","type":"address"}],"name":"balanceOf","outputs":[{"internalType":"uint256","name":"","type":"uint256"}],"stateMutability":"view","type":"function"},{"inputs":[{"internalType":"string","name":"url","type":"string"}],"name":"checkURL","outputs":[{"internalType":"bool","name":"","type":"bool"}],"stateMutability":"view","type":"function"},{"inputs":[{"internalType":"uint256","name":"shares","type":"uint256"}],"name":"convertToAssets","outputs":[{"internalType":"uint256","name":"","type":"uint256"}],"stateMutability":"view","type":"function"},{"inputs":[{"internalType":"uint256","name":"assets","type":"uint256"}],"name":"convertToShares","outputs":[{"internalType":"uint256","name":"","type":"uint256"}],"stateMutability":"view","type":"function"},{"inputs":[],"name":"decimals","outputs":[{"internalType":"uint8","name":"","type":"uint8"}],"stateMutability":"view","type":"function"},{"inputs":[{"internalType":"uint256","name":"assets","type":"uint256"},{"internalType":"address","name":"receiver","type":"address"}],"name":"deposit","outputs":[{"internalType":"uint256","name":"","type":"uint256"}],"stateMutability":"nonpayable","type":"function"},{"inputs":[{"internalType":"address","name":"user","type":"address"}],"name":"getAuth","outputs":[{"internalType":"bool","name":"","type":"bool"}],"stateMutability":"view","type":"function"},{"inputs":[{"internalType":"uint256","name":"proposal","type":"uint256"}],"name":"getProposalInfo","outputs":[{"internalType":"address","name":"token","type":"address"},{"internalType":"uint256","name":"withdrawAmount","type":"uint256"},{"internalType":"address","name":"receiver","type":"address"}],"stateMutability":"view","type":"function"},{"inputs":[{"internalType":"address","name":"","type":"address"}],"name":"maxDeposit","outputs":[{"internalType":"uint256","name":"","type":"uint256"}],"stateMutability":"view","type":"function"},{"inputs":[{"internalType":"address","name":"","type":"address"}],"name":"maxMint","outputs":[{"internalType":"uint256","name":"","type":"uint256"}],"stateMutability":"view","type":"function"},{"inputs":[{"internalType":"address","name":"owner","type":"address"}],"name":"maxRedeem","outputs":[{"internalType":"uint256","name":"","type":"uint256"}],"stateMutability":"view","type":"function"},{"inputs":[{"internalType":"address","name":"owner","type":"address"}],"name":"maxWithdraw","outputs":[{"internalType":"uint256","name":"","type":"uint256"}],"stateMutability":"view","type":"function"},{"inputs":[{"internalType":"uint256","name":"shares","type":"uint256"},{"internalType":"address","name":"receiver","type":"address"}],"name":"mint","outputs":[{"internalType":"uint256","name":"","type":"uint256"}],"stateMutability":"nonpayable","type":"function"},{"inputs":[],"name":"name","outputs":[{"internalType":"string","name":"","type":"string"}],"stateMutability":"view","type":"function"},{"inputs":[{"internalType":"string","name":"url","type":"string"}],"name":"newURL","outputs":[{"internalType":"bytes32","name":"","type":"bytes32"}],"stateMutability":"nonpayable","type":"function"},{"inputs":[{"internalType":"uint256","name":"assets","type":"uint256"}],"name":"previewDeposit","outputs":[{"internalType":"uint256","name":"","type":"uint256"}],"stateMutability":"view","type":"function"},{"inputs":[{"internalType":"uint256","name":"shares","type":"uint256"}],"name":"previewMint","outputs":[{"internalType":"uint256","name":"","type":"uint256"}],"stateMutability":"view","type":"function"},{"inputs":[{"internalType":"uint256","name":"shares","type":"uint256"}],"name":"previewRedeem","outputs":[{"internalType":"uint256","name":"","type":"uint256"}],"stateMutability":"view","type":"function"},{"inputs":[{"internalType":"uint256","name":"assets","type":"uint256"}],"name":"previewWithdraw","outputs":[{"internalType":"uint256","name":"","type":"uint256"}],"stateMutability":"view","type":"function"},{"inputs":[],"name":"proposalCheck","outputs":[{"internalType":"uint256","name":"","type":"uint256"}],"stateMutability":"view","type":"function"},{"inputs":[{"internalType":"uint256","name":"assets","type":"uint256"},{"internalType":"address","name":"receiver","type":"address"},{"internalType":"uint256","name":"proposal","type":"uint256"}],"name":"proposalDeposit","outputs":[{"internalType":"uint256","name":"","type":"uint256"}],"stateMutability":"nonpayable","type":"function"},{"inputs":[{"internalType":"uint256","name":"shares","type":"uint256"},{"internalType":"address","name":"receiver","type":"address"},{"internalType":"uint256","name":"proposal","type":"uint256"}],"name":"proposalMint","outputs":[{"internalType":"uint256","name":"","type":"uint256"}],"stateMutability":"nonpayable","type":"function"},{"inputs":[{"internalType":"uint256","name":"amount","type":"uint256"},{"internalType":"address","name":"policy","type":"address"},{"internalType":"address","name":"owner","type":"address"},{"internalType":"contract IERC20","name":"token","type":"address"},{"internalType":"string","name":"url","type":"string"}],"name":"proposalOpen","outputs":[{"internalType":"uint256","name":"","type":"uint256"}],"stateMutability":"nonpayable","type":"function"},{"inputs":[{"internalType":"uint256","name":"shares","type":"uint256"},{"internalType":"address","name":"receiver","type":"address"},{"internalType":"address","name":"owner","type":"address"},{"internalType":"uint256","name":"proposal","type":"uint256"}],"name":"proposalRedeem","outputs":[{"internalType":"uint256","name":"","type":"uint256"}],"stateMutability":"nonpayable","type":"function"},{"inputs":[{"internalType":"uint256","name":"assets","type":"uint256"},{"internalType":"address","name":"receiver","type":"address"},{"internalType":"address","name":"owner","type":"address"},{"internalType":"uint256","name":"proposal","type":"uint256"}],"name":"proposalWithdraw","outputs":[{"internalType":"uint256","name":"","type":"uint256"}],"stateMutability":"nonpayable","type":"function"},{"inputs":[{"internalType":"uint256","name":"shares","type":"uint256"},{"internalType":"address","name":"receiver","type":"address"},{"internalType":"address","name":"owner","type":"address"}],"name":"redeem","outputs":[{"internalType":"uint256","name":"","type":"uint256"}],"stateMutability":"nonpayable","type":"function"},{"inputs":[],"name":"symbol","outputs":[{"internalType":"string","name":"","type":"string"}],"stateMutability":"view","type":"function"},{"inputs":[],"name":"totalAssets","outputs":[{"internalType":"uint256","name":"","type":"uint256"}],"stateMutability":"view","type":"function"},{"inputs":[{"internalType":"uint256","name":"proposal","type":"uint256"}],"name":"totalShares","outputs":[{"internalType":"uint256","name":"","type":"uint256"}],"stateMutability":"view","type":"function"},{"inputs":[],"name":"totalSupply","outputs":[{"internalType":"uint256","name":"","type":"uint256"}],"stateMutability":"view","type":"function"},{"inputs":[{"internalType":"address","name":"to","type":"address"},{"internalType":"uint256","name":"value","type":"uint256"}],"name":"transfer","outputs":[{"internalType":"bool","name":"","type":"bool"}],"stateMutability":"nonpayable","type":"function"},{"inputs":[{"internalType":"address","name":"from","type":"address"},{"internalType":"address","name":"to","type":"address"},{"internalType":"uint256","name":"value","type":"uint256"}],"name":"transferFrom","outputs":[{"internalType":"bool","name":"","type":"bool"}],"stateMutability":"nonpayable","type":"function"},{"inputs":[{"internalType":"bytes32","name":"url","type":"bytes32"}],"name":"urlProposalNum","outputs":[{"internalType":"uint256","name":"","type":"uint256"}],"stateMutability":"view","type":"function"},{"inputs":[{"internalType":"address","name":"user","type":"address"},{"internalType":"uint256","name":"proposal","type":"uint256"}],"name":"userDeposit","outputs":[{"internalType":"uint256","name":"","type":"uint256"}],"stateMutability":"view","type":"function"},{"inputs":[{"internalType":"address","name":"user","type":"address"}],"name":"userNumOfProposal","outputs":[{"internalType":"uint256","name":"","type":"uint256"}],"stateMutability":"view","type":"function"},{"inputs":[{"internalType":"address","name":"user","type":"address"},{"internalType":"uint256","name":"proposal","type":"uint256"}],"name":"userProposal","outputs":[{"internalType":"uint256","name":"","type":"uint256"}],"stateMutability":"view","type":"function"},{"inputs":[{"internalType":"address","name":"user","type":"address"},{"internalType":"uint256","name":"proposal","type":"uint256"}],"name":"userWithdrew","outputs":[{"internalType":"uint256","name":"","type":"uint256"}],"stateMutability":"view","type":"function"},{"inputs":[],"name":"whosAgent","outputs":[{"internalType":"address","name":"","type":"address"}],"stateMutability":"view","type":"function"},{"inputs":[],"name":"whosOwner","outputs":[{"internalType":"address","name":"","type":"address"}],"stateMutability":"view","type":"function"},{"inputs":[{"internalType":"uint256","name":"assets","type":"uint256"},{"internalType":"address","name":"receiver","type":"address"},{"internalType":"address","name":"owner","type":"address"}],"name":"withdraw","outputs":[{"internalType":"uint256","name":"","type":"uint256"}],"stateMutability":"nonpayable","type":"function"}],"evm":{"bytecode":{"linkReferences":{},"object":"60c06040526015805460ff191690553480156200001b57600080fd5b50604051620025ba380380620025ba8339810160408190526200003e91620002ad565b82828260036200004f8382620003d3565b5060046200005e8282620003d3565b5050506000806200007583620000e260201b60201c565b91509150816200008757601262000089565b805b60ff1660a05250506001600160a01b03908116608052600160055560068054336001600160a01b03199182161790915560078054821695831695909517909455600a805490941694169390931790915550620004d79050565b60408051600481526024810182526020810180516001600160e01b031663313ce56760e01b17905290516000918291829182916001600160a01b038716916200012b916200049f565b600060405180830381855afa9150503d806000811462000168576040519150601f19603f3d011682016040523d82523d6000602084013e6200016d565b606091505b50915091508180156200018257506020815110155b15620001ba57600081806020019051810190620001a09190620004bd565b905060ff8111620001b8576001969095509350505050565b505b5060009485945092505050565b6001600160a01b0381168114620001dd57600080fd5b50565b634e487b7160e01b600052604160045260246000fd5b60005b8381101562000213578181015183820152602001620001f9565b50506000910152565b600082601f8301126200022e57600080fd5b81516001600160401b03808211156200024b576200024b620001e0565b604051601f8301601f19908116603f01168101908282118183101715620002765762000276620001e0565b816040528381528660208588010111156200029057600080fd5b620002a3846020830160208901620001f6565b9695505050505050565b60008060008060808587031215620002c457600080fd5b8451620002d181620001c7565b6020860151909450620002e481620001c7565b60408601519093506001600160401b03808211156200030257600080fd5b62000310888389016200021c565b935060608701519150808211156200032757600080fd5b5062000336878288016200021c565b91505092959194509250565b600181811c908216806200035757607f821691505b6020821081036200037857634e487b7160e01b600052602260045260246000fd5b50919050565b601f821115620003ce576000816000526020600020601f850160051c81016020861015620003a95750805b601f850160051c820191505b81811015620003ca57828155600101620003b5565b5050505b505050565b81516001600160401b03811115620003ef57620003ef620001e0565b620004078162000400845462000342565b846200037e565b602080601f8311600181146200043f5760008415620004265750858301515b600019600386901b1c1916600185901b178555620003ca565b600085815260208120601f198616915b8281101562000470578886015182559484019460019091019084016200044f565b50858210156200048f5787850151600019600388901b60f8161c191681555b5050505050600190811b01905550565b60008251620004b3818460208701620001f6565b9190910192915050565b600060208284031215620004d057600080fd5b5051919050565b60805160a0516120a862000512600039600061089d0152600081816103c60152818161072d01528181611662015261177701526120a86000f3fe608060405234801561001057600080fd5b506004361061027f5760003560e01c806383ef14951161015c578063ba087652116100ce578063d1fbb45c11610087578063d1fbb45c14610685578063d905777e146106a5578063d9d77923146106b8578063daa85ff0146106cb578063dd62ed3e146106dc578063ef8b30f71461065f57600080fd5b8063ba0876521461058d578063bc903cb8146105a0578063c49724ec1461064c578063c63d75b6146103fe578063c6e6f5921461065f578063ce96cb771461067257600080fd5b806399ea4c011161012057806399ea4c011461051b5780639bcd9a2b1461052e578063a9059cbb14610541578063b3d7f6b914610554578063b460af9414610567578063b52d73431461057a57600080fd5b806383ef1495146104c557806384e79842146104d85780638719a3b1146104ed57806394bf804d1461050057806395d89b411461051357600080fd5b8063313ce567116101f557806355f86df8116101b957806355f86df8146104265780636763c5fa146104395780636e4e3e2d1461044a5780636e553f651461047657806370a08231146104895780637498e87c146104b257600080fd5b8063313ce567146103aa57806338d52e0f146103c4578063402d267d146103fe57806342b4725a146104135780634cdad506146102b457600080fd5b80630f6992eb116102475780630f6992eb146102fd57806313f2dad01461033157806318160ddd14610351578063226b0d0a1461035957806323b872dd146103615780632d89cb081461037457600080fd5b806301e1d1141461028457806306fdde031461029f57806307a2d13a146102b4578063095ea7b3146102c75780630a28a477146102ea575b600080fd5b61028c610715565b6040519081526020015b60405180910390f35b6102a76107a5565b6040516102969190611ade565b61028c6102c2366004611b11565b610837565b6102da6102d5366004611b3f565b61084a565b6040519015158152602001610296565b61028c6102f8366004611b11565b610862565b61028c61030b366004611b6b565b6001600160a01b0316600090815260106020908152604080832083805290915290205490565b61028c61033f366004611b11565b6000908152600e602052604090205490565b60025461028c565b60085461028c565b6102da61036f366004611b88565b61086f565b61028c610382366004611b3f565b6001600160a01b03919091166000908152601060209081526040808320938352929052205490565b6103b2610895565b60405160ff9091168152602001610296565b7f00000000000000000000000000000000000000000000000000000000000000005b6040516001600160a01b039091168152602001610296565b61028c61040c366004611b6b565b5060001990565b61028c610421366004611c12565b6108c1565b61028c610434366004611c97565b610a45565b600a546001600160a01b03166103e6565b6102da610458366004611b6b565b6001600160a01b03166000908152600d602052604090205460ff1690565b61028c610484366004611cbe565b610b7a565b61028c610497366004611b6b565b6001600160a01b031660009081526020819052604090205490565b6102da6104c0366004611cee565b610b9a565b61028c6104d3366004611d30565b610cab565b6104eb6104e6366004611b6b565b610cf9565b005b6102da6104fb366004611d30565b610d62565b61028c61050e366004611cbe565b610da8565b6102a7610dbc565b61028c610529366004611d72565b610dcb565b61028c61053c366004611b3f565b610e9c565b6102da61054f366004611b3f565b610ec7565b61028c610562366004611b11565b610ed5565b61028c610575366004611dba565b610ee2565b61028c610588366004611b3f565b610f6f565b61028c61059b366004611dba565b610f9a565b6106226105ae366004611b11565b600081815260116020908152604091829020825160e08101845281546001600160a01b0390811682526001830154938201849052600283015481169482018590526003830154166060820181905260048301546080830152600583015460a083015260069092015460c09091015293909250565b604080516001600160a01b0394851681526020810193909352921691810191909152606001610296565b61028c61065a366004611d72565b611017565b61028c61066d366004611b11565b61109f565b61028c610680366004611b6b565b6110ac565b61028c610693366004611b11565b60009081526014602052604090205490565b61028c6106b3366004611b6b565b6110d0565b61028c6106c6366004611c97565b6110ee565b6006546001600160a01b03166103e6565b61028c6106ea366004611df1565b6001600160a01b03918216600090815260016020908152604080832093909416825291909152205490565b6040516370a0823160e01b81523060048201526000907f00000000000000000000000000000000000000000000000000000000000000006001600160a01b0316906370a0823190602401602060405180830381865afa15801561077c573d6000803e3d6000fd5b505050506040513d601f19601f820116820180604052508101906107a09190611e1f565b905090565b6060600380546107b490611e38565b80601f01602080910402602001604051908101604052809291908181526020018280546107e090611e38565b801561082d5780601f106108025761010080835404028352916020019161082d565b820191906000526020600020905b81548152906001019060200180831161081057829003601f168201915b5050505050905090565b600061084482600061115c565b92915050565b600033610858818585611196565b5060019392505050565b60006108448260016111a8565b60003361087d8582856111d8565b610888858585611243565b60019150505b9392505050565b60006107a0817f0000000000000000000000000000000000000000000000000000000000000000611e88565b600a546000906001600160a01b03163314806108e757506006546001600160a01b031633145b6109295760405162461bcd60e51b815260206004820152600e60248201526d139bdd08185d5d1a1bdc9a5e995960921b60448201526064015b60405180910390fd5b60006109358484610cab565b60008181526013602052604090205490915060ff161561095457600080fd5b600061095f60085490565b61096a906001611ea1565b600083815260146020908152604080832084905560138252808320805460ff1916600190811790915584845260119092529182902080546001600160a01b03808d166001600160a01b03199283161783556003830180548d831690841681179091559383018f905560029092018054928e1692909116919091179055600883905590519192508a918391907fe3f793765505956bdfba748fc191297cca4afe7773ea892359604c9c40380b7e90610a31908d906001600160a01b0391909116815260200190565b60405180910390a498975050505050505050565b6000610a4f6112a2565b81610a5960085490565b1015610a9a5760405162461bcd60e51b815260206004820152601060248201526f125b9d985b1a59081c1c9bdc1bdcd85b60821b6044820152606401610920565b6015805460ff191660011790556000610ab385856112cc565b6015805460ff191690559050610ade610ad8846000908152600e602052604090205490565b826112ea565b6000848152600e602090815260408083209390935533825260108152828220828052905290812054610b11906001611ea1565b9050610b26610b208686610f6f565b836112ea565b6001600160a01b03861660009081526010602081815260408084208985528252808420600190810195909555338452918152818320838052905280822084905592815291909120849055600555905061088e565b6000610b846112a2565b610b8e83836112cc565b90506108446001600555565b6000808311610beb5760405162461bcd60e51b815260206004820181905260248201527f416d6f756e74206d7573742062652067726561746572207468616e207a65726f6044820152606401610920565b600954600081815260126020526040902090610c08906001611ea1565b60098190558155600181018490556002810180546001600160a01b038088166001600160a01b03199283161790925542600484015560038301805492861692909116919091179055610c5c858430876112f6565b6040516001600160a01b038481168252429186918816907f197d0ae4b232ce56246b1377dded24ed55a519bb44111ff2dcc3f77a1e2177ae9060200160405180910390a4506001949350505050565b6000808383604051602001610cc1929190611eb4565b60408051601f198184030181529181528151602092830120600081815260139093529120805460ff1916600117905591505092915050565b6006546001600160a01b03163314610d405760405162461bcd60e51b815260206004820152600a60248201526927b7363c9037bbb732b960b11b6044820152606401610920565b600a80546001600160a01b0319166001600160a01b0392909216919091179055565b6000808383604051602001610d78929190611eb4565b60408051808303601f1901815291815281516020928301206000908152601390925290205460ff16949350505050565b6000610db26112a2565b610b8e838361135d565b6060600480546107b490611e38565b6000610dd56112a2565b610ddf8483610f6f565b610de98584610e9c565b1115610e2e5760405162461bcd60e51b8152602060048201526014602482015273496e76616c69642072656465656d20737461746560601b6044820152606401610920565b6015805460ff191660011790556000610e4886868661137b565b6015805460ff191690559050610e61610ad88685610e9c565b6001600160a01b03861660009081526010602090815260408083208784529091529020600201559050610e946001600555565b949350505050565b6001600160a01b03919091166000908152601060209081526040808320938352929052206002015490565b600033610858818585611243565b600061084482600161115c565b6000610eec6112a2565b60155460ff16610f585760405162461bcd60e51b815260206004820152603160248201527f446972656374207769746864726177206e6f7420616c6c6f7765642c207573656044820152702070726f706f73616c576974686472617760781b6064820152608401610920565b610f638484846113d3565b905061088e6001600555565b6001600160a01b03919091166000908152601060209081526040808320938352929052206001015490565b6000610fa46112a2565b60155460ff1661100c5760405162461bcd60e51b815260206004820152602d60248201527f4469726563742072656465656d206e6f7420616c6c6f7765642c20757365207060448201526c726f706f73616c52656465656d60981b6064820152608401610920565b610f6384848461137b565b60006110216112a2565b61102b8483610f6f565b856110368685610e9c565b6110409190611ea1565b11156110855760405162461bcd60e51b8152602060048201526014602482015273125b9cdd59999a58da595b9d0819195c1bdcda5d60621b6044820152606401610920565b6015805460ff191660011790556000610e488686866113d3565b60006108448260006111a8565b6001600160a01b03811660009081526020819052604081205461084490600061115c565b6001600160a01b038116600090815260208190526040812054610844565b60006110f86112a2565b8161110260085490565b11156111435760405162461bcd60e51b815260206004820152601060248201526f125b9d985b1a59081c1c9bdc1bdcd85b60821b6044820152606401610920565b6015805460ff191660011790556000610ab3858561135d565b600061088e611169610715565b611174906001611ea1565b6111806000600a611fa8565b60025461118d9190611ea1565b85919085611422565b6111a38383836001611471565b505050565b600061088e6111b882600a611fa8565b6002546111c59190611ea1565b6111cd610715565b61118d906001611ea1565b6001600160a01b03838116600090815260016020908152604080832093861683529290522054600019811461123d578181101561122e57828183604051637dc7a0d960e11b815260040161092093929190611fb7565b61123d84848484036000611471565b50505050565b6001600160a01b03831661126d57604051634b637e8f60e11b815260006004820152602401610920565b6001600160a01b0382166112975760405163ec442f0560e01b815260006004820152602401610920565b6111a3838383611546565b6002600554036112c557604051633ee5aeb560e01b815260040160405180910390fd5b6002600555565b600060001960006112dc8561109f565b9050610e943385878461165d565b600061088e8284611ea1565b6040516001600160a01b03848116602483015283811660448301526064820183905261123d9186918216906323b872dd906084015b604051602081830303815290604052915060e01b6020820180516001600160e01b0383818316178352505050506116e1565b6000600019600061136d85610ed5565b9050610e943385838861165d565b600080611387836110d0565b9050808511156113b057828582604051632e52afbb60e21b815260040161092093929190611fb7565b60006113bb86610837565b90506113ca338686848a611744565b95945050505050565b6000806113df836110ac565b90508085111561140857828582604051633fa733bb60e21b815260040161092093929190611fb7565b600061141386610862565b90506113ca3386868985611744565b600080611430868686611804565b905061143b836118c8565b801561145757506000848061145257611452611fd8565b868809115b156113ca57611467600182611ea1565b9695505050505050565b6001600160a01b03841661149b5760405163e602df0560e01b815260006004820152602401610920565b6001600160a01b0383166114c557604051634a1406b160e11b815260006004820152602401610920565b6001600160a01b038085166000908152600160209081526040808320938716835292905220829055801561123d57826001600160a01b0316846001600160a01b03167f8c5be1e5ebec7d5bd14f71427d1e84f3dd0314c0f7b2291e5b200ac8c7c3b9258460405161153891815260200190565b60405180910390a350505050565b6001600160a01b0383166115715780600260008282546115669190611ea1565b909155506115d09050565b6001600160a01b038316600090815260208190526040902054818110156115b15783818360405163391434e360e21b815260040161092093929190611fb7565b6001600160a01b03841660009081526020819052604090209082900390555b6001600160a01b0382166115ec5760028054829003905561160b565b6001600160a01b03821660009081526020819052604090208054820190555b816001600160a01b0316836001600160a01b03167fddf252ad1be2c89b69c2b068fc378daa952ba7f163c4a11628f55a4df523b3ef8360405161165091815260200190565b60405180910390a3505050565b6116897f00000000000000000000000000000000000000000000000000000000000000008530856112f6565b61169383826118f5565b826001600160a01b0316846001600160a01b03167fdcbc1c05240f31ff3ad067ef1ee35ce4997762752e3a095284754544f4c709d78484604051611538929190918252602082015260400190565b60006116f66001600160a01b0384168361192f565b9050805160001415801561171b5750808060200190518101906117199190611fee565b155b156111a357604051635274afe760e01b81526001600160a01b0384166004820152602401610920565b826001600160a01b0316856001600160a01b031614611768576117688386836111d8565b611772838261193d565b61179d7f00000000000000000000000000000000000000000000000000000000000000008584611973565b826001600160a01b0316846001600160a01b0316866001600160a01b03167ffbde797d201c681b91056529119e0b02407c7bb96a4a2c75c01fc9667232c8db85856040516117f5929190918252602082015260400190565b60405180910390a45050505050565b600083830281600019858709828110838203039150508060000361183b5783828161183157611831611fd8565b049250505061088e565b80841161185b5760405163227bc15360e01b815260040160405180910390fd5b6000848688096000868103871696879004966002600389028118808a02820302808a02820302808a02820302808a02820302808a02820302808a02909103029181900381900460010186841190950394909402919094039290920491909117919091029150509392505050565b600060028260038111156118de576118de612010565b6118e89190612026565b60ff166001149050919050565b6001600160a01b03821661191f5760405163ec442f0560e01b815260006004820152602401610920565b61192b60008383611546565b5050565b606061088e838360006119a4565b6001600160a01b03821661196757604051634b637e8f60e11b815260006004820152602401610920565b61192b82600083611546565b6040516001600160a01b038381166024830152604482018390526111a391859182169063a9059cbb9060640161132b565b6060814710156119c95760405163cd78605960e01b8152306004820152602401610920565b600080856001600160a01b031684866040516119e59190612056565b60006040518083038185875af1925050503d8060008114611a22576040519150601f19603f3d011682016040523d82523d6000602084013e611a27565b606091505b5091509150611467868383606082611a4757611a4282611a8e565b61088e565b8151158015611a5e57506001600160a01b0384163b155b15611a8757604051639996b31560e01b81526001600160a01b0385166004820152602401610920565b508061088e565b805115611a9e5780518082602001fd5b604051630a12f52160e11b815260040160405180910390fd5b50565b60005b83811015611ad5578181015183820152602001611abd565b50506000910152565b6020815260008251806020840152611afd816040850160208701611aba565b601f01601f19169190910160400192915050565b600060208284031215611b2357600080fd5b5035919050565b6001600160a01b0381168114611ab757600080fd5b60008060408385031215611b5257600080fd5b8235611b5d81611b2a565b946020939093013593505050565b600060208284031215611b7d57600080fd5b813561088e81611b2a565b600080600060608486031215611b9d57600080fd5b8335611ba881611b2a565b92506020840135611bb881611b2a565b929592945050506040919091013590565b60008083601f840112611bdb57600080fd5b50813567ffffffffffffffff811115611bf357600080fd5b602083019150836020828501011115611c0b57600080fd5b9250929050565b60008060008060008060a08789031215611c2b57600080fd5b863595506020870135611c3d81611b2a565b94506040870135611c4d81611b2a565b93506060870135611c5d81611b2a565b9250608087013567ffffffffffffffff811115611c7957600080fd5b611c8589828a01611bc9565b979a9699509497509295939492505050565b600080600060608486031215611cac57600080fd5b833592506020840135611bb881611b2a565b60008060408385031215611cd157600080fd5b823591506020830135611ce381611b2a565b809150509250929050565b600080600060608486031215611d0357600080fd5b8335611d0e81611b2a565b9250602084013591506040840135611d2581611b2a565b809150509250925092565b60008060208385031215611d4357600080fd5b823567ffffffffffffffff811115611d5a57600080fd5b611d6685828601611bc9565b90969095509350505050565b60008060008060808587031215611d8857600080fd5b843593506020850135611d9a81611b2a565b92506040850135611daa81611b2a565b9396929550929360600135925050565b600080600060608486031215611dcf57600080fd5b833592506020840135611de181611b2a565b91506040840135611d2581611b2a565b60008060408385031215611e0457600080fd5b8235611e0f81611b2a565b91506020830135611ce381611b2a565b600060208284031215611e3157600080fd5b5051919050565b600181811c90821680611e4c57607f821691505b602082108103611e6c57634e487b7160e01b600052602260045260246000fd5b50919050565b634e487b7160e01b600052601160045260246000fd5b60ff818116838216019081111561084457610844611e72565b8082018082111561084457610844611e72565b8183823760009101908152919050565b600181815b80851115611eff578160001904821115611ee557611ee5611e72565b80851615611ef257918102915b93841c9390800290611ec9565b509250929050565b600082611f1657506001610844565b81611f2357506000610844565b8160018114611f395760028114611f4357611f5f565b6001915050610844565b60ff841115611f5457611f54611e72565b50506001821b610844565b5060208310610133831016604e8410600b8410161715611f82575081810a610844565b611f8c8383611ec4565b8060001904821115611fa057611fa0611e72565b029392505050565b600061088e60ff841683611f07565b6001600160a01b039390931683526020830191909152604082015260600190565b634e487b7160e01b600052601260045260246000fd5b60006020828403121561200057600080fd5b8151801515811461088e57600080fd5b634e487b7160e01b600052602160045260246000fd5b600060ff83168061204757634e487b7160e01b600052601260045260246000fd5b8060ff84160691505092915050565b60008251612068818460208701611aba565b919091019291505056fea264697066735822122082d4a480e7b0b382c01baad4bf63103083381688bf928b34c7f861d3c55aa65964736f6c63430008180033","opcodes":"PUSH1 0xC0 PUSH1 0x40 MSTORE PUSH1 0x15 DUP1 SLOAD PUSH1 0xFF NOT AND SWAP1 SSTORE CALLVALUE DUP1 ISZERO PUSH3 0x1B JUMPI PUSH1 0x0 DUP1 REVERT JUMPDEST POP PUSH1 0x40 MLOAD PUSH3 0x25BA CODESIZE SUB DUP1 PUSH3 0x25BA DUP4 CODECOPY DUP2 ADD PUSH1 0x40 DUP2 SWAP1 MSTORE PUSH3 0x3E SWAP2 PUSH3 0x2AD JUMP JUMPDEST DUP3 DUP3 DUP3 PUSH1 0x3 PUSH3 0x4F DUP4 DUP3 PUSH3 0x3D3 JUMP JUMPDEST POP PUSH1 0x4 PUSH3 0x5E DUP3 DUP3 PUSH3 0x3D3 JUMP JUMPDEST POP POP POP PUSH1 0x0 DUP1 PUSH3 0x75 DUP4 PUSH3 0xE2 PUSH1 0x20 SHL PUSH1 0x20 SHR JUMP JUMPDEST SWAP2 POP SWAP2 POP DUP2 PUSH3 0x87 JUMPI PUSH1 0x12 PUSH3 0x89 JUMP JUMPDEST DUP1 JUMPDEST PUSH1 0xFF AND PUSH1 0xA0 MSTORE POP POP PUSH1 0x1 PUSH1 0x1 PUSH1 0xA0 SHL SUB SWAP1 DUP2 AND PUSH1 0x80 MSTORE PUSH1 0x1 PUSH1 0x5 SSTORE PUSH1 0x6 DUP1 SLOAD CALLER PUSH1 0x1 PUSH1 0x1 PUSH1 0xA0 SHL SUB NOT SWAP2 DUP3 AND OR SWAP1 SWAP2 SSTORE PUSH1 0x7 DUP1 SLOAD DUP3 AND SWAP6 DUP4 AND SWAP6 SWAP1 SWAP6 OR SWAP1 SWAP5 SSTORE PUSH1 0xA DUP1 SLOAD SWAP1 SWAP5 AND SWAP5 AND SWAP4 SWAP1 SWAP4 OR SWAP1 SWAP2 SSTORE POP PUSH3 0x4D7 SWAP1 POP JUMP JUMPDEST PUSH1 0x40 DUP1 MLOAD PUSH1 0x4 DUP2 MSTORE PUSH1 0x24 DUP2 ADD DUP3 MSTORE PUSH1 0x20 DUP2 ADD DUP1 MLOAD PUSH1 0x1 PUSH1 0x1 PUSH1 0xE0 SHL SUB AND PUSH4 0x313CE567 PUSH1 0xE0 SHL OR SWAP1 MSTORE SWAP1 MLOAD PUSH1 0x0 SWAP2 DUP3 SWAP2 DUP3 SWAP2 DUP3 SWAP2 PUSH1 0x1 PUSH1 0x1 PUSH1 0xA0 SHL SUB DUP8 AND SWAP2 PUSH3 0x12B SWAP2 PUSH3 0x49F JUMP JUMPDEST PUSH1 0x0 PUSH1 0x40 MLOAD DUP1 DUP4 SUB DUP2 DUP6 GAS STATICCALL SWAP2 POP POP RETURNDATASIZE DUP1 PUSH1 0x0 DUP2 EQ PUSH3 0x168 JUMPI PUSH1 0x40 MLOAD SWAP2 POP PUSH1 0x1F NOT PUSH1 0x3F RETURNDATASIZE ADD AND DUP3 ADD PUSH1 0x40 MSTORE RETURNDATASIZE DUP3 MSTORE RETURNDATASIZE PUSH1 0x0 PUSH1 0x20 DUP5 ADD RETURNDATACOPY PUSH3 0x16D JUMP JUMPDEST PUSH1 0x60 SWAP2 POP JUMPDEST POP SWAP2 POP SWAP2 POP DUP2 DUP1 ISZERO PUSH3 0x182 JUMPI POP PUSH1 0x20 DUP2 MLOAD LT ISZERO JUMPDEST ISZERO PUSH3 0x1BA JUMPI PUSH1 0x0 DUP2 DUP1 PUSH1 0x20 ADD SWAP1 MLOAD DUP2 ADD SWAP1 PUSH3 0x1A0 SWAP2 SWAP1 PUSH3 0x4BD JUMP JUMPDEST SWAP1 POP PUSH1 0xFF DUP2 GT PUSH3 0x1B8 JUMPI PUSH1 0x1 SWAP7 SWAP1 SWAP6 POP SWAP4 POP POP POP POP JUMP JUMPDEST POP JUMPDEST POP PUSH1 0x0 SWAP5 DUP6 SWAP5 POP SWAP3 POP POP POP JUMP JUMPDEST PUSH1 0x1 PUSH1 0x1 PUSH1 0xA0 SHL SUB DUP2 AND DUP2 EQ PUSH3 0x1DD JUMPI PUSH1 0x0 DUP1 REVERT JUMPDEST POP JUMP JUMPDEST PUSH4 0x4E487B71 PUSH1 0xE0 SHL PUSH1 0x0 MSTORE PUSH1 0x41 PUSH1 0x4 MSTORE PUSH1 0x24 PUSH1 0x0 REVERT JUMPDEST PUSH1 0x0 JUMPDEST DUP4 DUP2 LT ISZERO PUSH3 0x213 JUMPI DUP2 DUP2 ADD MLOAD DUP4 DUP3 ADD MSTORE PUSH1 0x20 ADD PUSH3 0x1F9 JUMP JUMPDEST POP POP PUSH1 0x0 SWAP2 ADD MSTORE JUMP JUMPDEST PUSH1 0x0 DUP3 PUSH1 0x1F DUP4 ADD SLT PUSH3 0x22E JUMPI PUSH1 0x0 DUP1 REVERT JUMPDEST DUP2 MLOAD PUSH1 0x1 PUSH1 0x1 PUSH1 0x40 SHL SUB DUP1 DUP3 GT ISZERO PUSH3 0x24B JUMPI PUSH3 0x24B PUSH3 0x1E0 JUMP JUMPDEST PUSH1 0x40 MLOAD PUSH1 0x1F DUP4 ADD PUSH1 0x1F NOT SWAP1 DUP2 AND PUSH1 0x3F ADD AND DUP2 ADD SWAP1 DUP3 DUP3 GT DUP2 DUP4 LT OR ISZERO PUSH3 0x276 JUMPI PUSH3 0x276 PUSH3 0x1E0 JUMP JUMPDEST DUP2 PUSH1 0x40 MSTORE DUP4 DUP2 MSTORE DUP7 PUSH1 0x20 DUP6 DUP9 ADD ADD GT ISZERO PUSH3 0x290 JUMPI PUSH1 0x0 DUP1 REVERT JUMPDEST PUSH3 0x2A3 DUP5 PUSH1 0x20 DUP4 ADD PUSH1 0x20 DUP10 ADD PUSH3 0x1F6 JUMP JUMPDEST SWAP7 SWAP6 POP POP POP POP POP POP JUMP JUMPDEST PUSH1 0x0 DUP1 PUSH1 0x0 DUP1 PUSH1 0x80 DUP6 DUP8 SUB SLT ISZERO PUSH3 0x2C4 JUMPI PUSH1 0x0 DUP1 REVERT JUMPDEST DUP5 MLOAD PUSH3 0x2D1 DUP2 PUSH3 0x1C7 JUMP JUMPDEST PUSH1 0x20 DUP7 ADD MLOAD SWAP1 SWAP5 POP PUSH3 0x2E4 DUP2 PUSH3 0x1C7 JUMP JUMPDEST PUSH1 0x40 DUP7 ADD MLOAD SWAP1 SWAP4 POP PUSH1 0x1 PUSH1 0x1 PUSH1 0x40 SHL SUB DUP1 DUP3 GT ISZERO PUSH3 0x302 JUMPI PUSH1 0x0 DUP1 REVERT JUMPDEST PUSH3 0x310 DUP9 DUP4 DUP10 ADD PUSH3 0x21C JUMP JUMPDEST SWAP4 POP PUSH1 0x60 DUP8 ADD MLOAD SWAP2 POP DUP1 DUP3 GT ISZERO PUSH3 0x327 JUMPI PUSH1 0x0 DUP1 REVERT JUMPDEST POP PUSH3 0x336 DUP8 DUP3 DUP9 ADD PUSH3 0x21C JUMP JUMPDEST SWAP2 POP POP SWAP3 SWAP6 SWAP2 SWAP5 POP SWAP3 POP JUMP JUMPDEST PUSH1 0x1 DUP2 DUP2 SHR SWAP1 DUP3 AND DUP1 PUSH3 0x357 JUMPI PUSH1 0x7F DUP3 AND SWAP2 POP JUMPDEST PUSH1 0x20 DUP3 LT DUP2 SUB PUSH3 0x378 JUMPI PUSH4 0x4E487B71 PUSH1 0xE0 SHL PUSH1 0x0 MSTORE PUSH1 0x22 PUSH1 0x4 MSTORE PUSH1 0x24 PUSH1 0x0 REVERT JUMPDEST POP SWAP2 SWAP1 POP JUMP JUMPDEST PUSH1 0x1F DUP3 GT ISZERO PUSH3 0x3CE JUMPI PUSH1 0x0 DUP2 PUSH1 0x0 MSTORE PUSH1 0x20 PUSH1 0x0 KECCAK256 PUSH1 0x1F DUP6 ADD PUSH1 0x5 SHR DUP2 ADD PUSH1 0x20 DUP7 LT ISZERO PUSH3 0x3A9 JUMPI POP DUP1 JUMPDEST PUSH1 0x1F DUP6 ADD PUSH1 0x5 SHR DUP3 ADD SWAP2 POP JUMPDEST DUP2 DUP2 LT ISZERO PUSH3 0x3CA JUMPI DUP3 DUP2 SSTORE PUSH1 0x1 ADD PUSH3 0x3B5 JUMP JUMPDEST POP POP POP JUMPDEST POP POP POP JUMP JUMPDEST DUP2 MLOAD PUSH1 0x1 PUSH1 0x1 PUSH1 0x40 SHL SUB DUP2 GT ISZERO PUSH3 0x3EF JUMPI PUSH3 0x3EF PUSH3 0x1E0 JUMP JUMPDEST PUSH3 0x407 DUP2 PUSH3 0x400 DUP5 SLOAD PUSH3 0x342 JUMP JUMPDEST DUP5 PUSH3 0x37E JUMP JUMPDEST PUSH1 0x20 DUP1 PUSH1 0x1F DUP4 GT PUSH1 0x1 DUP2 EQ PUSH3 0x43F JUMPI PUSH1 0x0 DUP5 ISZERO PUSH3 0x426 JUMPI POP DUP6 DUP4 ADD MLOAD JUMPDEST PUSH1 0x0 NOT PUSH1 0x3 DUP7 SWAP1 SHL SHR NOT AND PUSH1 0x1 DUP6 SWAP1 SHL OR DUP6 SSTORE PUSH3 0x3CA JUMP JUMPDEST PUSH1 0x0 DUP6 DUP2 MSTORE PUSH1 0x20 DUP2 KECCAK256 PUSH1 0x1F NOT DUP7 AND SWAP2 JUMPDEST DUP3 DUP2 LT ISZERO PUSH3 0x470 JUMPI DUP9 DUP7 ADD MLOAD DUP3 SSTORE SWAP5 DUP5 ADD SWAP5 PUSH1 0x1 SWAP1 SWAP2 ADD SWAP1 DUP5 ADD PUSH3 0x44F JUMP JUMPDEST POP DUP6 DUP3 LT ISZERO PUSH3 0x48F JUMPI DUP8 DUP6 ADD MLOAD PUSH1 0x0 NOT PUSH1 0x3 DUP9 SWAP1 SHL PUSH1 0xF8 AND SHR NOT AND DUP2 SSTORE JUMPDEST POP POP POP POP POP PUSH1 0x1 SWAP1 DUP2 SHL ADD SWAP1 SSTORE POP JUMP JUMPDEST PUSH1 0x0 DUP3 MLOAD PUSH3 0x4B3 DUP2 DUP5 PUSH1 0x20 DUP8 ADD PUSH3 0x1F6 JUMP JUMPDEST SWAP2 SWAP1 SWAP2 ADD SWAP3 SWAP2 POP POP JUMP JUMPDEST PUSH1 0x0 PUSH1 0x20 DUP3 DUP5 SUB SLT ISZERO PUSH3 0x4D0 JUMPI PUSH1 0x0 DUP1 REVERT JUMPDEST POP MLOAD SWAP2 SWAP1 POP JUMP JUMPDEST PUSH1 0x80 MLOAD PUSH1 0xA0 MLOAD PUSH2 0x20A8 PUSH3 0x512 PUSH1 0x0 CODECOPY PUSH1 0x0 PUSH2 0x89D ADD MSTORE PUSH1 0x0 DUP2 DUP2 PUSH2 0x3C6 ADD MSTORE DUP2 DUP2 PUSH2 0x72D ADD MSTORE DUP2 DUP2 PUSH2 0x1662 ADD MSTORE PUSH2 0x1777 ADD MSTORE PUSH2 0x20A8 PUSH1 0x0 RETURN INVALID PUSH1 0x80 PUSH1 0x40 MSTORE CALLVALUE DUP1 ISZERO PUSH2 0x10 JUMPI PUSH1 0x0 DUP1 REVERT JUMPDEST POP PUSH1 0x4 CALLDATASIZE LT PUSH2 0x27F JUMPI PUSH1 0x0 CALLDATALOAD PUSH1 0xE0 SHR DUP1 PUSH4 0x83EF1495 GT PUSH2 0x15C JUMPI DUP1 PUSH4 0xBA087652 GT PUSH2 0xCE JUMPI DUP1 PUSH4 0xD1FBB45C GT PUSH2 0x87 JUMPI DUP1 PUSH4 0xD1FBB45C EQ PUSH2 0x685 JUMPI DUP1 PUSH4 0xD905777E EQ PUSH2 0x6A5 JUMPI DUP1 PUSH4 0xD9D77923 EQ PUSH2 0x6B8 JUMPI DUP1 PUSH4 0xDAA85FF0 EQ PUSH2 0x6CB JUMPI DUP1 PUSH4 0xDD62ED3E EQ PUSH2 0x6DC JUMPI DUP1 PUSH4 0xEF8B30F7 EQ PUSH2 0x65F JUMPI PUSH1 0x0 DUP1 REVERT JUMPDEST DUP1 PUSH4 0xBA087652 EQ PUSH2 0x58D JUMPI DUP1 PUSH4 0xBC903CB8 EQ PUSH2 0x5A0 JUMPI DUP1 PUSH4 0xC49724EC EQ PUSH2 0x64C JUMPI DUP1 PUSH4 0xC63D75B6 EQ PUSH2 0x3FE JUMPI DUP1 PUSH4 0xC6E6F592 EQ PUSH2 0x65F JUMPI DUP1 PUSH4 0xCE96CB77 EQ PUSH2 0x672 JUMPI PUSH1 0x0 DUP1 REVERT JUMPDEST DUP1 PUSH4 0x99EA4C01 GT PUSH2 0x120 JUMPI DUP1 PUSH4 0x99EA4C01 EQ PUSH2 0x51B JUMPI DUP1 PUSH4 0x9BCD9A2B EQ PUSH2 0x52E JUMPI DUP1 PUSH4 0xA9059CBB EQ PUSH2 0x541 JUMPI DUP1 PUSH4 0xB3D7F6B9 EQ PUSH2 0x554 JUMPI DUP1 PUSH4 0xB460AF94 EQ PUSH2 0x567 JUMPI DUP1 PUSH4 0xB52D7343 EQ PUSH2 0x57A JUMPI PUSH1 0x0 DUP1 REVERT JUMPDEST DUP1 PUSH4 0x83EF1495 EQ PUSH2 0x4C5 JUMPI DUP1 PUSH4 0x84E79842 EQ PUSH2 0x4D8 JUMPI DUP1 PUSH4 0x8719A3B1 EQ PUSH2 0x4ED JUMPI DUP1 PUSH4 0x94BF804D EQ PUSH2 0x500 JUMPI DUP1 PUSH4 0x95D89B41 EQ PUSH2 0x513 JUMPI PUSH1 0x0 DUP1 REVERT JUMPDEST DUP1 PUSH4 0x313CE567 GT PUSH2 0x1F5 JUMPI DUP1 PUSH4 0x55F86DF8 GT PUSH2 0x1B9 JUMPI DUP1 PUSH4 0x55F86DF8 EQ PUSH2 0x426 JUMPI DUP1 PUSH4 0x6763C5FA EQ PUSH2 0x439 JUMPI DUP1 PUSH4 0x6E4E3E2D EQ PUSH2 0x44A JUMPI DUP1 PUSH4 0x6E553F65 EQ PUSH2 0x476 JUMPI DUP1 PUSH4 0x70A08231 EQ PUSH2 0x489 JUMPI DUP1 PUSH4 0x7498E87C EQ PUSH2 0x4B2 JUMPI PUSH1 0x0 DUP1 REVERT JUMPDEST DUP1 PUSH4 0x313CE567 EQ PUSH2 0x3AA JUMPI DUP1 PUSH4 0x38D52E0F EQ PUSH2 0x3C4 JUMPI DUP1 PUSH4 0x402D267D EQ PUSH2 0x3FE JUMPI DUP1 PUSH4 0x42B4725A EQ PUSH2 0x413 JUMPI DUP1 PUSH4 0x4CDAD506 EQ PUSH2 0x2B4 JUMPI PUSH1 0x0 DUP1 REVERT JUMPDEST DUP1 PUSH4 0xF6992EB GT PUSH2 0x247 JUMPI DUP1 PUSH4 0xF6992EB EQ PUSH2 0x2FD JUMPI DUP1 PUSH4 0x13F2DAD0 EQ PUSH2 0x331 JUMPI DUP1 PUSH4 0x18160DDD EQ PUSH2 0x351 JUMPI DUP1 PUSH4 0x226B0D0A EQ PUSH2 0x359 JUMPI DUP1 PUSH4 0x23B872DD EQ PUSH2 0x361 JUMPI DUP1 PUSH4 0x2D89CB08 EQ PUSH2 0x374 JUMPI PUSH1 0x0 DUP1 REVERT JUMPDEST DUP1 PUSH4 0x1E1D114 EQ PUSH2 0x284 JUMPI DUP1 PUSH4 0x6FDDE03 EQ PUSH2 0x29F JUMPI DUP1 PUSH4 0x7A2D13A EQ PUSH2 0x2B4 JUMPI DUP1 PUSH4 0x95EA7B3 EQ PUSH2 0x2C7 JUMPI DUP1 PUSH4 0xA28A477 EQ PUSH2 0x2EA JUMPI JUMPDEST PUSH1 0x0 DUP1 REVERT JUMPDEST PUSH2 0x28C PUSH2 0x715 JUMP JUMPDEST PUSH1 0x40 MLOAD SWAP1 DUP2 MSTORE PUSH1 0x20 ADD JUMPDEST PUSH1 0x40 MLOAD DUP1 SWAP2 SUB SWAP1 RETURN JUMPDEST PUSH2 0x2A7 PUSH2 0x7A5 JUMP JUMPDEST PUSH1 0x40 MLOAD PUSH2 0x296 SWAP2 SWAP1 PUSH2 0x1ADE JUMP JUMPDEST PUSH2 0x28C PUSH2 0x2C2 CALLDATASIZE PUSH1 0x4 PUSH2 0x1B11 JUMP JUMPDEST PUSH2 0x837 JUMP JUMPDEST PUSH2 0x2DA PUSH2 0x2D5 CALLDATASIZE PUSH1 0x4 PUSH2 0x1B3F JUMP JUMPDEST PUSH2 0x84A JUMP JUMPDEST PUSH1 0x40 MLOAD SWAP1 ISZERO ISZERO DUP2 MSTORE PUSH1 0x20 ADD PUSH2 0x296 JUMP JUMPDEST PUSH2 0x28C PUSH2 0x2F8 CALLDATASIZE PUSH1 0x4 PUSH2 0x1B11 JUMP JUMPDEST PUSH2 0x862 JUMP JUMPDEST PUSH2 0x28C PUSH2 0x30B CALLDATASIZE PUSH1 0x4 PUSH2 0x1B6B JUMP JUMPDEST PUSH1 0x1 PUSH1 0x1 PUSH1 0xA0 SHL SUB AND PUSH1 0x0 SWAP1 DUP2 MSTORE PUSH1 0x10 PUSH1 0x20 SWAP1 DUP2 MSTORE PUSH1 0x40 DUP1 DUP4 KECCAK256 DUP4 DUP1 MSTORE SWAP1 SWAP2 MSTORE SWAP1 KECCAK256 SLOAD SWAP1 JUMP JUMPDEST PUSH2 0x28C PUSH2 0x33F CALLDATASIZE PUSH1 0x4 PUSH2 0x1B11 JUMP JUMPDEST PUSH1 0x0 SWAP1 DUP2 MSTORE PUSH1 0xE PUSH1 0x20 MSTORE PUSH1 0x40 SWAP1 KECCAK256 SLOAD SWAP1 JUMP JUMPDEST PUSH1 0x2 SLOAD PUSH2 0x28C JUMP JUMPDEST PUSH1 0x8 SLOAD PUSH2 0x28C JUMP JUMPDEST PUSH2 0x2DA PUSH2 0x36F CALLDATASIZE PUSH1 0x4 PUSH2 0x1B88 JUMP JUMPDEST PUSH2 0x86F JUMP JUMPDEST PUSH2 0x28C PUSH2 0x382 CALLDATASIZE PUSH1 0x4 PUSH2 0x1B3F JUMP JUMPDEST PUSH1 0x1 PUSH1 0x1 PUSH1 0xA0 SHL SUB SWAP2 SWAP1 SWAP2 AND PUSH1 0x0 SWAP1 DUP2 MSTORE PUSH1 0x10 PUSH1 0x20 SWAP1 DUP2 MSTORE PUSH1 0x40 DUP1 DUP4 KECCAK256 SWAP4 DUP4 MSTORE SWAP3 SWAP1 MSTORE KECCAK256 SLOAD SWAP1 JUMP JUMPDEST PUSH2 0x3B2 PUSH2 0x895 JUMP JUMPDEST PUSH1 0x40 MLOAD PUSH1 0xFF SWAP1 SWAP2 AND DUP2 MSTORE PUSH1 0x20 ADD PUSH2 0x296 JUMP JUMPDEST PUSH32 0x0 JUMPDEST PUSH1 0x40 MLOAD PUSH1 0x1 PUSH1 0x1 PUSH1 0xA0 SHL SUB SWAP1 SWAP2 AND DUP2 MSTORE PUSH1 0x20 ADD PUSH2 0x296 JUMP JUMPDEST PUSH2 0x28C PUSH2 0x40C CALLDATASIZE PUSH1 0x4 PUSH2 0x1B6B JUMP JUMPDEST POP PUSH1 0x0 NOT SWAP1 JUMP JUMPDEST PUSH2 0x28C PUSH2 0x421 CALLDATASIZE PUSH1 0x4 PUSH2 0x1C12 JUMP JUMPDEST PUSH2 0x8C1 JUMP JUMPDEST PUSH2 0x28C PUSH2 0x434 CALLDATASIZE PUSH1 0x4 PUSH2 0x1C97 JUMP JUMPDEST PUSH2 0xA45 JUMP JUMPDEST PUSH1 0xA SLOAD PUSH1 0x1 PUSH1 0x1 PUSH1 0xA0 SHL SUB AND PUSH2 0x3E6 JUMP JUMPDEST PUSH2 0x2DA PUSH2 0x458 CALLDATASIZE PUSH1 0x4 PUSH2 0x1B6B JUMP JUMPDEST PUSH1 0x1 PUSH1 0x1 PUSH1 0xA0 SHL SUB AND PUSH1 0x0 SWAP1 DUP2 MSTORE PUSH1 0xD PUSH1 0x20 MSTORE PUSH1 0x40 SWAP1 KECCAK256 SLOAD PUSH1 0xFF AND SWAP1 JUMP JUMPDEST PUSH2 0x28C PUSH2 0x484 CALLDATASIZE PUSH1 0x4 PUSH2 0x1CBE JUMP JUMPDEST PUSH2 0xB7A JUMP JUMPDEST PUSH2 0x28C PUSH2 0x497 CALLDATASIZE PUSH1 0x4 PUSH2 0x1B6B JUMP JUMPDEST PUSH1 0x1 PUSH1 0x1 PUSH1 0xA0 SHL SUB AND PUSH1 0x0 SWAP1 DUP2 MSTORE PUSH1 0x20 DUP2 SWAP1 MSTORE PUSH1 0x40 SWAP1 KECCAK256 SLOAD SWAP1 JUMP JUMPDEST PUSH2 0x2DA PUSH2 0x4C0 CALLDATASIZE PUSH1 0x4 PUSH2 0x1CEE JUMP JUMPDEST PUSH2 0xB9A JUMP JUMPDEST PUSH2 0x28C PUSH2 0x4D3 CALLDATASIZE PUSH1 0x4 PUSH2 0x1D30 JUMP JUMPDEST PUSH2 0xCAB JUMP JUMPDEST PUSH2 0x4EB PUSH2 0x4E6 CALLDATASIZE PUSH1 0x4 PUSH2 0x1B6B JUMP JUMPDEST PUSH2 0xCF9 JUMP JUMPDEST STOP JUMPDEST PUSH2 0x2DA PUSH2 0x4FB CALLDATASIZE PUSH1 0x4 PUSH2 0x1D30 JUMP JUMPDEST PUSH2 0xD62 JUMP JUMPDEST PUSH2 0x28C PUSH2 0x50E CALLDATASIZE PUSH1 0x4 PUSH2 0x1CBE JUMP JUMPDEST PUSH2 0xDA8 JUMP JUMPDEST PUSH2 0x2A7 PUSH2 0xDBC JUMP JUMPDEST PUSH2 0x28C PUSH2 0x529 CALLDATASIZE PUSH1 0x4 PUSH2 0x1D72 JUMP JUMPDEST PUSH2 0xDCB JUMP JUMPDEST PUSH2 0x28C PUSH2 0x53C CALLDATASIZE PUSH1 0x4 PUSH2 0x1B3F JUMP JUMPDEST PUSH2 0xE9C JUMP JUMPDEST PUSH2 0x2DA PUSH2 0x54F CALLDATASIZE PUSH1 0x4 PUSH2 0x1B3F JUMP JUMPDEST PUSH2 0xEC7 JUMP JUMPDEST PUSH2 0x28C PUSH2 0x562 CALLDATASIZE PUSH1 0x4 PUSH2 0x1B11 JUMP JUMPDEST PUSH2 0xED5 JUMP JUMPDEST PUSH2 0x28C PUSH2 0x575 CALLDATASIZE PUSH1 0x4 PUSH2 0x1DBA JUMP JUMPDEST PUSH2 0xEE2 JUMP JUMPDEST PUSH2 0x28C PUSH2 0x588 CALLDATASIZE PUSH1 0x4 PUSH2 0x1B3F JUMP JUMPDEST PUSH2 0xF6F JUMP JUMPDEST PUSH2 0x28C PUSH2 0x59B CALLDATASIZE PUSH1 0x4 PUSH2 0x1DBA JUMP JUMPDEST PUSH2 0xF9A JUMP JUMPDEST PUSH2 0x622 PUSH2 0x5AE CALLDATASIZE PUSH1 0x4 PUSH2 0x1B11 JUMP JUMPDEST PUSH1 0x0 DUP2 DUP2 MSTORE PUSH1 0x11 PUSH1 0x20 SWAP1 DUP2 MSTORE PUSH1 0x40 SWAP2 DUP3 SWAP1 KECCAK256 DUP3 MLOAD PUSH1 0xE0 DUP2 ADD DUP5 MSTORE DUP2 SLOAD PUSH1 0x1 PUSH1 0x1 PUSH1 0xA0 SHL SUB SWAP1 DUP2 AND DUP3 MSTORE PUSH1 0x1 DUP4 ADD SLOAD SWAP4 DUP3 ADD DUP5 SWAP1 MSTORE PUSH1 0x2 DUP4 ADD SLOAD DUP2 AND SWAP5 DUP3 ADD DUP6 SWAP1 MSTORE PUSH1 0x3 DUP4 ADD SLOAD AND PUSH1 0x60 DUP3 ADD DUP2 SWAP1 MSTORE PUSH1 0x4 DUP4 ADD SLOAD PUSH1 0x80 DUP4 ADD MSTORE PUSH1 0x5 DUP4 ADD SLOAD PUSH1 0xA0 DUP4 ADD MSTORE PUSH1 0x6 SWAP1 SWAP3 ADD SLOAD PUSH1 0xC0 SWAP1 SWAP2 ADD MSTORE SWAP4 SWAP1 SWAP3 POP JUMP JUMPDEST PUSH1 0x40 DUP1 MLOAD PUSH1 0x1 PUSH1 0x1 PUSH1 0xA0 SHL SUB SWAP5 DUP6 AND DUP2 MSTORE PUSH1 0x20 DUP2 ADD SWAP4 SWAP1 SWAP4 MSTORE SWAP3 AND SWAP2 DUP2 ADD SWAP2 SWAP1 SWAP2 MSTORE PUSH1 0x60 ADD PUSH2 0x296 JUMP JUMPDEST PUSH2 0x28C PUSH2 0x65A CALLDATASIZE PUSH1 0x4 PUSH2 0x1D72 JUMP JUMPDEST PUSH2 0x1017 JUMP JUMPDEST PUSH2 0x28C PUSH2 0x66D CALLDATASIZE PUSH1 0x4 PUSH2 0x1B11 JUMP JUMPDEST PUSH2 0x109F JUMP JUMPDEST PUSH2 0x28C PUSH2 0x680 CALLDATASIZE PUSH1 0x4 PUSH2 0x1B6B JUMP JUMPDEST PUSH2 0x10AC JUMP JUMPDEST PUSH2 0x28C PUSH2 0x693 CALLDATASIZE PUSH1 0x4 PUSH2 0x1B11 JUMP JUMPDEST PUSH1 0x0 SWAP1 DUP2 MSTORE PUSH1 0x14 PUSH1 0x20 MSTORE PUSH1 0x40 SWAP1 KECCAK256 SLOAD SWAP1 JUMP JUMPDEST PUSH2 0x28C PUSH2 0x6B3 CALLDATASIZE PUSH1 0x4 PUSH2 0x1B6B JUMP JUMPDEST PUSH2 0x10D0 JUMP JUMPDEST PUSH2 0x28C PUSH2 0x6C6 CALLDATASIZE PUSH1 0x4 PUSH2 0x1C97 JUMP JUMPDEST PUSH2 0x10EE JUMP JUMPDEST PUSH1 0x6 SLOAD PUSH1 0x1 PUSH1 0x1 PUSH1 0xA0 SHL SUB AND PUSH2 0x3E6 JUMP JUMPDEST PUSH2 0x28C PUSH2 0x6EA CALLDATASIZE PUSH1 0x4 PUSH2 0x1DF1 JUMP JUMPDEST PUSH1 0x1 PUSH1 0x1 PUSH1 0xA0 SHL SUB SWAP2 DUP3 AND PUSH1 0x0 SWAP1 DUP2 MSTORE PUSH1 0x1 PUSH1 0x20 SWAP1 DUP2 MSTORE PUSH1 0x40 DUP1 DUP4 KECCAK256 SWAP4 SWAP1 SWAP5 AND DUP3 MSTORE SWAP2 SWAP1 SWAP2 MSTORE KECCAK256 SLOAD SWAP1 JUMP JUMPDEST PUSH1 0x40 MLOAD PUSH4 0x70A08231 PUSH1 0xE0 SHL DUP2 MSTORE ADDRESS PUSH1 0x4 DUP3 ADD MSTORE PUSH1 0x0 SWAP1 PUSH32 0x0 PUSH1 0x1 PUSH1 0x1 PUSH1 0xA0 SHL SUB AND SWAP1 PUSH4 0x70A08231 SWAP1 PUSH1 0x24 ADD PUSH1 0x20 PUSH1 0x40 MLOAD DUP1 DUP4 SUB DUP2 DUP7 GAS STATICCALL ISZERO DUP1 ISZERO PUSH2 0x77C JUMPI RETURNDATASIZE PUSH1 0x0 DUP1 RETURNDATACOPY RETURNDATASIZE PUSH1 0x0 REVERT JUMPDEST POP POP POP POP PUSH1 0x40 MLOAD RETURNDATASIZE PUSH1 0x1F NOT PUSH1 0x1F DUP3 ADD AND DUP3 ADD DUP1 PUSH1 0x40 MSTORE POP DUP2 ADD SWAP1 PUSH2 0x7A0 SWAP2 SWAP1 PUSH2 0x1E1F JUMP JUMPDEST SWAP1 POP SWAP1 JUMP JUMPDEST PUSH1 0x60 PUSH1 0x3 DUP1 SLOAD PUSH2 0x7B4 SWAP1 PUSH2 0x1E38 JUMP JUMPDEST DUP1 PUSH1 0x1F ADD PUSH1 0x20 DUP1 SWAP2 DIV MUL PUSH1 0x20 ADD PUSH1 0x40 MLOAD SWAP1 DUP2 ADD PUSH1 0x40 MSTORE DUP1 SWAP3 SWAP2 SWAP1 DUP2 DUP2 MSTORE PUSH1 0x20 ADD DUP3 DUP1 SLOAD PUSH2 0x7E0 SWAP1 PUSH2 0x1E38 JUMP JUMPDEST DUP1 ISZERO PUSH2 0x82D JUMPI DUP1 PUSH1 0x1F LT PUSH2 0x802 JUMPI PUSH2 0x100 DUP1 DUP4 SLOAD DIV MUL DUP4 MSTORE SWAP2 PUSH1 0x20 ADD SWAP2 PUSH2 0x82D JUMP JUMPDEST DUP3 ADD SWAP2 SWAP1 PUSH1 0x0 MSTORE PUSH1 0x20 PUSH1 0x0 KECCAK256 SWAP1 JUMPDEST DUP2 SLOAD DUP2 MSTORE SWAP1 PUSH1 0x1 ADD SWAP1 PUSH1 0x20 ADD DUP1 DUP4 GT PUSH2 0x810 JUMPI DUP3 SWAP1 SUB PUSH1 0x1F AND DUP3 ADD SWAP2 JUMPDEST POP POP POP POP POP SWAP1 POP SWAP1 JUMP JUMPDEST PUSH1 0x0 PUSH2 0x844 DUP3 PUSH1 0x0 PUSH2 0x115C JUMP JUMPDEST SWAP3 SWAP2 POP POP JUMP JUMPDEST PUSH1 0x0 CALLER PUSH2 0x858 DUP2 DUP6 DUP6 PUSH2 0x1196 JUMP JUMPDEST POP PUSH1 0x1 SWAP4 SWAP3 POP POP POP JUMP JUMPDEST PUSH1 0x0 PUSH2 0x844 DUP3 PUSH1 0x1 PUSH2 0x11A8 JUMP JUMPDEST PUSH1 0x0 CALLER PUSH2 0x87D DUP6 DUP3 DUP6 PUSH2 0x11D8 JUMP JUMPDEST PUSH2 0x888 DUP6 DUP6 DUP6 PUSH2 0x1243 JUMP JUMPDEST PUSH1 0x1 SWAP2 POP POP JUMPDEST SWAP4 SWAP3 POP POP POP JUMP JUMPDEST PUSH1 0x0 PUSH2 0x7A0 DUP2 PUSH32 0x0 PUSH2 0x1E88 JUMP JUMPDEST PUSH1 0xA SLOAD PUSH1 0x0 SWAP1 PUSH1 0x1 PUSH1 0x1 PUSH1 0xA0 SHL SUB AND CALLER EQ DUP1 PUSH2 0x8E7 JUMPI POP PUSH1 0x6 SLOAD PUSH1 0x1 PUSH1 0x1 PUSH1 0xA0 SHL SUB AND CALLER EQ JUMPDEST PUSH2 0x929 JUMPI PUSH1 0x40 MLOAD PUSH3 0x461BCD PUSH1 0xE5 SHL DUP2 MSTORE PUSH1 0x20 PUSH1 0x4 DUP3 ADD MSTORE PUSH1 0xE PUSH1 0x24 DUP3 ADD MSTORE PUSH14 0x139BDD08185D5D1A1BDC9A5E9959 PUSH1 0x92 SHL PUSH1 0x44 DUP3 ADD MSTORE PUSH1 0x64 ADD JUMPDEST PUSH1 0x40 MLOAD DUP1 SWAP2 SUB SWAP1 REVERT JUMPDEST PUSH1 0x0 PUSH2 0x935 DUP5 DUP5 PUSH2 0xCAB JUMP JUMPDEST PUSH1 0x0 DUP2 DUP2 MSTORE PUSH1 0x13 PUSH1 0x20 MSTORE PUSH1 0x40 SWAP1 KECCAK256 SLOAD SWAP1 SWAP2 POP PUSH1 0xFF AND ISZERO PUSH2 0x954 JUMPI PUSH1 0x0 DUP1 REVERT JUMPDEST PUSH1 0x0 PUSH2 0x95F PUSH1 0x8 SLOAD SWAP1 JUMP JUMPDEST PUSH2 0x96A SWAP1 PUSH1 0x1 PUSH2 0x1EA1 JUMP JUMPDEST PUSH1 0x0 DUP4 DUP2 MSTORE PUSH1 0x14 PUSH1 0x20 SWAP1 DUP2 MSTORE PUSH1 0x40 DUP1 DUP4 KECCAK256 DUP5 SWAP1 SSTORE PUSH1 0x13 DUP3 MSTORE DUP1 DUP4 KECCAK256 DUP1 SLOAD PUSH1 0xFF NOT AND PUSH1 0x1 SWAP1 DUP2 OR SWAP1 SWAP2 SSTORE DUP5 DUP5 MSTORE PUSH1 0x11 SWAP1 SWAP3 MSTORE SWAP2 DUP3 SWAP1 KECCAK256 DUP1 SLOAD PUSH1 0x1 PUSH1 0x1 PUSH1 0xA0 SHL SUB DUP1 DUP14 AND PUSH1 0x1 PUSH1 0x1 PUSH1 0xA0 SHL SUB NOT SWAP3 DUP4 AND OR DUP4 SSTORE PUSH1 0x3 DUP4 ADD DUP1 SLOAD DUP14 DUP4 AND SWAP1 DUP5 AND DUP2 OR SWAP1 SWAP2 SSTORE SWAP4 DUP4 ADD DUP16 SWAP1 SSTORE PUSH1 0x2 SWAP1 SWAP3 ADD DUP1 SLOAD SWAP3 DUP15 AND SWAP3 SWAP1 SWAP2 AND SWAP2 SWAP1 SWAP2 OR SWAP1 SSTORE PUSH1 0x8 DUP4 SWAP1 SSTORE SWAP1 MLOAD SWAP2 SWAP3 POP DUP11 SWAP2 DUP4 SWAP2 SWAP1 PUSH32 0xE3F793765505956BDFBA748FC191297CCA4AFE7773EA892359604C9C40380B7E SWAP1 PUSH2 0xA31 SWAP1 DUP14 SWAP1 PUSH1 0x1 PUSH1 0x1 PUSH1 0xA0 SHL SUB SWAP2 SWAP1 SWAP2 AND DUP2 MSTORE PUSH1 0x20 ADD SWAP1 JUMP JUMPDEST PUSH1 0x40 MLOAD DUP1 SWAP2 SUB SWAP1 LOG4 SWAP9 SWAP8 POP POP POP POP POP POP POP POP JUMP JUMPDEST PUSH1 0x0 PUSH2 0xA4F PUSH2 0x12A2 JUMP JUMPDEST DUP2 PUSH2 0xA59 PUSH1 0x8 SLOAD SWAP1 JUMP JUMPDEST LT ISZERO PUSH2 0xA9A JUMPI PUSH1 0x40 MLOAD PUSH3 0x461BCD PUSH1 0xE5 SHL DUP2 MSTORE PUSH1 0x20 PUSH1 0x4 DUP3 ADD MSTORE PUSH1 0x10 PUSH1 0x24 DUP3 ADD MSTORE PUSH16 0x125B9D985B1A59081C1C9BDC1BDCD85B PUSH1 0x82 SHL PUSH1 0x44 DUP3 ADD MSTORE PUSH1 0x64 ADD PUSH2 0x920 JUMP JUMPDEST PUSH1 0x15 DUP1 SLOAD PUSH1 0xFF NOT AND PUSH1 0x1 OR SWAP1 SSTORE PUSH1 0x0 PUSH2 0xAB3 DUP6 DUP6 PUSH2 0x12CC JUMP JUMPDEST PUSH1 0x15 DUP1 SLOAD PUSH1 0xFF NOT AND SWAP1 SSTORE SWAP1 POP PUSH2 0xADE PUSH2 0xAD8 DUP5 PUSH1 0x0 SWAP1 DUP2 MSTORE PUSH1 0xE PUSH1 0x20 MSTORE PUSH1 0x40 SWAP1 KECCAK256 SLOAD SWAP1 JUMP JUMPDEST DUP3 PUSH2 0x12EA JUMP JUMPDEST PUSH1 0x0 DUP5 DUP2 MSTORE PUSH1 0xE PUSH1 0x20 SWAP1 DUP2 MSTORE PUSH1 0x40 DUP1 DUP4 KECCAK256 SWAP4 SWAP1 SWAP4 SSTORE CALLER DUP3 MSTORE PUSH1 0x10 DUP2 MSTORE DUP3 DUP3 KECCAK256 DUP3 DUP1 MSTORE SWAP1 MSTORE SWAP1 DUP2 KECCAK256 SLOAD PUSH2 0xB11 SWAP1 PUSH1 0x1 PUSH2 0x1EA1 JUMP JUMPDEST SWAP1 POP PUSH2 0xB26 PUSH2 0xB20 DUP7 DUP7 PUSH2 0xF6F JUMP JUMPDEST DUP4 PUSH2 0x12EA JUMP JUMPDEST PUSH1 0x1 PUSH1 0x1 PUSH1 0xA0 SHL SUB DUP7 AND PUSH1 0x0 SWAP1 DUP2 MSTORE PUSH1 0x10 PUSH1 0x20 DUP2 DUP2 MSTORE PUSH1 0x40 DUP1 DUP5 KECCAK256 DUP10 DUP6 MSTORE DUP3 MSTORE DUP1 DUP5 KECCAK256 PUSH1 0x1 SWAP1 DUP2 ADD SWAP6 SWAP1 SWAP6 SSTORE CALLER DUP5 MSTORE SWAP2 DUP2 MSTORE DUP2 DUP4 KECCAK256 DUP4 DUP1 MSTORE SWAP1 MSTORE DUP1 DUP3 KECCAK256 DUP5 SWAP1 SSTORE SWAP3 DUP2 MSTORE SWAP2 SWAP1 SWAP2 KECCAK256 DUP5 SWAP1 SSTORE PUSH1 0x5 SSTORE SWAP1 POP PUSH2 0x88E JUMP JUMPDEST PUSH1 0x0 PUSH2 0xB84 PUSH2 0x12A2 JUMP JUMPDEST PUSH2 0xB8E DUP4 DUP4 PUSH2 0x12CC JUMP JUMPDEST SWAP1 POP PUSH2 0x844 PUSH1 0x1 PUSH1 0x5 SSTORE JUMP JUMPDEST PUSH1 0x0 DUP1 DUP4 GT PUSH2 0xBEB JUMPI PUSH1 0x40 MLOAD PUSH3 0x461BCD PUSH1 0xE5 SHL DUP2 MSTORE PUSH1 0x20 PUSH1 0x4 DUP3 ADD DUP2 SWAP1 MSTORE PUSH1 0x24 DUP3 ADD MSTORE PUSH32 0x416D6F756E74206D7573742062652067726561746572207468616E207A65726F PUSH1 0x44 DUP3 ADD MSTORE PUSH1 0x64 ADD PUSH2 0x920 JUMP JUMPDEST PUSH1 0x9 SLOAD PUSH1 0x0 DUP2 DUP2 MSTORE PUSH1 0x12 PUSH1 0x20 MSTORE PUSH1 0x40 SWAP1 KECCAK256 SWAP1 PUSH2 0xC08 SWAP1 PUSH1 0x1 PUSH2 0x1EA1 JUMP JUMPDEST PUSH1 0x9 DUP2 SWAP1 SSTORE DUP2 SSTORE PUSH1 0x1 DUP2 ADD DUP5 SWAP1 SSTORE PUSH1 0x2 DUP2 ADD DUP1 SLOAD PUSH1 0x1 PUSH1 0x1 PUSH1 0xA0 SHL SUB DUP1 DUP9 AND PUSH1 0x1 PUSH1 0x1 PUSH1 0xA0 SHL SUB NOT SWAP3 DUP4 AND OR SWAP1 SWAP3 SSTORE TIMESTAMP PUSH1 0x4 DUP5 ADD SSTORE PUSH1 0x3 DUP4 ADD DUP1 SLOAD SWAP3 DUP7 AND SWAP3 SWAP1 SWAP2 AND SWAP2 SWAP1 SWAP2 OR SWAP1 SSTORE PUSH2 0xC5C DUP6 DUP5 ADDRESS DUP8 PUSH2 0x12F6 JUMP JUMPDEST PUSH1 0x40 MLOAD PUSH1 0x1 PUSH1 0x1 PUSH1 0xA0 SHL SUB DUP5 DUP2 AND DUP3 MSTORE TIMESTAMP SWAP2 DUP7 SWAP2 DUP9 AND SWAP1 PUSH32 0x197D0AE4B232CE56246B1377DDED24ED55A519BB44111FF2DCC3F77A1E2177AE SWAP1 PUSH1 0x20 ADD PUSH1 0x40 MLOAD DUP1 SWAP2 SUB SWAP1 LOG4 POP PUSH1 0x1 SWAP5 SWAP4 POP POP POP POP JUMP JUMPDEST PUSH1 0x0 DUP1 DUP4 DUP4 PUSH1 0x40 MLOAD PUSH1 0x20 ADD PUSH2 0xCC1 SWAP3 SWAP2 SWAP1 PUSH2 0x1EB4 JUMP JUMPDEST PUSH1 0x40 DUP1 MLOAD PUSH1 0x1F NOT DUP2 DUP5 SUB ADD DUP2 MSTORE SWAP2 DUP2 MSTORE DUP2 MLOAD PUSH1 0x20 SWAP3 DUP4 ADD KECCAK256 PUSH1 0x0 DUP2 DUP2 MSTORE PUSH1 0x13 SWAP1 SWAP4 MSTORE SWAP2 KECCAK256 DUP1 SLOAD PUSH1 0xFF NOT AND PUSH1 0x1 OR SWAP1 SSTORE SWAP2 POP POP SWAP3 SWAP2 POP POP JUMP JUMPDEST PUSH1 0x6 SLOAD PUSH1 0x1 PUSH1 0x1 PUSH1 0xA0 SHL SUB AND CALLER EQ PUSH2 0xD40 JUMPI PUSH1 0x40 MLOAD PUSH3 0x461BCD PUSH1 0xE5 SHL DUP2 MSTORE PUSH1 0x20 PUSH1 0x4 DUP3 ADD MSTORE PUSH1 0xA PUSH1 0x24 DUP3 ADD MSTORE PUSH10 0x27B7363C9037BBB732B9 PUSH1 0xB1 SHL PUSH1 0x44 DUP3 ADD MSTORE PUSH1 0x64 ADD PUSH2 0x920 JUMP JUMPDEST PUSH1 0xA DUP1 SLOAD PUSH1 0x1 PUSH1 0x1 PUSH1 0xA0 SHL SUB NOT AND PUSH1 0x1 PUSH1 0x1 PUSH1 0xA0 SHL SUB SWAP3 SWAP1 SWAP3 AND SWAP2 SWAP1 SWAP2 OR SWAP1 SSTORE JUMP JUMPDEST PUSH1 0x0 DUP1 DUP4 DUP4 PUSH1 0x40 MLOAD PUSH1 0x20 ADD PUSH2 0xD78 SWAP3 SWAP2 SWAP1 PUSH2 0x1EB4 JUMP JUMPDEST PUSH1 0x40 DUP1 MLOAD DUP1 DUP4 SUB PUSH1 0x1F NOT ADD DUP2 MSTORE SWAP2 DUP2 MSTORE DUP2 MLOAD PUSH1 0x20 SWAP3 DUP4 ADD KECCAK256 PUSH1 0x0 SWAP1 DUP2 MSTORE PUSH1 0x13 SWAP1 SWAP3 MSTORE SWAP1 KECCAK256 SLOAD PUSH1 0xFF AND SWAP5 SWAP4 POP POP POP POP JUMP JUMPDEST PUSH1 0x0 PUSH2 0xDB2 PUSH2 0x12A2 JUMP JUMPDEST PUSH2 0xB8E DUP4 DUP4 PUSH2 0x135D JUMP JUMPDEST PUSH1 0x60 PUSH1 0x4 DUP1 SLOAD PUSH2 0x7B4 SWAP1 PUSH2 0x1E38 JUMP JUMPDEST PUSH1 0x0 PUSH2 0xDD5 PUSH2 0x12A2 JUMP JUMPDEST PUSH2 0xDDF DUP5 DUP4 PUSH2 0xF6F JUMP JUMPDEST PUSH2 0xDE9 DUP6 DUP5 PUSH2 0xE9C JUMP JUMPDEST GT ISZERO PUSH2 0xE2E JUMPI PUSH1 0x40 MLOAD PUSH3 0x461BCD PUSH1 0xE5 SHL DUP2 MSTORE PUSH1 0x20 PUSH1 0x4 DUP3 ADD MSTORE PUSH1 0x14 PUSH1 0x24 DUP3 ADD MSTORE PUSH20 0x496E76616C69642072656465656D207374617465 PUSH1 0x60 SHL PUSH1 0x44 DUP3 ADD MSTORE PUSH1 0x64 ADD PUSH2 0x920 JUMP JUMPDEST PUSH1 0x15 DUP1 SLOAD PUSH1 0xFF NOT AND PUSH1 0x1 OR SWAP1 SSTORE PUSH1 0x0 PUSH2 0xE48 DUP7 DUP7 DUP7 PUSH2 0x137B JUMP JUMPDEST PUSH1 0x15 DUP1 SLOAD PUSH1 0xFF NOT AND SWAP1 SSTORE SWAP1 POP PUSH2 0xE61 PUSH2 0xAD8 DUP7 DUP6 PUSH2 0xE9C JUMP JUMPDEST PUSH1 0x1 PUSH1 0x1 PUSH1 0xA0 SHL SUB DUP7 AND PUSH1 0x0 SWAP1 DUP2 MSTORE PUSH1 0x10 PUSH1 0x20 SWAP1 DUP2 MSTORE PUSH1 0x40 DUP1 DUP4 KECCAK256 DUP8 DUP5 MSTORE SWAP1 SWAP2 MSTORE SWAP1 KECCAK256 PUSH1 0x2 ADD SSTORE SWAP1 POP PUSH2 0xE94 PUSH1 0x1 PUSH1 0x5 SSTORE JUMP JUMPDEST SWAP5 SWAP4 POP POP POP POP JUMP JUMPDEST PUSH1 0x1 PUSH1 0x1 PUSH1 0xA0 SHL SUB SWAP2 SWAP1 SWAP2 AND PUSH1 0x0 SWAP1 DUP2 MSTORE PUSH1 0x10 PUSH1 0x20 SWAP1 DUP2 MSTORE PUSH1 0x40 DUP1 DUP4 KECCAK256 SWAP4 DUP4 MSTORE SWAP3 SWAP1 MSTORE KECCAK256 PUSH1 0x2 ADD SLOAD SWAP1 JUMP JUMPDEST PUSH1 0x0 CALLER PUSH2 0x858 DUP2 DUP6 DUP6 PUSH2 0x1243 JUMP JUMPDEST PUSH1 0x0 PUSH2 0x844 DUP3 PUSH1 0x1 PUSH2 0x115C JUMP JUMPDEST PUSH1 0x0 PUSH2 0xEEC PUSH2 0x12A2 JUMP JUMPDEST PUSH1 0x15 SLOAD PUSH1 0xFF AND PUSH2 0xF58 JUMPI PUSH1 0x40 MLOAD PUSH3 0x461BCD PUSH1 0xE5 SHL DUP2 MSTORE PUSH1 0x20 PUSH1 0x4 DUP3 ADD MSTORE PUSH1 0x31 PUSH1 0x24 DUP3 ADD MSTORE PUSH32 0x446972656374207769746864726177206E6F7420616C6C6F7765642C20757365 PUSH1 0x44 DUP3 ADD MSTORE PUSH17 0x2070726F706F73616C5769746864726177 PUSH1 0x78 SHL PUSH1 0x64 DUP3 ADD MSTORE PUSH1 0x84 ADD PUSH2 0x920 JUMP JUMPDEST PUSH2 0xF63 DUP5 DUP5 DUP5 PUSH2 0x13D3 JUMP JUMPDEST SWAP1 POP PUSH2 0x88E PUSH1 0x1 PUSH1 0x5 SSTORE JUMP JUMPDEST PUSH1 0x1 PUSH1 0x1 PUSH1 0xA0 SHL SUB SWAP2 SWAP1 SWAP2 AND PUSH1 0x0 SWAP1 DUP2 MSTORE PUSH1 0x10 PUSH1 0x20 SWAP1 DUP2 MSTORE PUSH1 0x40 DUP1 DUP4 KECCAK256 SWAP4 DUP4 MSTORE SWAP3 SWAP1 MSTORE KECCAK256 PUSH1 0x1 ADD SLOAD SWAP1 JUMP JUMPDEST PUSH1 0x0 PUSH2 0xFA4 PUSH2 0x12A2 JUMP JUMPDEST PUSH1 0x15 SLOAD PUSH1 0xFF AND PUSH2 0x100C JUMPI PUSH1 0x40 MLOAD PUSH3 0x461BCD PUSH1 0xE5 SHL DUP2 MSTORE PUSH1 0x20 PUSH1 0x4 DUP3 ADD MSTORE PUSH1 0x2D PUSH1 0x24 DUP3 ADD MSTORE PUSH32 0x4469726563742072656465656D206E6F7420616C6C6F7765642C207573652070 PUSH1 0x44 DUP3 ADD MSTORE PUSH13 0x726F706F73616C52656465656D PUSH1 0x98 SHL PUSH1 0x64 DUP3 ADD MSTORE PUSH1 0x84 ADD PUSH2 0x920 JUMP JUMPDEST PUSH2 0xF63 DUP5 DUP5 DUP5 PUSH2 0x137B JUMP JUMPDEST PUSH1 0x0 PUSH2 0x1021 PUSH2 0x12A2 JUMP JUMPDEST PUSH2 0x102B DUP5 DUP4 PUSH2 0xF6F JUMP JUMPDEST DUP6 PUSH2 0x1036 DUP7 DUP6 PUSH2 0xE9C JUMP JUMPDEST PUSH2 0x1040 SWAP2 SWAP1 PUSH2 0x1EA1 JUMP JUMPDEST GT ISZERO PUSH2 0x1085 JUMPI PUSH1 0x40 MLOAD PUSH3 0x461BCD PUSH1 0xE5 SHL DUP2 MSTORE PUSH1 0x20 PUSH1 0x4 DUP3 ADD MSTORE PUSH1 0x14 PUSH1 0x24 DUP3 ADD MSTORE PUSH20 0x125B9CDD59999A58DA595B9D0819195C1BDCDA5D PUSH1 0x62 SHL PUSH1 0x44 DUP3 ADD MSTORE PUSH1 0x64 ADD PUSH2 0x920 JUMP JUMPDEST PUSH1 0x15 DUP1 SLOAD PUSH1 0xFF NOT AND PUSH1 0x1 OR SWAP1 SSTORE PUSH1 0x0 PUSH2 0xE48 DUP7 DUP7 DUP7 PUSH2 0x13D3 JUMP JUMPDEST PUSH1 0x0 PUSH2 0x844 DUP3 PUSH1 0x0 PUSH2 0x11A8 JUMP JUMPDEST PUSH1 0x1 PUSH1 0x1 PUSH1 0xA0 SHL SUB DUP2 AND PUSH1 0x0 SWAP1 DUP2 MSTORE PUSH1 0x20 DUP2 SWAP1 MSTORE PUSH1 0x40 DUP2 KECCAK256 SLOAD PUSH2 0x844 SWAP1 PUSH1 0x0 PUSH2 0x115C JUMP JUMPDEST PUSH1 0x1 PUSH1 0x1 PUSH1 0xA0 SHL SUB DUP2 AND PUSH1 0x0 SWAP1 DUP2 MSTORE PUSH1 0x20 DUP2 SWAP1 MSTORE PUSH1 0x40 DUP2 KECCAK256 SLOAD PUSH2 0x844 JUMP JUMPDEST PUSH1 0x0 PUSH2 0x10F8 PUSH2 0x12A2 JUMP JUMPDEST DUP2 PUSH2 0x1102 PUSH1 0x8 SLOAD SWAP1 JUMP JUMPDEST GT ISZERO PUSH2 0x1143 JUMPI PUSH1 0x40 MLOAD PUSH3 0x461BCD PUSH1 0xE5 SHL DUP2 MSTORE PUSH1 0x20 PUSH1 0x4 DUP3 ADD MSTORE PUSH1 0x10 PUSH1 0x24 DUP3 ADD MSTORE PUSH16 0x125B9D985B1A59081C1C9BDC1BDCD85B PUSH1 0x82 SHL PUSH1 0x44 DUP3 ADD MSTORE PUSH1 0x64 ADD PUSH2 0x920 JUMP JUMPDEST PUSH1 0x15 DUP1 SLOAD PUSH1 0xFF NOT AND PUSH1 0x1 OR SWAP1 SSTORE PUSH1 0x0 PUSH2 0xAB3 DUP6 DUP6 PUSH2 0x135D JUMP JUMPDEST PUSH1 0x0 PUSH2 0x88E PUSH2 0x1169 PUSH2 0x715 JUMP JUMPDEST PUSH2 0x1174 SWAP1 PUSH1 0x1 PUSH2 0x1EA1 JUMP JUMPDEST PUSH2 0x1180 PUSH1 0x0 PUSH1 0xA PUSH2 0x1FA8 JUMP JUMPDEST PUSH1 0x2 SLOAD PUSH2 0x118D SWAP2 SWAP1 PUSH2 0x1EA1 JUMP JUMPDEST DUP6 SWAP2 SWAP1 DUP6 PUSH2 0x1422 JUMP JUMPDEST PUSH2 0x11A3 DUP4 DUP4 DUP4 PUSH1 0x1 PUSH2 0x1471 JUMP JUMPDEST POP POP POP JUMP JUMPDEST PUSH1 0x0 PUSH2 0x88E PUSH2 0x11B8 DUP3 PUSH1 0xA PUSH2 0x1FA8 JUMP JUMPDEST PUSH1 0x2 SLOAD PUSH2 0x11C5 SWAP2 SWAP1 PUSH2 0x1EA1 JUMP JUMPDEST PUSH2 0x11CD PUSH2 0x715 JUMP JUMPDEST PUSH2 0x118D SWAP1 PUSH1 0x1 PUSH2 0x1EA1 JUMP JUMPDEST PUSH1 0x1 PUSH1 0x1 PUSH1 0xA0 SHL SUB DUP4 DUP2 AND PUSH1 0x0 SWAP1 DUP2 MSTORE PUSH1 0x1 PUSH1 0x20 SWAP1 DUP2 MSTORE PUSH1 0x40 DUP1 DUP4 KECCAK256 SWAP4 DUP7 AND DUP4 MSTORE SWAP3 SWAP1 MSTORE KECCAK256 SLOAD PUSH1 0x0 NOT DUP2 EQ PUSH2 0x123D JUMPI DUP2 DUP2 LT ISZERO PUSH2 0x122E JUMPI DUP3 DUP2 DUP4 PUSH1 0x40 MLOAD PUSH4 0x7DC7A0D9 PUSH1 0xE1 SHL DUP2 MSTORE PUSH1 0x4 ADD PUSH2 0x920 SWAP4 SWAP3 SWAP2 SWAP1 PUSH2 0x1FB7 JUMP JUMPDEST PUSH2 0x123D DUP5 DUP5 DUP5 DUP5 SUB PUSH1 0x0 PUSH2 0x1471 JUMP JUMPDEST POP POP POP POP JUMP JUMPDEST PUSH1 0x1 PUSH1 0x1 PUSH1 0xA0 SHL SUB DUP4 AND PUSH2 0x126D JUMPI PUSH1 0x40 MLOAD PUSH4 0x4B637E8F PUSH1 0xE1 SHL DUP2 MSTORE PUSH1 0x0 PUSH1 0x4 DUP3 ADD MSTORE PUSH1 0x24 ADD PUSH2 0x920 JUMP JUMPDEST PUSH1 0x1 PUSH1 0x1 PUSH1 0xA0 SHL SUB DUP3 AND PUSH2 0x1297 JUMPI PUSH1 0x40 MLOAD PUSH4 0xEC442F05 PUSH1 0xE0 SHL DUP2 MSTORE PUSH1 0x0 PUSH1 0x4 DUP3 ADD MSTORE PUSH1 0x24 ADD PUSH2 0x920 JUMP JUMPDEST PUSH2 0x11A3 DUP4 DUP4 DUP4 PUSH2 0x1546 JUMP JUMPDEST PUSH1 0x2 PUSH1 0x5 SLOAD SUB PUSH2 0x12C5 JUMPI PUSH1 0x40 MLOAD PUSH4 0x3EE5AEB5 PUSH1 0xE0 SHL DUP2 MSTORE PUSH1 0x4 ADD PUSH1 0x40 MLOAD DUP1 SWAP2 SUB SWAP1 REVERT JUMPDEST PUSH1 0x2 PUSH1 0x5 SSTORE JUMP JUMPDEST PUSH1 0x0 PUSH1 0x0 NOT PUSH1 0x0 PUSH2 0x12DC DUP6 PUSH2 0x109F JUMP JUMPDEST SWAP1 POP PUSH2 0xE94 CALLER DUP6 DUP8 DUP5 PUSH2 0x165D JUMP JUMPDEST PUSH1 0x0 PUSH2 0x88E DUP3 DUP5 PUSH2 0x1EA1 JUMP JUMPDEST PUSH1 0x40 MLOAD PUSH1 0x1 PUSH1 0x1 PUSH1 0xA0 SHL SUB DUP5 DUP2 AND PUSH1 0x24 DUP4 ADD MSTORE DUP4 DUP2 AND PUSH1 0x44 DUP4 ADD MSTORE PUSH1 0x64 DUP3 ADD DUP4 SWAP1 MSTORE PUSH2 0x123D SWAP2 DUP7 SWAP2 DUP3 AND SWAP1 PUSH4 0x23B872DD SWAP1 PUSH1 0x84 ADD JUMPDEST PUSH1 0x40 MLOAD PUSH1 0x20 DUP2 DUP4 SUB SUB DUP2 MSTORE SWAP1 PUSH1 0x40 MSTORE SWAP2 POP PUSH1 0xE0 SHL PUSH1 0x20 DUP3 ADD DUP1 MLOAD PUSH1 0x1 PUSH1 0x1 PUSH1 0xE0 SHL SUB DUP4 DUP2 DUP4 AND OR DUP4 MSTORE POP POP POP POP PUSH2 0x16E1 JUMP JUMPDEST PUSH1 0x0 PUSH1 0x0 NOT PUSH1 0x0 PUSH2 0x136D DUP6 PUSH2 0xED5 JUMP JUMPDEST SWAP1 POP PUSH2 0xE94 CALLER DUP6 DUP4 DUP9 PUSH2 0x165D JUMP JUMPDEST PUSH1 0x0 DUP1 PUSH2 0x1387 DUP4 PUSH2 0x10D0 JUMP JUMPDEST SWAP1 POP DUP1 DUP6 GT ISZERO PUSH2 0x13B0 JUMPI DUP3 DUP6 DUP3 PUSH1 0x40 MLOAD PUSH4 0x2E52AFBB PUSH1 0xE2 SHL DUP2 MSTORE PUSH1 0x4 ADD PUSH2 0x920 SWAP4 SWAP3 SWAP2 SWAP1 PUSH2 0x1FB7 JUMP JUMPDEST PUSH1 0x0 PUSH2 0x13BB DUP7 PUSH2 0x837 JUMP JUMPDEST SWAP1 POP PUSH2 0x13CA CALLER DUP7 DUP7 DUP5 DUP11 PUSH2 0x1744 JUMP JUMPDEST SWAP6 SWAP5 POP POP POP POP POP JUMP JUMPDEST PUSH1 0x0 DUP1 PUSH2 0x13DF DUP4 PUSH2 0x10AC JUMP JUMPDEST SWAP1 POP DUP1 DUP6 GT ISZERO PUSH2 0x1408 JUMPI DUP3 DUP6 DUP3 PUSH1 0x40 MLOAD PUSH4 0x3FA733BB PUSH1 0xE2 SHL DUP2 MSTORE PUSH1 0x4 ADD PUSH2 0x920 SWAP4 SWAP3 SWAP2 SWAP1 PUSH2 0x1FB7 JUMP JUMPDEST PUSH1 0x0 PUSH2 0x1413 DUP7 PUSH2 0x862 JUMP JUMPDEST SWAP1 POP PUSH2 0x13CA CALLER DUP7 DUP7 DUP10 DUP6 PUSH2 0x1744 JUMP JUMPDEST PUSH1 0x0 DUP1 PUSH2 0x1430 DUP7 DUP7 DUP7 PUSH2 0x1804 JUMP JUMPDEST SWAP1 POP PUSH2 0x143B DUP4 PUSH2 0x18C8 JUMP JUMPDEST DUP1 ISZERO PUSH2 0x1457 JUMPI POP PUSH1 0x0 DUP5 DUP1 PUSH2 0x1452 JUMPI PUSH2 0x1452 PUSH2 0x1FD8 JUMP JUMPDEST DUP7 DUP9 MULMOD GT JUMPDEST ISZERO PUSH2 0x13CA JUMPI PUSH2 0x1467 PUSH1 0x1 DUP3 PUSH2 0x1EA1 JUMP JUMPDEST SWAP7 SWAP6 POP POP POP POP POP POP JUMP JUMPDEST PUSH1 0x1 PUSH1 0x1 PUSH1 0xA0 SHL SUB DUP5 AND PUSH2 0x149B JUMPI PUSH1 0x40 MLOAD PUSH4 0xE602DF05 PUSH1 0xE0 SHL DUP2 MSTORE PUSH1 0x0 PUSH1 0x4 DUP3 ADD MSTORE PUSH1 0x24 ADD PUSH2 0x920 JUMP JUMPDEST PUSH1 0x1 PUSH1 0x1 PUSH1 0xA0 SHL SUB DUP4 AND PUSH2 0x14C5 JUMPI PUSH1 0x40 MLOAD PUSH4 0x4A1406B1 PUSH1 0xE1 SHL DUP2 MSTORE PUSH1 0x0 PUSH1 0x4 DUP3 ADD MSTORE PUSH1 0x24 ADD PUSH2 0x920 JUMP JUMPDEST PUSH1 0x1 PUSH1 0x1 PUSH1 0xA0 SHL SUB DUP1 DUP6 AND PUSH1 0x0 SWAP1 DUP2 MSTORE PUSH1 0x1 PUSH1 0x20 SWAP1 DUP2 MSTORE PUSH1 0x40 DUP1 DUP4 KECCAK256 SWAP4 DUP8 AND DUP4 MSTORE SWAP3 SWAP1 MSTORE KECCAK256 DUP3 SWAP1 SSTORE DUP1 ISZERO PUSH2 0x123D JUMPI DUP3 PUSH1 0x1 PUSH1 0x1 PUSH1 0xA0 SHL SUB AND DUP5 PUSH1 0x1 PUSH1 0x1 PUSH1 0xA0 SHL SUB AND PUSH32 0x8C5BE1E5EBEC7D5BD14F71427D1E84F3DD0314C0F7B2291E5B200AC8C7C3B925 DUP5 PUSH1 0x40 MLOAD PUSH2 0x1538 SWAP2 DUP2 MSTORE PUSH1 0x20 ADD SWAP1 JUMP JUMPDEST PUSH1 0x40 MLOAD DUP1 SWAP2 SUB SWAP1 LOG3 POP POP POP POP JUMP JUMPDEST PUSH1 0x1 PUSH1 0x1 PUSH1 0xA0 SHL SUB DUP4 AND PUSH2 0x1571 JUMPI DUP1 PUSH1 0x2 PUSH1 0x0 DUP3 DUP3 SLOAD PUSH2 0x1566 SWAP2 SWAP1 PUSH2 0x1EA1 JUMP JUMPDEST SWAP1 SWAP2 SSTORE POP PUSH2 0x15D0 SWAP1 POP JUMP JUMPDEST PUSH1 0x1 PUSH1 0x1 PUSH1 0xA0 SHL SUB DUP4 AND PUSH1 0x0 SWAP1 DUP2 MSTORE PUSH1 0x20 DUP2 SWAP1 MSTORE PUSH1 0x40 SWAP1 KECCAK256 SLOAD DUP2 DUP2 LT ISZERO PUSH2 0x15B1 JUMPI DUP4 DUP2 DUP4 PUSH1 0x40 MLOAD PUSH4 0x391434E3 PUSH1 0xE2 SHL DUP2 MSTORE PUSH1 0x4 ADD PUSH2 0x920 SWAP4 SWAP3 SWAP2 SWAP1 PUSH2 0x1FB7 JUMP JUMPDEST PUSH1 0x1 PUSH1 0x1 PUSH1 0xA0 SHL SUB DUP5 AND PUSH1 0x0 SWAP1 DUP2 MSTORE PUSH1 0x20 DUP2 SWAP1 MSTORE PUSH1 0x40 SWAP1 KECCAK256 SWAP1 DUP3 SWAP1 SUB SWAP1 SSTORE JUMPDEST PUSH1 0x1 PUSH1 0x1 PUSH1 0xA0 SHL SUB DUP3 AND PUSH2 0x15EC JUMPI PUSH1 0x2 DUP1 SLOAD DUP3 SWAP1 SUB SWAP1 SSTORE PUSH2 0x160B JUMP JUMPDEST PUSH1 0x1 PUSH1 0x1 PUSH1 0xA0 SHL SUB DUP3 AND PUSH1 0x0 SWAP1 DUP2 MSTORE PUSH1 0x20 DUP2 SWAP1 MSTORE PUSH1 0x40 SWAP1 KECCAK256 DUP1 SLOAD DUP3 ADD SWAP1 SSTORE JUMPDEST DUP2 PUSH1 0x1 PUSH1 0x1 PUSH1 0xA0 SHL SUB AND DUP4 PUSH1 0x1 PUSH1 0x1 PUSH1 0xA0 SHL SUB AND PUSH32 0xDDF252AD1BE2C89B69C2B068FC378DAA952BA7F163C4A11628F55A4DF523B3EF DUP4 PUSH1 0x40 MLOAD PUSH2 0x1650 SWAP2 DUP2 MSTORE PUSH1 0x20 ADD SWAP1 JUMP JUMPDEST PUSH1 0x40 MLOAD DUP1 SWAP2 SUB SWAP1 LOG3 POP POP POP JUMP JUMPDEST PUSH2 0x1689 PUSH32 0x0 DUP6 ADDRESS DUP6 PUSH2 0x12F6 JUMP JUMPDEST PUSH2 0x1693 DUP4 DUP3 PUSH2 0x18F5 JUMP JUMPDEST DUP3 PUSH1 0x1 PUSH1 0x1 PUSH1 0xA0 SHL SUB AND DUP5 PUSH1 0x1 PUSH1 0x1 PUSH1 0xA0 SHL SUB AND PUSH32 0xDCBC1C05240F31FF3AD067EF1EE35CE4997762752E3A095284754544F4C709D7 DUP5 DUP5 PUSH1 0x40 MLOAD PUSH2 0x1538 SWAP3 SWAP2 SWAP1 SWAP2 DUP3 MSTORE PUSH1 0x20 DUP3 ADD MSTORE PUSH1 0x40 ADD SWAP1 JUMP JUMPDEST PUSH1 0x0 PUSH2 0x16F6 PUSH1 0x1 PUSH1 0x1 PUSH1 0xA0 SHL SUB DUP5 AND DUP4 PUSH2 0x192F JUMP JUMPDEST SWAP1 POP DUP1 MLOAD PUSH1 0x0 EQ ISZERO DUP1 ISZERO PUSH2 0x171B JUMPI POP DUP1 DUP1 PUSH1 0x20 ADD SWAP1 MLOAD DUP2 ADD SWAP1 PUSH2 0x1719 SWAP2 SWAP1 PUSH2 0x1FEE JUMP JUMPDEST ISZERO JUMPDEST ISZERO PUSH2 0x11A3 JUMPI PUSH1 0x40 MLOAD PUSH4 0x5274AFE7 PUSH1 0xE0 SHL DUP2 MSTORE PUSH1 0x1 PUSH1 0x1 PUSH1 0xA0 SHL SUB DUP5 AND PUSH1 0x4 DUP3 ADD MSTORE PUSH1 0x24 ADD PUSH2 0x920 JUMP JUMPDEST DUP3 PUSH1 0x1 PUSH1 0x1 PUSH1 0xA0 SHL SUB AND DUP6 PUSH1 0x1 PUSH1 0x1 PUSH1 0xA0 SHL SUB AND EQ PUSH2 0x1768 JUMPI PUSH2 0x1768 DUP4 DUP7 DUP4 PUSH2 0x11D8 JUMP JUMPDEST PUSH2 0x1772 DUP4 DUP3 PUSH2 0x193D JUMP JUMPDEST PUSH2 0x179D PUSH32 0x0 DUP6 DUP5 PUSH2 0x1973 JUMP JUMPDEST DUP3 PUSH1 0x1 PUSH1 0x1 PUSH1 0xA0 SHL SUB AND DUP5 PUSH1 0x1 PUSH1 0x1 PUSH1 0xA0 SHL SUB AND DUP7 PUSH1 0x1 PUSH1 0x1 PUSH1 0xA0 SHL SUB AND PUSH32 0xFBDE797D201C681B91056529119E0B02407C7BB96A4A2C75C01FC9667232C8DB DUP6 DUP6 PUSH1 0x40 MLOAD PUSH2 0x17F5 SWAP3 SWAP2 SWAP1 SWAP2 DUP3 MSTORE PUSH1 0x20 DUP3 ADD MSTORE PUSH1 0x40 ADD SWAP1 JUMP JUMPDEST PUSH1 0x40 MLOAD DUP1 SWAP2 SUB SWAP1 LOG4 POP POP POP POP POP JUMP JUMPDEST PUSH1 0x0 DUP4 DUP4 MUL DUP2 PUSH1 0x0 NOT DUP6 DUP8 MULMOD DUP3 DUP2 LT DUP4 DUP3 SUB SUB SWAP2 POP POP DUP1 PUSH1 0x0 SUB PUSH2 0x183B JUMPI DUP4 DUP3 DUP2 PUSH2 0x1831 JUMPI PUSH2 0x1831 PUSH2 0x1FD8 JUMP JUMPDEST DIV SWAP3 POP POP POP PUSH2 0x88E JUMP JUMPDEST DUP1 DUP5 GT PUSH2 0x185B JUMPI PUSH1 0x40 MLOAD PUSH4 0x227BC153 PUSH1 0xE0 SHL DUP2 MSTORE PUSH1 0x4 ADD PUSH1 0x40 MLOAD DUP1 SWAP2 SUB SWAP1 REVERT JUMPDEST PUSH1 0x0 DUP5 DUP7 DUP9 MULMOD PUSH1 0x0 DUP7 DUP2 SUB DUP8 AND SWAP7 DUP8 SWAP1 DIV SWAP7 PUSH1 0x2 PUSH1 0x3 DUP10 MUL DUP2 XOR DUP1 DUP11 MUL DUP3 SUB MUL DUP1 DUP11 MUL DUP3 SUB MUL DUP1 DUP11 MUL DUP3 SUB MUL DUP1 DUP11 MUL DUP3 SUB MUL DUP1 DUP11 MUL DUP3 SUB MUL DUP1 DUP11 MUL SWAP1 SWAP2 SUB MUL SWAP2 DUP2 SWAP1 SUB DUP2 SWAP1 DIV PUSH1 0x1 ADD DUP7 DUP5 GT SWAP1 SWAP6 SUB SWAP5 SWAP1 SWAP5 MUL SWAP2 SWAP1 SWAP5 SUB SWAP3 SWAP1 SWAP3 DIV SWAP2 SWAP1 SWAP2 OR SWAP2 SWAP1 SWAP2 MUL SWAP2 POP POP SWAP4 SWAP3 POP POP POP JUMP JUMPDEST PUSH1 0x0 PUSH1 0x2 DUP3 PUSH1 0x3 DUP2 GT ISZERO PUSH2 0x18DE JUMPI PUSH2 0x18DE PUSH2 0x2010 JUMP JUMPDEST PUSH2 0x18E8 SWAP2 SWAP1 PUSH2 0x2026 JUMP JUMPDEST PUSH1 0xFF AND PUSH1 0x1 EQ SWAP1 POP SWAP2 SWAP1 POP JUMP JUMPDEST PUSH1 0x1 PUSH1 0x1 PUSH1 0xA0 SHL SUB DUP3 AND PUSH2 0x191F JUMPI PUSH1 0x40 MLOAD PUSH4 0xEC442F05 PUSH1 0xE0 SHL DUP2 MSTORE PUSH1 0x0 PUSH1 0x4 DUP3 ADD MSTORE PUSH1 0x24 ADD PUSH2 0x920 JUMP JUMPDEST PUSH2 0x192B PUSH1 0x0 DUP4 DUP4 PUSH2 0x1546 JUMP JUMPDEST POP POP JUMP JUMPDEST PUSH1 0x60 PUSH2 0x88E DUP4 DUP4 PUSH1 0x0 PUSH2 0x19A4 JUMP JUMPDEST PUSH1 0x1 PUSH1 0x1 PUSH1 0xA0 SHL SUB DUP3 AND PUSH2 0x1967 JUMPI PUSH1 0x40 MLOAD PUSH4 0x4B637E8F PUSH1 0xE1 SHL DUP2 MSTORE PUSH1 0x0 PUSH1 0x4 DUP3 ADD MSTORE PUSH1 0x24 ADD PUSH2 0x920 JUMP JUMPDEST PUSH2 0x192B DUP3 PUSH1 0x0 DUP4 PUSH2 0x1546 JUMP JUMPDEST PUSH1 0x40 MLOAD PUSH1 0x1 PUSH1 0x1 PUSH1 0xA0 SHL SUB DUP4 DUP2 AND PUSH1 0x24 DUP4 ADD MSTORE PUSH1 0x44 DUP3 ADD DUP4 SWAP1 MSTORE PUSH2 0x11A3 SWAP2 DUP6 SWAP2 DUP3 AND SWAP1 PUSH4 0xA9059CBB SWAP1 PUSH1 0x64 ADD PUSH2 0x132B JUMP JUMPDEST PUSH1 0x60 DUP2 SELFBALANCE LT ISZERO PUSH2 0x19C9 JUMPI PUSH1 0x40 MLOAD PUSH4 0xCD786059 PUSH1 0xE0 SHL DUP2 MSTORE ADDRESS PUSH1 0x4 DUP3 ADD MSTORE PUSH1 0x24 ADD PUSH2 0x920 JUMP JUMPDEST PUSH1 0x0 DUP1 DUP6 PUSH1 0x1 PUSH1 0x1 PUSH1 0xA0 SHL SUB AND DUP5 DUP7 PUSH1 0x40 MLOAD PUSH2 0x19E5 SWAP2 SWAP1 PUSH2 0x2056 JUMP JUMPDEST PUSH1 0x0 PUSH1 0x40 MLOAD DUP1 DUP4 SUB DUP2 DUP6 DUP8 GAS CALL SWAP3 POP POP POP RETURNDATASIZE DUP1 PUSH1 0x0 DUP2 EQ PUSH2 0x1A22 JUMPI PUSH1 0x40 MLOAD SWAP2 POP PUSH1 0x1F NOT PUSH1 0x3F RETURNDATASIZE ADD AND DUP3 ADD PUSH1 0x40 MSTORE RETURNDATASIZE DUP3 MSTORE RETURNDATASIZE PUSH1 0x0 PUSH1 0x20 DUP5 ADD RETURNDATACOPY PUSH2 0x1A27 JUMP JUMPDEST PUSH1 0x60 SWAP2 POP JUMPDEST POP SWAP2 POP SWAP2 POP PUSH2 0x1467 DUP7 DUP4 DUP4 PUSH1 0x60 DUP3 PUSH2 0x1A47 JUMPI PUSH2 0x1A42 DUP3 PUSH2 0x1A8E JUMP JUMPDEST PUSH2 0x88E JUMP JUMPDEST DUP2 MLOAD ISZERO DUP1 ISZERO PUSH2 0x1A5E JUMPI POP PUSH1 0x1 PUSH1 0x1 PUSH1 0xA0 SHL SUB DUP5 AND EXTCODESIZE ISZERO JUMPDEST ISZERO PUSH2 0x1A87 JUMPI PUSH1 0x40 MLOAD PUSH4 0x9996B315 PUSH1 0xE0 SHL DUP2 MSTORE PUSH1 0x1 PUSH1 0x1 PUSH1 0xA0 SHL SUB DUP6 AND PUSH1 0x4 DUP3 ADD MSTORE PUSH1 0x24 ADD PUSH2 0x920 JUMP JUMPDEST POP DUP1 PUSH2 0x88E JUMP JUMPDEST DUP1 MLOAD ISZERO PUSH2 0x1A9E JUMPI DUP1 MLOAD DUP1 DUP3 PUSH1 0x20 ADD REVERT JUMPDEST PUSH1 0x40 MLOAD PUSH4 0xA12F521 PUSH1 0xE1 SHL DUP2 MSTORE PUSH1 0x4 ADD PUSH1 0x40 MLOAD DUP1 SWAP2 SUB SWAP1 REVERT JUMPDEST POP JUMP JUMPDEST PUSH1 0x0 JUMPDEST DUP4 DUP2 LT ISZERO PUSH2 0x1AD5 JUMPI DUP2 DUP2 ADD MLOAD DUP4 DUP3 ADD MSTORE PUSH1 0x20 ADD PUSH2 0x1ABD JUMP JUMPDEST POP POP PUSH1 0x0 SWAP2 ADD MSTORE JUMP JUMPDEST PUSH1 0x20 DUP2 MSTORE PUSH1 0x0 DUP3 MLOAD DUP1 PUSH1 0x20 DUP5 ADD MSTORE PUSH2 0x1AFD DUP2 PUSH1 0x40 DUP6 ADD PUSH1 0x20 DUP8 ADD PUSH2 0x1ABA JUMP JUMPDEST PUSH1 0x1F ADD PUSH1 0x1F NOT AND SWAP2 SWAP1 SWAP2 ADD PUSH1 0x40 ADD SWAP3 SWAP2 POP POP JUMP JUMPDEST PUSH1 0x0 PUSH1 0x20 DUP3 DUP5 SUB SLT ISZERO PUSH2 0x1B23 JUMPI PUSH1 0x0 DUP1 REVERT JUMPDEST POP CALLDATALOAD SWAP2 SWAP1 POP JUMP JUMPDEST PUSH1 0x1 PUSH1 0x1 PUSH1 0xA0 SHL SUB DUP2 AND DUP2 EQ PUSH2 0x1AB7 JUMPI PUSH1 0x0 DUP1 REVERT JUMPDEST PUSH1 0x0 DUP1 PUSH1 0x40 DUP4 DUP6 SUB SLT ISZERO PUSH2 0x1B52 JUMPI PUSH1 0x0 DUP1 REVERT JUMPDEST DUP3 CALLDATALOAD PUSH2 0x1B5D DUP2 PUSH2 0x1B2A JUMP JUMPDEST SWAP5 PUSH1 0x20 SWAP4 SWAP1 SWAP4 ADD CALLDATALOAD SWAP4 POP POP POP JUMP JUMPDEST PUSH1 0x0 PUSH1 0x20 DUP3 DUP5 SUB SLT ISZERO PUSH2 0x1B7D JUMPI PUSH1 0x0 DUP1 REVERT JUMPDEST DUP2 CALLDATALOAD PUSH2 0x88E DUP2 PUSH2 0x1B2A JUMP JUMPDEST PUSH1 0x0 DUP1 PUSH1 0x0 PUSH1 0x60 DUP5 DUP7 SUB SLT ISZERO PUSH2 0x1B9D JUMPI PUSH1 0x0 DUP1 REVERT JUMPDEST DUP4 CALLDATALOAD PUSH2 0x1BA8 DUP2 PUSH2 0x1B2A JUMP JUMPDEST SWAP3 POP PUSH1 0x20 DUP5 ADD CALLDATALOAD PUSH2 0x1BB8 DUP2 PUSH2 0x1B2A JUMP JUMPDEST SWAP3 SWAP6 SWAP3 SWAP5 POP POP POP PUSH1 0x40 SWAP2 SWAP1 SWAP2 ADD CALLDATALOAD SWAP1 JUMP JUMPDEST PUSH1 0x0 DUP1 DUP4 PUSH1 0x1F DUP5 ADD SLT PUSH2 0x1BDB JUMPI PUSH1 0x0 DUP1 REVERT JUMPDEST POP DUP2 CALLDATALOAD PUSH8 0xFFFFFFFFFFFFFFFF DUP2 GT ISZERO PUSH2 0x1BF3 JUMPI PUSH1 0x0 DUP1 REVERT JUMPDEST PUSH1 0x20 DUP4 ADD SWAP2 POP DUP4 PUSH1 0x20 DUP3 DUP6 ADD ADD GT ISZERO PUSH2 0x1C0B JUMPI PUSH1 0x0 DUP1 REVERT JUMPDEST SWAP3 POP SWAP3 SWAP1 POP JUMP JUMPDEST PUSH1 0x0 DUP1 PUSH1 0x0 DUP1 PUSH1 0x0 DUP1 PUSH1 0xA0 DUP8 DUP10 SUB SLT ISZERO PUSH2 0x1C2B JUMPI PUSH1 0x0 DUP1 REVERT JUMPDEST DUP7 CALLDATALOAD SWAP6 POP PUSH1 0x20 DUP8 ADD CALLDATALOAD PUSH2 0x1C3D DUP2 PUSH2 0x1B2A JUMP JUMPDEST SWAP5 POP PUSH1 0x40 DUP8 ADD CALLDATALOAD PUSH2 0x1C4D DUP2 PUSH2 0x1B2A JUMP JUMPDEST SWAP4 POP PUSH1 0x60 DUP8 ADD CALLDATALOAD PUSH2 0x1C5D DUP2 PUSH2 0x1B2A JUMP JUMPDEST SWAP3 POP PUSH1 0x80 DUP8 ADD CALLDATALOAD PUSH8 0xFFFFFFFFFFFFFFFF DUP2 GT ISZERO PUSH2 0x1C79 JUMPI PUSH1 0x0 DUP1 REVERT JUMPDEST PUSH2 0x1C85 DUP10 DUP3 DUP11 ADD PUSH2 0x1BC9 JUMP JUMPDEST SWAP8 SWAP11 SWAP7 SWAP10 POP SWAP5 SWAP8 POP SWAP3 SWAP6 SWAP4 SWAP5 SWAP3 POP POP POP JUMP JUMPDEST PUSH1 0x0 DUP1 PUSH1 0x0 PUSH1 0x60 DUP5 DUP7 SUB SLT ISZERO PUSH2 0x1CAC JUMPI PUSH1 0x0 DUP1 REVERT JUMPDEST DUP4 CALLDATALOAD SWAP3 POP PUSH1 0x20 DUP5 ADD CALLDATALOAD PUSH2 0x1BB8 DUP2 PUSH2 0x1B2A JUMP JUMPDEST PUSH1 0x0 DUP1 PUSH1 0x40 DUP4 DUP6 SUB SLT ISZERO PUSH2 0x1CD1 JUMPI PUSH1 0x0 DUP1 REVERT JUMPDEST DUP3 CALLDATALOAD SWAP2 POP PUSH1 0x20 DUP4 ADD CALLDATALOAD PUSH2 0x1CE3 DUP2 PUSH2 0x1B2A JUMP JUMPDEST DUP1 SWAP2 POP POP SWAP3 POP SWAP3 SWAP1 POP JUMP JUMPDEST PUSH1 0x0 DUP1 PUSH1 0x0 PUSH1 0x60 DUP5 DUP7 SUB SLT ISZERO PUSH2 0x1D03 JUMPI PUSH1 0x0 DUP1 REVERT JUMPDEST DUP4 CALLDATALOAD PUSH2 0x1D0E DUP2 PUSH2 0x1B2A JUMP JUMPDEST SWAP3 POP PUSH1 0x20 DUP5 ADD CALLDATALOAD SWAP2 POP PUSH1 0x40 DUP5 ADD CALLDATALOAD PUSH2 0x1D25 DUP2 PUSH2 0x1B2A JUMP JUMPDEST DUP1 SWAP2 POP POP SWAP3 POP SWAP3 POP SWAP3 JUMP JUMPDEST PUSH1 0x0 DUP1 PUSH1 0x20 DUP4 DUP6 SUB SLT ISZERO PUSH2 0x1D43 JUMPI PUSH1 0x0 DUP1 REVERT JUMPDEST DUP3 CALLDATALOAD PUSH8 0xFFFFFFFFFFFFFFFF DUP2 GT ISZERO PUSH2 0x1D5A JUMPI PUSH1 0x0 DUP1 REVERT JUMPDEST PUSH2 0x1D66 DUP6 DUP3 DUP7 ADD PUSH2 0x1BC9 JUMP JUMPDEST SWAP1 SWAP7 SWAP1 SWAP6 POP SWAP4 POP POP POP POP JUMP JUMPDEST PUSH1 0x0 DUP1 PUSH1 0x0 DUP1 PUSH1 0x80 DUP6 DUP8 SUB SLT ISZERO PUSH2 0x1D88 JUMPI PUSH1 0x0 DUP1 REVERT JUMPDEST DUP5 CALLDATALOAD SWAP4 POP PUSH1 0x20 DUP6 ADD CALLDATALOAD PUSH2 0x1D9A DUP2 PUSH2 0x1B2A JUMP JUMPDEST SWAP3 POP PUSH1 0x40 DUP6 ADD CALLDATALOAD PUSH2 0x1DAA DUP2 PUSH2 0x1B2A JUMP JUMPDEST SWAP4 SWAP7 SWAP3 SWAP6 POP SWAP3 SWAP4 PUSH1 0x60 ADD CALLDATALOAD SWAP3 POP POP JUMP JUMPDEST PUSH1 0x0 DUP1 PUSH1 0x0 PUSH1 0x60 DUP5 DUP7 SUB SLT ISZERO PUSH2 0x1DCF JUMPI PUSH1 0x0 DUP1 REVERT JUMPDEST DUP4 CALLDATALOAD SWAP3 POP PUSH1 0x20 DUP5 ADD CALLDATALOAD PUSH2 0x1DE1 DUP2 PUSH2 0x1B2A JUMP JUMPDEST SWAP2 POP PUSH1 0x40 DUP5 ADD CALLDATALOAD PUSH2 0x1D25 DUP2 PUSH2 0x1B2A JUMP JUMPDEST PUSH1 0x0 DUP1 PUSH1 0x40 DUP4 DUP6 SUB SLT ISZERO PUSH2 0x1E04 JUMPI PUSH1 0x0 DUP1 REVERT JUMPDEST DUP3 CALLDATALOAD PUSH2 0x1E0F DUP2 PUSH2 0x1B2A JUMP JUMPDEST SWAP2 POP PUSH1 0x20 DUP4 ADD CALLDATALOAD PUSH2 0x1CE3 DUP2 PUSH2 0x1B2A JUMP JUMPDEST PUSH1 0x0 PUSH1 0x20 DUP3 DUP5 SUB SLT ISZERO PUSH2 0x1E31 JUMPI PUSH1 0x0 DUP1 REVERT JUMPDEST POP MLOAD SWAP2 SWAP1 POP JUMP JUMPDEST PUSH1 0x1 DUP2 DUP2 SHR SWAP1 DUP3 AND DUP1 PUSH2 0x1E4C JUMPI PUSH1 0x7F DUP3 AND SWAP2 POP JUMPDEST PUSH1 0x20 DUP3 LT DUP2 SUB PUSH2 0x1E6C JUMPI PUSH4 0x4E487B71 PUSH1 0xE0 SHL PUSH1 0x0 MSTORE PUSH1 0x22 PUSH1 0x4 MSTORE PUSH1 0x24 PUSH1 0x0 REVERT JUMPDEST POP SWAP2 SWAP1 POP JUMP JUMPDEST PUSH4 0x4E487B71 PUSH1 0xE0 SHL PUSH1 0x0 MSTORE PUSH1 0x11 PUSH1 0x4 MSTORE PUSH1 0x24 PUSH1 0x0 REVERT JUMPDEST PUSH1 0xFF DUP2 DUP2 AND DUP4 DUP3 AND ADD SWAP1 DUP2 GT ISZERO PUSH2 0x844 JUMPI PUSH2 0x844 PUSH2 0x1E72 JUMP JUMPDEST DUP1 DUP3 ADD DUP1 DUP3 GT ISZERO PUSH2 0x844 JUMPI PUSH2 0x844 PUSH2 0x1E72 JUMP JUMPDEST DUP2 DUP4 DUP3 CALLDATACOPY PUSH1 0x0 SWAP2 ADD SWAP1 DUP2 MSTORE SWAP2 SWAP1 POP JUMP JUMPDEST PUSH1 0x1 DUP2 DUP2 JUMPDEST DUP1 DUP6 GT ISZERO PUSH2 0x1EFF JUMPI DUP2 PUSH1 0x0 NOT DIV DUP3 GT ISZERO PUSH2 0x1EE5 JUMPI PUSH2 0x1EE5 PUSH2 0x1E72 JUMP JUMPDEST DUP1 DUP6 AND ISZERO PUSH2 0x1EF2 JUMPI SWAP2 DUP2 MUL SWAP2 JUMPDEST SWAP4 DUP5 SHR SWAP4 SWAP1 DUP1 MUL SWAP1 PUSH2 0x1EC9 JUMP JUMPDEST POP SWAP3 POP SWAP3 SWAP1 POP JUMP JUMPDEST PUSH1 0x0 DUP3 PUSH2 0x1F16 JUMPI POP PUSH1 0x1 PUSH2 0x844 JUMP JUMPDEST DUP2 PUSH2 0x1F23 JUMPI POP PUSH1 0x0 PUSH2 0x844 JUMP JUMPDEST DUP2 PUSH1 0x1 DUP2 EQ PUSH2 0x1F39 JUMPI PUSH1 0x2 DUP2 EQ PUSH2 0x1F43 JUMPI PUSH2 0x1F5F JUMP JUMPDEST PUSH1 0x1 SWAP2 POP POP PUSH2 0x844 JUMP JUMPDEST PUSH1 0xFF DUP5 GT ISZERO PUSH2 0x1F54 JUMPI PUSH2 0x1F54 PUSH2 0x1E72 JUMP JUMPDEST POP POP PUSH1 0x1 DUP3 SHL PUSH2 0x844 JUMP JUMPDEST POP PUSH1 0x20 DUP4 LT PUSH2 0x133 DUP4 LT AND PUSH1 0x4E DUP5 LT PUSH1 0xB DUP5 LT AND OR ISZERO PUSH2 0x1F82 JUMPI POP DUP2 DUP2 EXP PUSH2 0x844 JUMP JUMPDEST PUSH2 0x1F8C DUP4 DUP4 PUSH2 0x1EC4 JUMP JUMPDEST DUP1 PUSH1 0x0 NOT DIV DUP3 GT ISZERO PUSH2 0x1FA0 JUMPI PUSH2 0x1FA0 PUSH2 0x1E72 JUMP JUMPDEST MUL SWAP4 SWAP3 POP POP POP JUMP JUMPDEST PUSH1 0x0 PUSH2 0x88E PUSH1 0xFF DUP5 AND DUP4 PUSH2 0x1F07 JUMP JUMPDEST PUSH1 0x1 PUSH1 0x1 PUSH1 0xA0 SHL SUB SWAP4 SWAP1 SWAP4 AND DUP4 MSTORE PUSH1 0x20 DUP4 ADD SWAP2 SWAP1 SWAP2 MSTORE PUSH1 0x40 DUP3 ADD MSTORE PUSH1 0x60 ADD SWAP1 JUMP JUMPDEST PUSH4 0x4E487B71 PUSH1 0xE0 SHL PUSH1 0x0 MSTORE PUSH1 0x12 PUSH1 0x4 MSTORE PUSH1 0x24 PUSH1 0x0 REVERT JUMPDEST PUSH1 0x0 PUSH1 0x20 DUP3 DUP5 SUB SLT ISZERO PUSH2 0x2000 JUMPI PUSH1 0x0 DUP1 REVERT JUMPDEST DUP2 MLOAD DUP1 ISZERO ISZERO DUP2 EQ PUSH2 0x88E JUMPI PUSH1 0x0 DUP1 REVERT JUMPDEST PUSH4 0x4E487B71 PUSH1 0xE0 SHL PUSH1 0x0 MSTORE PUSH1 0x21 PUSH1 0x4 MSTORE PUSH1 0x24 PUSH1 0x0 REVERT JUMPDEST PUSH1 0x0 PUSH1 0xFF DUP4 AND DUP1 PUSH2 0x2047 JUMPI PUSH4 0x4E487B71 PUSH1 0xE0 SHL PUSH1 0x0 MSTORE PUSH1 0x12 PUSH1 0x4 MSTORE PUSH1 0x24 PUSH1 0x0 REVERT JUMPDEST DUP1 PUSH1 0xFF DUP5 AND MOD SWAP2 POP POP SWAP3 SWAP2 POP POP JUMP JUMPDEST PUSH1 0x0 DUP3 MLOAD PUSH2 0x2068 DUP2 DUP5 PUSH1 0x20 DUP8 ADD PUSH2 0x1ABA JUMP JUMPDEST SWAP2 SWAP1 SWAP2 ADD SWAP3 SWAP2 POP POP JUMP INVALID LOG2 PUSH5 0x6970667358 0x22 SLT KECCAK256 DUP3 0xD4 LOG4 DUP1 0xE7 0xB0 0xB3 DUP3 0xC0 SHL 0xAA 0xD4 0xBF PUSH4 0x10308338 AND DUP9 0xBF SWAP3 DUP12 CALLVALUE 0xC7 0xF8 PUSH2 0xD3C5 GAS 0xA6 MSIZE PUSH5 0x736F6C6343 STOP ADDMOD XOR STOP CALLER "},"methodIdentifiers":{"addAgent(address)":"84e79842","addFunds(address,uint256,address)":"7498e87c","allowance(address,address)":"dd62ed3e","approve(address,uint256)":"095ea7b3","asset()":"38d52e0f","balanceOf(address)":"70a08231","checkURL(string)":"8719a3b1","convertToAssets(uint256)":"07a2d13a","convertToShares(uint256)":"c6e6f592","decimals()":"313ce567","deposit(uint256,address)":"6e553f65","getAuth(address)":"6e4e3e2d","getProposalInfo(uint256)":"bc903cb8","maxDeposit(address)":"402d267d","maxMint(address)":"c63d75b6","maxRedeem(address)":"d905777e","maxWithdraw(address)":"ce96cb77","mint(uint256,address)":"94bf804d","name()":"06fdde03","newURL(string)":"83ef1495","previewDeposit(uint256)":"ef8b30f7","previewMint(uint256)":"b3d7f6b9","previewRedeem(uint256)":"4cdad506","previewWithdraw(uint256)":"0a28a477","proposalCheck()":"226b0d0a","proposalDeposit(uint256,address,uint256)":"55f86df8","proposalMint(uint256,address,uint256)":"d9d77923","proposalOpen(uint256,address,address,address,string)":"42b4725a","proposalRedeem(uint256,address,address,uint256)":"99ea4c01","proposalWithdraw(uint256,address,address,uint256)":"c49724ec","redeem(uint256,address,address)":"ba087652","symbol()":"95d89b41","totalAssets()":"01e1d114","totalShares(uint256)":"13f2dad0","totalSupply()":"18160ddd","transfer(address,uint256)":"a9059cbb","transferFrom(address,address,uint256)":"23b872dd","urlProposalNum(bytes32)":"d1fbb45c","userDeposit(address,uint256)":"b52d7343","userNumOfProposal(address)":"0f6992eb","userProposal(address,uint256)":"2d89cb08","userWithdrew(address,uint256)":"9bcd9a2b","whosAgent()":"6763c5fa","whosOwner()":"daa85ff0","withdraw(uint256,address,address)":"b460af94"}}}}}