{
  "_format": "hh-sol-artifact-1",
  "contractName": "DirectiveToken",
  "sourceName": "contracts/DirectiveToken.sol",
  "abi": [
    {
      "inputs": [
        {
          "internalType": "string",
          "name": "name",
          "type": "string"
        },
        {
          "internalType": "string",
          "name": "symbol",
          "type": "string"
        },
        {
          "internalType": "uint256",
          "name": "initialSupply",
          "type": "uint256"
        }
      ],
      "stateMutability": "nonpayable",
      "type": "constructor"
    },
    {
      "inputs": [
        {
          "internalType": "address",
          "name": "spender",
          "type": "address"
        },
        {
          "internalType": "uint256",
          "name": "allowance",
          "type": "uint256"
        },
        {
          "internalType": "uint256",
          "name": "needed",
          "type": "uint256"
        }
      ],
      "name": "ERC20InsufficientAllowance",
      "type": "error"
    },
    {
      "inputs": [
        {
          "internalType": "address",
          "name": "sender",
          "type": "address"
        },
        {
          "internalType": "uint256",
          "name": "balance",
          "type": "uint256"
        },
        {
          "internalType": "uint256",
          "name": "needed",
          "type": "uint256"
        }
      ],
      "name": "ERC20InsufficientBalance",
      "type": "error"
    },
    {
      "inputs": [
        {
          "internalType": "address",
          "name": "approver",
          "type": "address"
        }
      ],
      "name": "ERC20InvalidApprover",
      "type": "error"
    },
    {
      "inputs": [
        {
          "internalType": "address",
          "name": "receiver",
          "type": "address"
        }
      ],
      "name": "ERC20InvalidReceiver",
      "type": "error"
    },
    {
      "inputs": [
        {
          "internalType": "address",
          "name": "sender",
          "type": "address"
        }
      ],
      "name": "ERC20InvalidSender",
      "type": "error"
    },
    {
      "inputs": [
        {
          "internalType": "address",
          "name": "spender",
          "type": "address"
        }
      ],
      "name": "ERC20InvalidSpender",
      "type": "error"
    },
    {
      "inputs": [
        {
          "internalType": "address",
          "name": "owner",
          "type": "address"
        }
      ],
      "name": "OwnableInvalidOwner",
      "type": "error"
    },
    {
      "inputs": [
        {
          "internalType": "address",
          "name": "account",
          "type": "address"
        }
      ],
      "name": "OwnableUnauthorizedAccount",
      "type": "error"
    },
    {
      "anonymous": false,
      "inputs": [
        {
          "indexed": true,
          "internalType": "address",
          "name": "owner",
          "type": "address"
        },
        {
          "indexed": true,
          "internalType": "address",
          "name": "spender",
          "type": "address"
        },
        {
          "indexed": false,
          "internalType": "uint256",
          "name": "value",
          "type": "uint256"
        }
      ],
      "name": "Approval",
      "type": "event"
    },
    {
      "anonymous": false,
      "inputs": [
        {
          "indexed": true,
          "internalType": "address",
          "name": "previousOwner",
          "type": "address"
        },
        {
          "indexed": true,
          "internalType": "address",
          "name": "newOwner",
          "type": "address"
        }
      ],
      "name": "OwnershipTransferred",
      "type": "event"
    },
    {
      "anonymous": false,
      "inputs": [
        {
          "indexed": true,
          "internalType": "address",
          "name": "from",
          "type": "address"
        },
        {
          "indexed": true,
          "internalType": "address",
          "name": "to",
          "type": "address"
        },
        {
          "indexed": false,
          "internalType": "uint256",
          "name": "value",
          "type": "uint256"
        }
      ],
      "name": "Transfer",
      "type": "event"
    },
    {
      "inputs": [],
      "name": "TREASURY_TOKEN_IDENTIFIER",
      "outputs": [
        {
          "internalType": "string",
          "name": "",
          "type": "string"
        }
      ],
      "stateMutability": "view",
      "type": "function"
    },
    {
      "inputs": [
        {
          "internalType": "address",
          "name": "owner",
          "type": "address"
        },
        {
          "internalType": "address",
          "name": "spender",
          "type": "address"
        }
      ],
      "name": "allowance",
      "outputs": [
        {
          "internalType": "uint256",
          "name": "",
          "type": "uint256"
        }
      ],
      "stateMutability": "view",
      "type": "function"
    },
    {
      "inputs": [
        {
          "internalType": "address",
          "name": "spender",
          "type": "address"
        },
        {
          "internalType": "uint256",
          "name": "value",
          "type": "uint256"
        }
      ],
      "name": "approve",
      "outputs": [
        {
          "internalType": "bool",
          "name": "",
          "type": "bool"
        }
      ],
      "stateMutability": "nonpayable",
      "type": "function"
    },
    {
      "inputs": [
        {
          "internalType": "address",
          "name": "account",
          "type": "address"
        }
      ],
      "name": "balanceOf",
      "outputs": [
        {
          "internalType": "uint256",
          "name": "",
          "type": "uint256"
        }
      ],
      "stateMutability": "view",
      "type": "function"
    },
    {
      "inputs": [],
      "name": "decimals",
      "outputs": [
        {
          "internalType": "uint8",
          "name": "",
          "type": "uint8"
        }
      ],
      "stateMutability": "view",
      "type": "function"
    },
    {
      "inputs": [
        {
          "internalType": "address",
          "name": "newOwner",
          "type": "address"
        }
      ],
      "name": "initDirective",
      "outputs": [
        {
          "internalType": "bool",
          "name": "",
          "type": "bool"
        }
      ],
      "stateMutability": "nonpayable",
      "type": "function"
    },
    {
      "inputs": [
        {
          "internalType": "address",
          "name": "to",
          "type": "address"
        },
        {
          "internalType": "uint256",
          "name": "amount",
          "type": "uint256"
        }
      ],
      "name": "mintToken",
      "outputs": [
        {
          "internalType": "uint256",
          "name": "",
          "type": "uint256"
        }
      ],
      "stateMutability": "nonpayable",
      "type": "function"
    },
    {
      "inputs": [],
      "name": "name",
      "outputs": [
        {
          "internalType": "string",
          "name": "",
          "type": "string"
        }
      ],
      "stateMutability": "view",
      "type": "function"
    },
    {
      "inputs": [],
      "name": "owner",
      "outputs": [
        {
          "internalType": "address",
          "name": "",
          "type": "address"
        }
      ],
      "stateMutability": "view",
      "type": "function"
    },
    {
      "inputs": [],
      "name": "renounceOwnership",
      "outputs": [],
      "stateMutability": "nonpayable",
      "type": "function"
    },
    {
      "inputs": [],
      "name": "reserveAddr",
      "outputs": [
        {
          "internalType": "address",
          "name": "",
          "type": "address"
        }
      ],
      "stateMutability": "view",
      "type": "function"
    },
    {
      "inputs": [],
      "name": "symbol",
      "outputs": [
        {
          "internalType": "string",
          "name": "",
          "type": "string"
        }
      ],
      "stateMutability": "view",
      "type": "function"
    },
    {
      "inputs": [],
      "name": "totalSupply",
      "outputs": [
        {
          "internalType": "uint256",
          "name": "",
          "type": "uint256"
        }
      ],
      "stateMutability": "view",
      "type": "function"
    },
    {
      "inputs": [
        {
          "internalType": "address",
          "name": "to",
          "type": "address"
        },
        {
          "internalType": "uint256",
          "name": "value",
          "type": "uint256"
        }
      ],
      "name": "transfer",
      "outputs": [
        {
          "internalType": "bool",
          "name": "",
          "type": "bool"
        }
      ],
      "stateMutability": "nonpayable",
      "type": "function"
    },
    {
      "inputs": [
        {
          "internalType": "address",
          "name": "from",
          "type": "address"
        },
        {
          "internalType": "address",
          "name": "to",
          "type": "address"
        },
        {
          "internalType": "uint256",
          "name": "value",
          "type": "uint256"
        }
      ],
      "name": "transferFrom",
      "outputs": [
        {
          "internalType": "bool",
          "name": "",
          "type": "bool"
        }
      ],
      "stateMutability": "nonpayable",
      "type": "function"
    },
    {
      "inputs": [
        {
          "internalType": "address",
          "name": "newOwner",
          "type": "address"
        }
      ],
      "name": "transferOwnership",
      "outputs": [],
      "stateMutability": "nonpayable",
      "type": "function"
    }
  ],
  "bytecode": "0x60806040523480156200001157600080fd5b5060405162000f2638038062000f26833981016040819052620000349162000351565b338383600362000045838262000455565b50600462000054828262000455565b5050506001600160a01b0381166200008757604051631e4fbdf760e01b8152600060048201526024015b60405180910390fd5b6200009281620000c6565b506200009f338262000118565b6006620000ad848262000455565b506007620000bc838262000455565b5050505062000549565b600580546001600160a01b038381166001600160a01b0319831681179093556040519116919082907f8be0079c531659141344cd1fd0a4f28419497f9722a3daafe3b4186f6b6457e090600090a35050565b6001600160a01b038216620001445760405163ec442f0560e01b8152600060048201526024016200007e565b620001526000838362000156565b5050565b6001600160a01b0383166200018557806002600082825462000179919062000521565b90915550620001f99050565b6001600160a01b03831660009081526020819052604090205481811015620001da5760405163391434e360e21b81526001600160a01b038516600482015260248101829052604481018390526064016200007e565b6001600160a01b03841660009081526020819052604090209082900390555b6001600160a01b038216620002175760028054829003905562000236565b6001600160a01b03821660009081526020819052604090208054820190555b816001600160a01b0316836001600160a01b03167fddf252ad1be2c89b69c2b068fc378daa952ba7f163c4a11628f55a4df523b3ef836040516200027c91815260200190565b60405180910390a3505050565b634e487b7160e01b600052604160045260246000fd5b600082601f830112620002b157600080fd5b81516001600160401b0380821115620002ce57620002ce62000289565b604051601f8301601f19908116603f01168101908282118183101715620002f957620002f962000289565b81604052838152602092508660208588010111156200031757600080fd5b600091505b838210156200033b57858201830151818301840152908201906200031c565b6000602085830101528094505050505092915050565b6000806000606084860312156200036757600080fd5b83516001600160401b03808211156200037f57600080fd5b6200038d878388016200029f565b94506020860151915080821115620003a457600080fd5b50620003b3868287016200029f565b925050604084015190509250925092565b600181811c90821680620003d957607f821691505b602082108103620003fa57634e487b7160e01b600052602260045260246000fd5b50919050565b601f82111562000450576000816000526020600020601f850160051c810160208610156200042b5750805b601f850160051c820191505b818110156200044c5782815560010162000437565b5050505b505050565b81516001600160401b0381111562000471576200047162000289565b6200048981620004828454620003c4565b8462000400565b602080601f831160018114620004c15760008415620004a85750858301515b600019600386901b1c1916600185901b1785556200044c565b600085815260208120601f198616915b82811015620004f257888601518255948401946001909101908401620004d1565b5085821015620005115787850151600019600388901b60f8161c191681555b5050505050600190811b01905550565b808201808211156200054357634e487b7160e01b600052601160045260246000fd5b92915050565b6109cd80620005596000396000f3fe608060405234801561001057600080fd5b50600436106101005760003560e01c806387c9c56511610097578063a9059cbb11610066578063a9059cbb14610235578063dd62ed3e14610248578063e282726b14610281578063f2fde38b1461028957600080fd5b806387c9c565146101c05780638938af2c146101d35780638da5cb5b1461020857806395d89b411461022d57600080fd5b8063313ce567116100d3578063313ce5671461016b57806370a082311461017a578063715018a6146101a357806379c65068146101ad57600080fd5b806306fdde0314610105578063095ea7b31461012357806318160ddd1461014657806323b872dd14610158575b600080fd5b61010d61029c565b60405161011a9190610821565b60405180910390f35b610136610131366004610887565b61032e565b604051901515815260200161011a565b6002545b60405190815260200161011a565b6101366101663660046108b1565b610348565b6040516012815260200161011a565b61014a6101883660046108ed565b6001600160a01b031660009081526020819052604090205490565b6101ab61036c565b005b61014a6101bb366004610887565b610380565b6101366101ce3660046108ed565b61039a565b61010d604051806040016040528060168152602001754f50454e5f54524541535552595f544f4b454e5f563160501b81525081565b6005546001600160a01b03165b6040516001600160a01b03909116815260200161011a565b61010d610406565b610136610243366004610887565b610415565b61014a61025636600461090f565b6001600160a01b03918216600090815260016020908152604080832093909416825291909152205490565b610215610423565b6101ab6102973660046108ed565b61043c565b6060600380546102ab90610942565b80601f01602080910402602001604051908101604052809291908181526020018280546102d790610942565b80156103245780601f106102f957610100808354040283529160200191610324565b820191906000526020600020905b81548152906001019060200180831161030757829003601f168201915b5050505050905090565b60003361033c81858561047a565b60019150505b92915050565b60003361035685828561048c565b61036185858561050a565b506001949350505050565b610374610569565b61037e6000610596565b565b600061038a610569565b61039483836105e8565b50919050565b60006103a4610569565b60006103af60025490565b116103f45760405162461bcd60e51b815260206004820152601060248201526f139bc81d1bdad95b9cc81b5a5b9d195960821b60448201526064015b60405180910390fd5b6103fd8261043c565b5060015b919050565b6060600480546102ab90610942565b60003361033c81858561050a565b60006104376005546001600160a01b031690565b905090565b610444610569565b6001600160a01b03811661046e57604051631e4fbdf760e01b8152600060048201526024016103eb565b61047781610596565b50565b6104878383836001610622565b505050565b6001600160a01b03838116600090815260016020908152604080832093861683529290522054600019811461050457818110156104f557604051637dc7a0d960e11b81526001600160a01b038416600482015260248101829052604481018390526064016103eb565b61050484848484036000610622565b50505050565b6001600160a01b03831661053457604051634b637e8f60e11b8152600060048201526024016103eb565b6001600160a01b03821661055e5760405163ec442f0560e01b8152600060048201526024016103eb565b6104878383836106f7565b6005546001600160a01b0316331461037e5760405163118cdaa760e01b81523360048201526024016103eb565b600580546001600160a01b038381166001600160a01b0319831681179093556040519116919082907f8be0079c531659141344cd1fd0a4f28419497f9722a3daafe3b4186f6b6457e090600090a35050565b6001600160a01b0382166106125760405163ec442f0560e01b8152600060048201526024016103eb565b61061e600083836106f7565b5050565b6001600160a01b03841661064c5760405163e602df0560e01b8152600060048201526024016103eb565b6001600160a01b03831661067657604051634a1406b160e11b8152600060048201526024016103eb565b6001600160a01b038085166000908152600160209081526040808320938716835292905220829055801561050457826001600160a01b0316846001600160a01b03167f8c5be1e5ebec7d5bd14f71427d1e84f3dd0314c0f7b2291e5b200ac8c7c3b925846040516106e991815260200190565b60405180910390a350505050565b6001600160a01b0383166107225780600260008282546107179190610976565b909155506107949050565b6001600160a01b038316600090815260208190526040902054818110156107755760405163391434e360e21b81526001600160a01b038516600482015260248101829052604481018390526064016103eb565b6001600160a01b03841660009081526020819052604090209082900390555b6001600160a01b0382166107b0576002805482900390556107cf565b6001600160a01b03821660009081526020819052604090208054820190555b816001600160a01b0316836001600160a01b03167fddf252ad1be2c89b69c2b068fc378daa952ba7f163c4a11628f55a4df523b3ef8360405161081491815260200190565b60405180910390a3505050565b60006020808352835180602085015260005b8181101561084f57858101830151858201604001528201610833565b506000604082860101526040601f19601f8301168501019250505092915050565b80356001600160a01b038116811461040157600080fd5b6000806040838503121561089a57600080fd5b6108a383610870565b946020939093013593505050565b6000806000606084860312156108c657600080fd5b6108cf84610870565b92506108dd60208501610870565b9150604084013590509250925092565b6000602082840312156108ff57600080fd5b61090882610870565b9392505050565b6000806040838503121561092257600080fd5b61092b83610870565b915061093960208401610870565b90509250929050565b600181811c9082168061095657607f821691505b60208210810361039457634e487b7160e01b600052602260045260246000fd5b8082018082111561034257634e487b7160e01b600052601160045260246000fdfea2646970667358221220432260d7a1ba06afef883dd38b1ed4313c9cc5d28e956702190a7f52b91eb7d364736f6c63430008180033",
  "linkReferences": {},
  "deployedLinkReferences": {}
}