{
  "_format": "hh-sol-artifact-1",
  "contractName": "OpenDirective",
  "sourceName": "contracts/OpenDirective.sol",
  "abi": [
    {
      "inputs": [
        {
          "internalType": "address",
          "name": "agent",
          "type": "address"
        },
        {
          "internalType": "contract IERC20",
          "name": "dToken",
          "type": "address"
        },
        {
          "internalType": "string",
          "name": "name",
          "type": "string"
        },
        {
          "internalType": "string",
          "name": "symbol",
          "type": "string"
        }
      ],
      "stateMutability": "nonpayable",
      "type": "constructor"
    },
    {
      "inputs": [
        {
          "internalType": "address",
          "name": "target",
          "type": "address"
        }
      ],
      "name": "AddressEmptyCode",
      "type": "error"
    },
    {
      "inputs": [
        {
          "internalType": "address",
          "name": "account",
          "type": "address"
        }
      ],
      "name": "AddressInsufficientBalance",
      "type": "error"
    },
    {
      "inputs": [
        {
          "internalType": "address",
          "name": "spender",
          "type": "address"
        },
        {
          "internalType": "uint256",
          "name": "allowance",
          "type": "uint256"
        },
        {
          "internalType": "uint256",
          "name": "needed",
          "type": "uint256"
        }
      ],
      "name": "ERC20InsufficientAllowance",
      "type": "error"
    },
    {
      "inputs": [
        {
          "internalType": "address",
          "name": "sender",
          "type": "address"
        },
        {
          "internalType": "uint256",
          "name": "balance",
          "type": "uint256"
        },
        {
          "internalType": "uint256",
          "name": "needed",
          "type": "uint256"
        }
      ],
      "name": "ERC20InsufficientBalance",
      "type": "error"
    },
    {
      "inputs": [
        {
          "internalType": "address",
          "name": "approver",
          "type": "address"
        }
      ],
      "name": "ERC20InvalidApprover",
      "type": "error"
    },
    {
      "inputs": [
        {
          "internalType": "address",
          "name": "receiver",
          "type": "address"
        }
      ],
      "name": "ERC20InvalidReceiver",
      "type": "error"
    },
    {
      "inputs": [
        {
          "internalType": "address",
          "name": "sender",
          "type": "address"
        }
      ],
      "name": "ERC20InvalidSender",
      "type": "error"
    },
    {
      "inputs": [
        {
          "internalType": "address",
          "name": "spender",
          "type": "address"
        }
      ],
      "name": "ERC20InvalidSpender",
      "type": "error"
    },
    {
      "inputs": [
        {
          "internalType": "address",
          "name": "receiver",
          "type": "address"
        },
        {
          "internalType": "uint256",
          "name": "assets",
          "type": "uint256"
        },
        {
          "internalType": "uint256",
          "name": "max",
          "type": "uint256"
        }
      ],
      "name": "ERC4626ExceededMaxDeposit",
      "type": "error"
    },
    {
      "inputs": [
        {
          "internalType": "address",
          "name": "receiver",
          "type": "address"
        },
        {
          "internalType": "uint256",
          "name": "shares",
          "type": "uint256"
        },
        {
          "internalType": "uint256",
          "name": "max",
          "type": "uint256"
        }
      ],
      "name": "ERC4626ExceededMaxMint",
      "type": "error"
    },
    {
      "inputs": [
        {
          "internalType": "address",
          "name": "owner",
          "type": "address"
        },
        {
          "internalType": "uint256",
          "name": "shares",
          "type": "uint256"
        },
        {
          "internalType": "uint256",
          "name": "max",
          "type": "uint256"
        }
      ],
      "name": "ERC4626ExceededMaxRedeem",
      "type": "error"
    },
    {
      "inputs": [
        {
          "internalType": "address",
          "name": "owner",
          "type": "address"
        },
        {
          "internalType": "uint256",
          "name": "assets",
          "type": "uint256"
        },
        {
          "internalType": "uint256",
          "name": "max",
          "type": "uint256"
        }
      ],
      "name": "ERC4626ExceededMaxWithdraw",
      "type": "error"
    },
    {
      "inputs": [],
      "name": "FailedInnerCall",
      "type": "error"
    },
    {
      "inputs": [],
      "name": "MathOverflowedMulDiv",
      "type": "error"
    },
    {
      "inputs": [],
      "name": "ReentrancyGuardReentrantCall",
      "type": "error"
    },
    {
      "inputs": [
        {
          "internalType": "address",
          "name": "token",
          "type": "address"
        }
      ],
      "name": "SafeERC20FailedOperation",
      "type": "error"
    },
    {
      "anonymous": false,
      "inputs": [
        {
          "indexed": true,
          "internalType": "address",
          "name": "owner",
          "type": "address"
        },
        {
          "indexed": true,
          "internalType": "address",
          "name": "spender",
          "type": "address"
        },
        {
          "indexed": false,
          "internalType": "uint256",
          "name": "value",
          "type": "uint256"
        }
      ],
      "name": "Approval",
      "type": "event"
    },
    {
      "anonymous": false,
      "inputs": [
        {
          "indexed": true,
          "internalType": "address",
          "name": "sender",
          "type": "address"
        },
        {
          "indexed": true,
          "internalType": "address",
          "name": "owner",
          "type": "address"
        },
        {
          "indexed": false,
          "internalType": "uint256",
          "name": "assets",
          "type": "uint256"
        },
        {
          "indexed": false,
          "internalType": "uint256",
          "name": "shares",
          "type": "uint256"
        }
      ],
      "name": "Deposit",
      "type": "event"
    },
    {
      "anonymous": false,
      "inputs": [
        {
          "indexed": true,
          "internalType": "address",
          "name": "token",
          "type": "address"
        },
        {
          "indexed": true,
          "internalType": "uint256",
          "name": "amount",
          "type": "uint256"
        },
        {
          "indexed": true,
          "internalType": "uint256",
          "name": "time",
          "type": "uint256"
        },
        {
          "indexed": false,
          "internalType": "address",
          "name": "sender",
          "type": "address"
        }
      ],
      "name": "FundsAdded",
      "type": "event"
    },
    {
      "anonymous": false,
      "inputs": [
        {
          "indexed": true,
          "internalType": "address",
          "name": "from",
          "type": "address"
        },
        {
          "indexed": true,
          "internalType": "address",
          "name": "to",
          "type": "address"
        },
        {
          "indexed": false,
          "internalType": "uint256",
          "name": "value",
          "type": "uint256"
        }
      ],
      "name": "Transfer",
      "type": "event"
    },
    {
      "anonymous": false,
      "inputs": [
        {
          "indexed": true,
          "internalType": "address",
          "name": "sender",
          "type": "address"
        },
        {
          "indexed": true,
          "internalType": "address",
          "name": "receiver",
          "type": "address"
        },
        {
          "indexed": true,
          "internalType": "address",
          "name": "owner",
          "type": "address"
        },
        {
          "indexed": false,
          "internalType": "uint256",
          "name": "assets",
          "type": "uint256"
        },
        {
          "indexed": false,
          "internalType": "uint256",
          "name": "shares",
          "type": "uint256"
        }
      ],
      "name": "Withdraw",
      "type": "event"
    },
    {
      "anonymous": false,
      "inputs": [
        {
          "indexed": true,
          "internalType": "uint256",
          "name": "proposalNum",
          "type": "uint256"
        },
        {
          "indexed": true,
          "internalType": "bool",
          "name": "closed",
          "type": "bool"
        },
        {
          "indexed": false,
          "internalType": "address",
          "name": "closer",
          "type": "address"
        }
      ],
      "name": "proposalC",
      "type": "event"
    },
    {
      "anonymous": false,
      "inputs": [
        {
          "indexed": true,
          "internalType": "address",
          "name": "token",
          "type": "address"
        },
        {
          "indexed": true,
          "internalType": "uint256",
          "name": "proposalNum",
          "type": "uint256"
        },
        {
          "indexed": true,
          "internalType": "uint256",
          "name": "amount",
          "type": "uint256"
        },
        {
          "indexed": false,
          "internalType": "address",
          "name": "recipient",
          "type": "address"
        }
      ],
      "name": "proposalO",
      "type": "event"
    },
    {
      "inputs": [
        {
          "internalType": "address",
          "name": "agent",
          "type": "address"
        }
      ],
      "name": "addAgent",
      "outputs": [],
      "stateMutability": "nonpayable",
      "type": "function"
    },
    {
      "inputs": [
        {
          "internalType": "contract IERC20",
          "name": "token",
          "type": "address"
        },
        {
          "internalType": "uint256",
          "name": "amount",
          "type": "uint256"
        },
        {
          "internalType": "address",
          "name": "sender",
          "type": "address"
        }
      ],
      "name": "addFunds",
      "outputs": [
        {
          "internalType": "bool",
          "name": "",
          "type": "bool"
        }
      ],
      "stateMutability": "nonpayable",
      "type": "function"
    },
    {
      "inputs": [
        {
          "internalType": "address",
          "name": "owner",
          "type": "address"
        },
        {
          "internalType": "address",
          "name": "spender",
          "type": "address"
        }
      ],
      "name": "allowance",
      "outputs": [
        {
          "internalType": "uint256",
          "name": "",
          "type": "uint256"
        }
      ],
      "stateMutability": "view",
      "type": "function"
    },
    {
      "inputs": [
        {
          "internalType": "address",
          "name": "spender",
          "type": "address"
        },
        {
          "internalType": "uint256",
          "name": "value",
          "type": "uint256"
        }
      ],
      "name": "approve",
      "outputs": [
        {
          "internalType": "bool",
          "name": "",
          "type": "bool"
        }
      ],
      "stateMutability": "nonpayable",
      "type": "function"
    },
    {
      "inputs": [],
      "name": "asset",
      "outputs": [
        {
          "internalType": "address",
          "name": "",
          "type": "address"
        }
      ],
      "stateMutability": "view",
      "type": "function"
    },
    {
      "inputs": [
        {
          "internalType": "address",
          "name": "account",
          "type": "address"
        }
      ],
      "name": "balanceOf",
      "outputs": [
        {
          "internalType": "uint256",
          "name": "",
          "type": "uint256"
        }
      ],
      "stateMutability": "view",
      "type": "function"
    },
    {
      "inputs": [
        {
          "internalType": "string",
          "name": "url",
          "type": "string"
        }
      ],
      "name": "checkURL",
      "outputs": [
        {
          "internalType": "bool",
          "name": "",
          "type": "bool"
        }
      ],
      "stateMutability": "view",
      "type": "function"
    },
    {
      "inputs": [
        {
          "internalType": "uint256",
          "name": "shares",
          "type": "uint256"
        }
      ],
      "name": "convertToAssets",
      "outputs": [
        {
          "internalType": "uint256",
          "name": "",
          "type": "uint256"
        }
      ],
      "stateMutability": "view",
      "type": "function"
    },
    {
      "inputs": [
        {
          "internalType": "uint256",
          "name": "assets",
          "type": "uint256"
        }
      ],
      "name": "convertToShares",
      "outputs": [
        {
          "internalType": "uint256",
          "name": "",
          "type": "uint256"
        }
      ],
      "stateMutability": "view",
      "type": "function"
    },
    {
      "inputs": [],
      "name": "decimals",
      "outputs": [
        {
          "internalType": "uint8",
          "name": "",
          "type": "uint8"
        }
      ],
      "stateMutability": "view",
      "type": "function"
    },
    {
      "inputs": [
        {
          "internalType": "uint256",
          "name": "assets",
          "type": "uint256"
        },
        {
          "internalType": "address",
          "name": "receiver",
          "type": "address"
        }
      ],
      "name": "deposit",
      "outputs": [
        {
          "internalType": "uint256",
          "name": "",
          "type": "uint256"
        }
      ],
      "stateMutability": "nonpayable",
      "type": "function"
    },
    {
      "inputs": [
        {
          "internalType": "address",
          "name": "user",
          "type": "address"
        }
      ],
      "name": "getAuth",
      "outputs": [
        {
          "internalType": "bool",
          "name": "",
          "type": "bool"
        }
      ],
      "stateMutability": "view",
      "type": "function"
    },
    {
      "inputs": [
        {
          "internalType": "uint256",
          "name": "proposal",
          "type": "uint256"
        }
      ],
      "name": "getProposalInfo",
      "outputs": [
        {
          "internalType": "address",
          "name": "token",
          "type": "address"
        },
        {
          "internalType": "uint256",
          "name": "withdrawAmount",
          "type": "uint256"
        },
        {
          "internalType": "address",
          "name": "receiver",
          "type": "address"
        }
      ],
      "stateMutability": "view",
      "type": "function"
    },
    {
      "inputs": [
        {
          "internalType": "address",
          "name": "",
          "type": "address"
        }
      ],
      "name": "maxDeposit",
      "outputs": [
        {
          "internalType": "uint256",
          "name": "",
          "type": "uint256"
        }
      ],
      "stateMutability": "view",
      "type": "function"
    },
    {
      "inputs": [
        {
          "internalType": "address",
          "name": "",
          "type": "address"
        }
      ],
      "name": "maxMint",
      "outputs": [
        {
          "internalType": "uint256",
          "name": "",
          "type": "uint256"
        }
      ],
      "stateMutability": "view",
      "type": "function"
    },
    {
      "inputs": [
        {
          "internalType": "address",
          "name": "owner",
          "type": "address"
        }
      ],
      "name": "maxRedeem",
      "outputs": [
        {
          "internalType": "uint256",
          "name": "",
          "type": "uint256"
        }
      ],
      "stateMutability": "view",
      "type": "function"
    },
    {
      "inputs": [
        {
          "internalType": "address",
          "name": "owner",
          "type": "address"
        }
      ],
      "name": "maxWithdraw",
      "outputs": [
        {
          "internalType": "uint256",
          "name": "",
          "type": "uint256"
        }
      ],
      "stateMutability": "view",
      "type": "function"
    },
    {
      "inputs": [
        {
          "internalType": "uint256",
          "name": "shares",
          "type": "uint256"
        },
        {
          "internalType": "address",
          "name": "receiver",
          "type": "address"
        }
      ],
      "name": "mint",
      "outputs": [
        {
          "internalType": "uint256",
          "name": "",
          "type": "uint256"
        }
      ],
      "stateMutability": "nonpayable",
      "type": "function"
    },
    {
      "inputs": [],
      "name": "name",
      "outputs": [
        {
          "internalType": "string",
          "name": "",
          "type": "string"
        }
      ],
      "stateMutability": "view",
      "type": "function"
    },
    {
      "inputs": [
        {
          "internalType": "string",
          "name": "url",
          "type": "string"
        }
      ],
      "name": "newURL",
      "outputs": [
        {
          "internalType": "bytes32",
          "name": "",
          "type": "bytes32"
        }
      ],
      "stateMutability": "nonpayable",
      "type": "function"
    },
    {
      "inputs": [
        {
          "internalType": "uint256",
          "name": "assets",
          "type": "uint256"
        }
      ],
      "name": "previewDeposit",
      "outputs": [
        {
          "internalType": "uint256",
          "name": "",
          "type": "uint256"
        }
      ],
      "stateMutability": "view",
      "type": "function"
    },
    {
      "inputs": [
        {
          "internalType": "uint256",
          "name": "shares",
          "type": "uint256"
        }
      ],
      "name": "previewMint",
      "outputs": [
        {
          "internalType": "uint256",
          "name": "",
          "type": "uint256"
        }
      ],
      "stateMutability": "view",
      "type": "function"
    },
    {
      "inputs": [
        {
          "internalType": "uint256",
          "name": "shares",
          "type": "uint256"
        }
      ],
      "name": "previewRedeem",
      "outputs": [
        {
          "internalType": "uint256",
          "name": "",
          "type": "uint256"
        }
      ],
      "stateMutability": "view",
      "type": "function"
    },
    {
      "inputs": [
        {
          "internalType": "uint256",
          "name": "assets",
          "type": "uint256"
        }
      ],
      "name": "previewWithdraw",
      "outputs": [
        {
          "internalType": "uint256",
          "name": "",
          "type": "uint256"
        }
      ],
      "stateMutability": "view",
      "type": "function"
    },
    {
      "inputs": [],
      "name": "proposalCheck",
      "outputs": [
        {
          "internalType": "uint256",
          "name": "",
          "type": "uint256"
        }
      ],
      "stateMutability": "view",
      "type": "function"
    },
    {
      "inputs": [
        {
          "internalType": "uint256",
          "name": "assets",
          "type": "uint256"
        },
        {
          "internalType": "address",
          "name": "receiver",
          "type": "address"
        },
        {
          "internalType": "uint256",
          "name": "proposal",
          "type": "uint256"
        }
      ],
      "name": "proposalDeposit",
      "outputs": [
        {
          "internalType": "uint256",
          "name": "",
          "type": "uint256"
        }
      ],
      "stateMutability": "nonpayable",
      "type": "function"
    },
    {
      "inputs": [
        {
          "internalType": "uint256",
          "name": "shares",
          "type": "uint256"
        },
        {
          "internalType": "address",
          "name": "receiver",
          "type": "address"
        },
        {
          "internalType": "uint256",
          "name": "proposal",
          "type": "uint256"
        }
      ],
      "name": "proposalMint",
      "outputs": [
        {
          "internalType": "uint256",
          "name": "",
          "type": "uint256"
        }
      ],
      "stateMutability": "nonpayable",
      "type": "function"
    },
    {
      "inputs": [
        {
          "internalType": "uint256",
          "name": "amount",
          "type": "uint256"
        },
        {
          "internalType": "address",
          "name": "policy",
          "type": "address"
        },
        {
          "internalType": "address",
          "name": "owner",
          "type": "address"
        },
        {
          "internalType": "contract IERC20",
          "name": "token",
          "type": "address"
        },
        {
          "internalType": "string",
          "name": "url",
          "type": "string"
        }
      ],
      "name": "proposalOpen",
      "outputs": [
        {
          "internalType": "uint256",
          "name": "",
          "type": "uint256"
        }
      ],
      "stateMutability": "nonpayable",
      "type": "function"
    },
    {
      "inputs": [
        {
          "internalType": "uint256",
          "name": "shares",
          "type": "uint256"
        },
        {
          "internalType": "address",
          "name": "receiver",
          "type": "address"
        },
        {
          "internalType": "address",
          "name": "owner",
          "type": "address"
        },
        {
          "internalType": "uint256",
          "name": "proposal",
          "type": "uint256"
        }
      ],
      "name": "proposalRedeem",
      "outputs": [
        {
          "internalType": "uint256",
          "name": "",
          "type": "uint256"
        }
      ],
      "stateMutability": "nonpayable",
      "type": "function"
    },
    {
      "inputs": [
        {
          "internalType": "uint256",
          "name": "assets",
          "type": "uint256"
        },
        {
          "internalType": "address",
          "name": "receiver",
          "type": "address"
        },
        {
          "internalType": "address",
          "name": "owner",
          "type": "address"
        },
        {
          "internalType": "uint256",
          "name": "proposal",
          "type": "uint256"
        }
      ],
      "name": "proposalWithdraw",
      "outputs": [
        {
          "internalType": "uint256",
          "name": "",
          "type": "uint256"
        }
      ],
      "stateMutability": "nonpayable",
      "type": "function"
    },
    {
      "inputs": [
        {
          "internalType": "uint256",
          "name": "shares",
          "type": "uint256"
        },
        {
          "internalType": "address",
          "name": "receiver",
          "type": "address"
        },
        {
          "internalType": "address",
          "name": "owner",
          "type": "address"
        }
      ],
      "name": "redeem",
      "outputs": [
        {
          "internalType": "uint256",
          "name": "",
          "type": "uint256"
        }
      ],
      "stateMutability": "nonpayable",
      "type": "function"
    },
    {
      "inputs": [],
      "name": "symbol",
      "outputs": [
        {
          "internalType": "string",
          "name": "",
          "type": "string"
        }
      ],
      "stateMutability": "view",
      "type": "function"
    },
    {
      "inputs": [],
      "name": "totalAssets",
      "outputs": [
        {
          "internalType": "uint256",
          "name": "",
          "type": "uint256"
        }
      ],
      "stateMutability": "view",
      "type": "function"
    },
    {
      "inputs": [
        {
          "internalType": "uint256",
          "name": "proposal",
          "type": "uint256"
        }
      ],
      "name": "totalShares",
      "outputs": [
        {
          "internalType": "uint256",
          "name": "",
          "type": "uint256"
        }
      ],
      "stateMutability": "view",
      "type": "function"
    },
    {
      "inputs": [],
      "name": "totalSupply",
      "outputs": [
        {
          "internalType": "uint256",
          "name": "",
          "type": "uint256"
        }
      ],
      "stateMutability": "view",
      "type": "function"
    },
    {
      "inputs": [
        {
          "internalType": "address",
          "name": "to",
          "type": "address"
        },
        {
          "internalType": "uint256",
          "name": "value",
          "type": "uint256"
        }
      ],
      "name": "transfer",
      "outputs": [
        {
          "internalType": "bool",
          "name": "",
          "type": "bool"
        }
      ],
      "stateMutability": "nonpayable",
      "type": "function"
    },
    {
      "inputs": [
        {
          "internalType": "address",
          "name": "from",
          "type": "address"
        },
        {
          "internalType": "address",
          "name": "to",
          "type": "address"
        },
        {
          "internalType": "uint256",
          "name": "value",
          "type": "uint256"
        }
      ],
      "name": "transferFrom",
      "outputs": [
        {
          "internalType": "bool",
          "name": "",
          "type": "bool"
        }
      ],
      "stateMutability": "nonpayable",
      "type": "function"
    },
    {
      "inputs": [
        {
          "internalType": "bytes32",
          "name": "url",
          "type": "bytes32"
        }
      ],
      "name": "urlProposalNum",
      "outputs": [
        {
          "internalType": "uint256",
          "name": "",
          "type": "uint256"
        }
      ],
      "stateMutability": "view",
      "type": "function"
    },
    {
      "inputs": [
        {
          "internalType": "address",
          "name": "user",
          "type": "address"
        },
        {
          "internalType": "uint256",
          "name": "proposal",
          "type": "uint256"
        }
      ],
      "name": "userDeposit",
      "outputs": [
        {
          "internalType": "uint256",
          "name": "",
          "type": "uint256"
        }
      ],
      "stateMutability": "view",
      "type": "function"
    },
    {
      "inputs": [
        {
          "internalType": "address",
          "name": "user",
          "type": "address"
        }
      ],
      "name": "userNumOfProposal",
      "outputs": [
        {
          "internalType": "uint256",
          "name": "",
          "type": "uint256"
        }
      ],
      "stateMutability": "view",
      "type": "function"
    },
    {
      "inputs": [
        {
          "internalType": "address",
          "name": "user",
          "type": "address"
        },
        {
          "internalType": "uint256",
          "name": "proposal",
          "type": "uint256"
        }
      ],
      "name": "userProposal",
      "outputs": [
        {
          "internalType": "uint256",
          "name": "",
          "type": "uint256"
        }
      ],
      "stateMutability": "view",
      "type": "function"
    },
    {
      "inputs": [
        {
          "internalType": "address",
          "name": "user",
          "type": "address"
        },
        {
          "internalType": "uint256",
          "name": "proposal",
          "type": "uint256"
        }
      ],
      "name": "userWithdrew",
      "outputs": [
        {
          "internalType": "uint256",
          "name": "",
          "type": "uint256"
        }
      ],
      "stateMutability": "view",
      "type": "function"
    },
    {
      "inputs": [],
      "name": "whosAgent",
      "outputs": [
        {
          "internalType": "address",
          "name": "",
          "type": "address"
        }
      ],
      "stateMutability": "view",
      "type": "function"
    },
    {
      "inputs": [],
      "name": "whosOwner",
      "outputs": [
        {
          "internalType": "address",
          "name": "",
          "type": "address"
        }
      ],
      "stateMutability": "view",
      "type": "function"
    },
    {
      "inputs": [
        {
          "internalType": "uint256",
          "name": "assets",
          "type": "uint256"
        },
        {
          "internalType": "address",
          "name": "receiver",
          "type": "address"
        },
        {
          "internalType": "address",
          "name": "owner",
          "type": "address"
        }
      ],
      "name": "withdraw",
      "outputs": [
        {
          "internalType": "uint256",
          "name": "",
          "type": "uint256"
        }
      ],
      "stateMutability": "nonpayable",
      "type": "function"
    }
  ],
  "bytecode": "0x60c06040526015805460ff191690553480156200001b57600080fd5b50604051620025ba380380620025ba8339810160408190526200003e91620002ad565b82828260036200004f8382620003d3565b5060046200005e8282620003d3565b5050506000806200007583620000e260201b60201c565b91509150816200008757601262000089565b805b60ff1660a05250506001600160a01b03908116608052600160055560068054336001600160a01b03199182161790915560078054821695831695909517909455600a805490941694169390931790915550620004d79050565b60408051600481526024810182526020810180516001600160e01b031663313ce56760e01b17905290516000918291829182916001600160a01b038716916200012b916200049f565b600060405180830381855afa9150503d806000811462000168576040519150601f19603f3d011682016040523d82523d6000602084013e6200016d565b606091505b50915091508180156200018257506020815110155b15620001ba57600081806020019051810190620001a09190620004bd565b905060ff8111620001b8576001969095509350505050565b505b5060009485945092505050565b6001600160a01b0381168114620001dd57600080fd5b50565b634e487b7160e01b600052604160045260246000fd5b60005b8381101562000213578181015183820152602001620001f9565b50506000910152565b600082601f8301126200022e57600080fd5b81516001600160401b03808211156200024b576200024b620001e0565b604051601f8301601f19908116603f01168101908282118183101715620002765762000276620001e0565b816040528381528660208588010111156200029057600080fd5b620002a3846020830160208901620001f6565b9695505050505050565b60008060008060808587031215620002c457600080fd5b8451620002d181620001c7565b6020860151909450620002e481620001c7565b60408601519093506001600160401b03808211156200030257600080fd5b62000310888389016200021c565b935060608701519150808211156200032757600080fd5b5062000336878288016200021c565b91505092959194509250565b600181811c908216806200035757607f821691505b6020821081036200037857634e487b7160e01b600052602260045260246000fd5b50919050565b601f821115620003ce576000816000526020600020601f850160051c81016020861015620003a95750805b601f850160051c820191505b81811015620003ca57828155600101620003b5565b5050505b505050565b81516001600160401b03811115620003ef57620003ef620001e0565b620004078162000400845462000342565b846200037e565b602080601f8311600181146200043f5760008415620004265750858301515b600019600386901b1c1916600185901b178555620003ca565b600085815260208120601f198616915b8281101562000470578886015182559484019460019091019084016200044f565b50858210156200048f5787850151600019600388901b60f8161c191681555b5050505050600190811b01905550565b60008251620004b3818460208701620001f6565b9190910192915050565b600060208284031215620004d057600080fd5b5051919050565b60805160a0516120a862000512600039600061089d0152600081816103c60152818161072d01528181611662015261177701526120a86000f3fe608060405234801561001057600080fd5b506004361061027f5760003560e01c806383ef14951161015c578063ba087652116100ce578063d1fbb45c11610087578063d1fbb45c14610685578063d905777e146106a5578063d9d77923146106b8578063daa85ff0146106cb578063dd62ed3e146106dc578063ef8b30f71461065f57600080fd5b8063ba0876521461058d578063bc903cb8146105a0578063c49724ec1461064c578063c63d75b6146103fe578063c6e6f5921461065f578063ce96cb771461067257600080fd5b806399ea4c011161012057806399ea4c011461051b5780639bcd9a2b1461052e578063a9059cbb14610541578063b3d7f6b914610554578063b460af9414610567578063b52d73431461057a57600080fd5b806383ef1495146104c557806384e79842146104d85780638719a3b1146104ed57806394bf804d1461050057806395d89b411461051357600080fd5b8063313ce567116101f557806355f86df8116101b957806355f86df8146104265780636763c5fa146104395780636e4e3e2d1461044a5780636e553f651461047657806370a08231146104895780637498e87c146104b257600080fd5b8063313ce567146103aa57806338d52e0f146103c4578063402d267d146103fe57806342b4725a146104135780634cdad506146102b457600080fd5b80630f6992eb116102475780630f6992eb146102fd57806313f2dad01461033157806318160ddd14610351578063226b0d0a1461035957806323b872dd146103615780632d89cb081461037457600080fd5b806301e1d1141461028457806306fdde031461029f57806307a2d13a146102b4578063095ea7b3146102c75780630a28a477146102ea575b600080fd5b61028c610715565b6040519081526020015b60405180910390f35b6102a76107a5565b6040516102969190611ade565b61028c6102c2366004611b11565b610837565b6102da6102d5366004611b3f565b61084a565b6040519015158152602001610296565b61028c6102f8366004611b11565b610862565b61028c61030b366004611b6b565b6001600160a01b0316600090815260106020908152604080832083805290915290205490565b61028c61033f366004611b11565b6000908152600e602052604090205490565b60025461028c565b60085461028c565b6102da61036f366004611b88565b61086f565b61028c610382366004611b3f565b6001600160a01b03919091166000908152601060209081526040808320938352929052205490565b6103b2610895565b60405160ff9091168152602001610296565b7f00000000000000000000000000000000000000000000000000000000000000005b6040516001600160a01b039091168152602001610296565b61028c61040c366004611b6b565b5060001990565b61028c610421366004611c12565b6108c1565b61028c610434366004611c97565b610a45565b600a546001600160a01b03166103e6565b6102da610458366004611b6b565b6001600160a01b03166000908152600d602052604090205460ff1690565b61028c610484366004611cbe565b610b7a565b61028c610497366004611b6b565b6001600160a01b031660009081526020819052604090205490565b6102da6104c0366004611cee565b610b9a565b61028c6104d3366004611d30565b610cab565b6104eb6104e6366004611b6b565b610cf9565b005b6102da6104fb366004611d30565b610d62565b61028c61050e366004611cbe565b610da8565b6102a7610dbc565b61028c610529366004611d72565b610dcb565b61028c61053c366004611b3f565b610e9c565b6102da61054f366004611b3f565b610ec7565b61028c610562366004611b11565b610ed5565b61028c610575366004611dba565b610ee2565b61028c610588366004611b3f565b610f6f565b61028c61059b366004611dba565b610f9a565b6106226105ae366004611b11565b600081815260116020908152604091829020825160e08101845281546001600160a01b0390811682526001830154938201849052600283015481169482018590526003830154166060820181905260048301546080830152600583015460a083015260069092015460c09091015293909250565b604080516001600160a01b0394851681526020810193909352921691810191909152606001610296565b61028c61065a366004611d72565b611017565b61028c61066d366004611b11565b61109f565b61028c610680366004611b6b565b6110ac565b61028c610693366004611b11565b60009081526014602052604090205490565b61028c6106b3366004611b6b565b6110d0565b61028c6106c6366004611c97565b6110ee565b6006546001600160a01b03166103e6565b61028c6106ea366004611df1565b6001600160a01b03918216600090815260016020908152604080832093909416825291909152205490565b6040516370a0823160e01b81523060048201526000907f00000000000000000000000000000000000000000000000000000000000000006001600160a01b0316906370a0823190602401602060405180830381865afa15801561077c573d6000803e3d6000fd5b505050506040513d601f19601f820116820180604052508101906107a09190611e1f565b905090565b6060600380546107b490611e38565b80601f01602080910402602001604051908101604052809291908181526020018280546107e090611e38565b801561082d5780601f106108025761010080835404028352916020019161082d565b820191906000526020600020905b81548152906001019060200180831161081057829003601f168201915b5050505050905090565b600061084482600061115c565b92915050565b600033610858818585611196565b5060019392505050565b60006108448260016111a8565b60003361087d8582856111d8565b610888858585611243565b60019150505b9392505050565b60006107a0817f0000000000000000000000000000000000000000000000000000000000000000611e88565b600a546000906001600160a01b03163314806108e757506006546001600160a01b031633145b6109295760405162461bcd60e51b815260206004820152600e60248201526d139bdd08185d5d1a1bdc9a5e995960921b60448201526064015b60405180910390fd5b60006109358484610cab565b60008181526013602052604090205490915060ff161561095457600080fd5b600061095f60085490565b61096a906001611ea1565b600083815260146020908152604080832084905560138252808320805460ff1916600190811790915584845260119092529182902080546001600160a01b03808d166001600160a01b03199283161783556003830180548d831690841681179091559383018f905560029092018054928e1692909116919091179055600883905590519192508a918391907fe3f793765505956bdfba748fc191297cca4afe7773ea892359604c9c40380b7e90610a31908d906001600160a01b0391909116815260200190565b60405180910390a498975050505050505050565b6000610a4f6112a2565b81610a5960085490565b1015610a9a5760405162461bcd60e51b815260206004820152601060248201526f125b9d985b1a59081c1c9bdc1bdcd85b60821b6044820152606401610920565b6015805460ff191660011790556000610ab385856112cc565b6015805460ff191690559050610ade610ad8846000908152600e602052604090205490565b826112ea565b6000848152600e602090815260408083209390935533825260108152828220828052905290812054610b11906001611ea1565b9050610b26610b208686610f6f565b836112ea565b6001600160a01b03861660009081526010602081815260408084208985528252808420600190810195909555338452918152818320838052905280822084905592815291909120849055600555905061088e565b6000610b846112a2565b610b8e83836112cc565b90506108446001600555565b6000808311610beb5760405162461bcd60e51b815260206004820181905260248201527f416d6f756e74206d7573742062652067726561746572207468616e207a65726f6044820152606401610920565b600954600081815260126020526040902090610c08906001611ea1565b60098190558155600181018490556002810180546001600160a01b038088166001600160a01b03199283161790925542600484015560038301805492861692909116919091179055610c5c858430876112f6565b6040516001600160a01b038481168252429186918816907f197d0ae4b232ce56246b1377dded24ed55a519bb44111ff2dcc3f77a1e2177ae9060200160405180910390a4506001949350505050565b6000808383604051602001610cc1929190611eb4565b60408051601f198184030181529181528151602092830120600081815260139093529120805460ff1916600117905591505092915050565b6006546001600160a01b03163314610d405760405162461bcd60e51b815260206004820152600a60248201526927b7363c9037bbb732b960b11b6044820152606401610920565b600a80546001600160a01b0319166001600160a01b0392909216919091179055565b6000808383604051602001610d78929190611eb4565b60408051808303601f1901815291815281516020928301206000908152601390925290205460ff16949350505050565b6000610db26112a2565b610b8e838361135d565b6060600480546107b490611e38565b6000610dd56112a2565b610ddf8483610f6f565b610de98584610e9c565b1115610e2e5760405162461bcd60e51b8152602060048201526014602482015273496e76616c69642072656465656d20737461746560601b6044820152606401610920565b6015805460ff191660011790556000610e4886868661137b565b6015805460ff191690559050610e61610ad88685610e9c565b6001600160a01b03861660009081526010602090815260408083208784529091529020600201559050610e946001600555565b949350505050565b6001600160a01b03919091166000908152601060209081526040808320938352929052206002015490565b600033610858818585611243565b600061084482600161115c565b6000610eec6112a2565b60155460ff16610f585760405162461bcd60e51b815260206004820152603160248201527f446972656374207769746864726177206e6f7420616c6c6f7765642c207573656044820152702070726f706f73616c576974686472617760781b6064820152608401610920565b610f638484846113d3565b905061088e6001600555565b6001600160a01b03919091166000908152601060209081526040808320938352929052206001015490565b6000610fa46112a2565b60155460ff1661100c5760405162461bcd60e51b815260206004820152602d60248201527f4469726563742072656465656d206e6f7420616c6c6f7765642c20757365207060448201526c726f706f73616c52656465656d60981b6064820152608401610920565b610f6384848461137b565b60006110216112a2565b61102b8483610f6f565b856110368685610e9c565b6110409190611ea1565b11156110855760405162461bcd60e51b8152602060048201526014602482015273125b9cdd59999a58da595b9d0819195c1bdcda5d60621b6044820152606401610920565b6015805460ff191660011790556000610e488686866113d3565b60006108448260006111a8565b6001600160a01b03811660009081526020819052604081205461084490600061115c565b6001600160a01b038116600090815260208190526040812054610844565b60006110f86112a2565b8161110260085490565b11156111435760405162461bcd60e51b815260206004820152601060248201526f125b9d985b1a59081c1c9bdc1bdcd85b60821b6044820152606401610920565b6015805460ff191660011790556000610ab3858561135d565b600061088e611169610715565b611174906001611ea1565b6111806000600a611fa8565b60025461118d9190611ea1565b85919085611422565b6111a38383836001611471565b505050565b600061088e6111b882600a611fa8565b6002546111c59190611ea1565b6111cd610715565b61118d906001611ea1565b6001600160a01b03838116600090815260016020908152604080832093861683529290522054600019811461123d578181101561122e57828183604051637dc7a0d960e11b815260040161092093929190611fb7565b61123d84848484036000611471565b50505050565b6001600160a01b03831661126d57604051634b637e8f60e11b815260006004820152602401610920565b6001600160a01b0382166112975760405163ec442f0560e01b815260006004820152602401610920565b6111a3838383611546565b6002600554036112c557604051633ee5aeb560e01b815260040160405180910390fd5b6002600555565b600060001960006112dc8561109f565b9050610e943385878461165d565b600061088e8284611ea1565b6040516001600160a01b03848116602483015283811660448301526064820183905261123d9186918216906323b872dd906084015b604051602081830303815290604052915060e01b6020820180516001600160e01b0383818316178352505050506116e1565b6000600019600061136d85610ed5565b9050610e943385838861165d565b600080611387836110d0565b9050808511156113b057828582604051632e52afbb60e21b815260040161092093929190611fb7565b60006113bb86610837565b90506113ca338686848a611744565b95945050505050565b6000806113df836110ac565b90508085111561140857828582604051633fa733bb60e21b815260040161092093929190611fb7565b600061141386610862565b90506113ca3386868985611744565b600080611430868686611804565b905061143b836118c8565b801561145757506000848061145257611452611fd8565b868809115b156113ca57611467600182611ea1565b9695505050505050565b6001600160a01b03841661149b5760405163e602df0560e01b815260006004820152602401610920565b6001600160a01b0383166114c557604051634a1406b160e11b815260006004820152602401610920565b6001600160a01b038085166000908152600160209081526040808320938716835292905220829055801561123d57826001600160a01b0316846001600160a01b03167f8c5be1e5ebec7d5bd14f71427d1e84f3dd0314c0f7b2291e5b200ac8c7c3b9258460405161153891815260200190565b60405180910390a350505050565b6001600160a01b0383166115715780600260008282546115669190611ea1565b909155506115d09050565b6001600160a01b038316600090815260208190526040902054818110156115b15783818360405163391434e360e21b815260040161092093929190611fb7565b6001600160a01b03841660009081526020819052604090209082900390555b6001600160a01b0382166115ec5760028054829003905561160b565b6001600160a01b03821660009081526020819052604090208054820190555b816001600160a01b0316836001600160a01b03167fddf252ad1be2c89b69c2b068fc378daa952ba7f163c4a11628f55a4df523b3ef8360405161165091815260200190565b60405180910390a3505050565b6116897f00000000000000000000000000000000000000000000000000000000000000008530856112f6565b61169383826118f5565b826001600160a01b0316846001600160a01b03167fdcbc1c05240f31ff3ad067ef1ee35ce4997762752e3a095284754544f4c709d78484604051611538929190918252602082015260400190565b60006116f66001600160a01b0384168361192f565b9050805160001415801561171b5750808060200190518101906117199190611fee565b155b156111a357604051635274afe760e01b81526001600160a01b0384166004820152602401610920565b826001600160a01b0316856001600160a01b031614611768576117688386836111d8565b611772838261193d565b61179d7f00000000000000000000000000000000000000000000000000000000000000008584611973565b826001600160a01b0316846001600160a01b0316866001600160a01b03167ffbde797d201c681b91056529119e0b02407c7bb96a4a2c75c01fc9667232c8db85856040516117f5929190918252602082015260400190565b60405180910390a45050505050565b600083830281600019858709828110838203039150508060000361183b5783828161183157611831611fd8565b049250505061088e565b80841161185b5760405163227bc15360e01b815260040160405180910390fd5b6000848688096000868103871696879004966002600389028118808a02820302808a02820302808a02820302808a02820302808a02820302808a02909103029181900381900460010186841190950394909402919094039290920491909117919091029150509392505050565b600060028260038111156118de576118de612010565b6118e89190612026565b60ff166001149050919050565b6001600160a01b03821661191f5760405163ec442f0560e01b815260006004820152602401610920565b61192b60008383611546565b5050565b606061088e838360006119a4565b6001600160a01b03821661196757604051634b637e8f60e11b815260006004820152602401610920565b61192b82600083611546565b6040516001600160a01b038381166024830152604482018390526111a391859182169063a9059cbb9060640161132b565b6060814710156119c95760405163cd78605960e01b8152306004820152602401610920565b600080856001600160a01b031684866040516119e59190612056565b60006040518083038185875af1925050503d8060008114611a22576040519150601f19603f3d011682016040523d82523d6000602084013e611a27565b606091505b5091509150611467868383606082611a4757611a4282611a8e565b61088e565b8151158015611a5e57506001600160a01b0384163b155b15611a8757604051639996b31560e01b81526001600160a01b0385166004820152602401610920565b508061088e565b805115611a9e5780518082602001fd5b604051630a12f52160e11b815260040160405180910390fd5b50565b60005b83811015611ad5578181015183820152602001611abd565b50506000910152565b6020815260008251806020840152611afd816040850160208701611aba565b601f01601f19169190910160400192915050565b600060208284031215611b2357600080fd5b5035919050565b6001600160a01b0381168114611ab757600080fd5b60008060408385031215611b5257600080fd5b8235611b5d81611b2a565b946020939093013593505050565b600060208284031215611b7d57600080fd5b813561088e81611b2a565b600080600060608486031215611b9d57600080fd5b8335611ba881611b2a565b92506020840135611bb881611b2a565b929592945050506040919091013590565b60008083601f840112611bdb57600080fd5b50813567ffffffffffffffff811115611bf357600080fd5b602083019150836020828501011115611c0b57600080fd5b9250929050565b60008060008060008060a08789031215611c2b57600080fd5b863595506020870135611c3d81611b2a565b94506040870135611c4d81611b2a565b93506060870135611c5d81611b2a565b9250608087013567ffffffffffffffff811115611c7957600080fd5b611c8589828a01611bc9565b979a9699509497509295939492505050565b600080600060608486031215611cac57600080fd5b833592506020840135611bb881611b2a565b60008060408385031215611cd157600080fd5b823591506020830135611ce381611b2a565b809150509250929050565b600080600060608486031215611d0357600080fd5b8335611d0e81611b2a565b9250602084013591506040840135611d2581611b2a565b809150509250925092565b60008060208385031215611d4357600080fd5b823567ffffffffffffffff811115611d5a57600080fd5b611d6685828601611bc9565b90969095509350505050565b60008060008060808587031215611d8857600080fd5b843593506020850135611d9a81611b2a565b92506040850135611daa81611b2a565b9396929550929360600135925050565b600080600060608486031215611dcf57600080fd5b833592506020840135611de181611b2a565b91506040840135611d2581611b2a565b60008060408385031215611e0457600080fd5b8235611e0f81611b2a565b91506020830135611ce381611b2a565b600060208284031215611e3157600080fd5b5051919050565b600181811c90821680611e4c57607f821691505b602082108103611e6c57634e487b7160e01b600052602260045260246000fd5b50919050565b634e487b7160e01b600052601160045260246000fd5b60ff818116838216019081111561084457610844611e72565b8082018082111561084457610844611e72565b8183823760009101908152919050565b600181815b80851115611eff578160001904821115611ee557611ee5611e72565b80851615611ef257918102915b93841c9390800290611ec9565b509250929050565b600082611f1657506001610844565b81611f2357506000610844565b8160018114611f395760028114611f4357611f5f565b6001915050610844565b60ff841115611f5457611f54611e72565b50506001821b610844565b5060208310610133831016604e8410600b8410161715611f82575081810a610844565b611f8c8383611ec4565b8060001904821115611fa057611fa0611e72565b029392505050565b600061088e60ff841683611f07565b6001600160a01b039390931683526020830191909152604082015260600190565b634e487b7160e01b600052601260045260246000fd5b60006020828403121561200057600080fd5b8151801515811461088e57600080fd5b634e487b7160e01b600052602160045260246000fd5b600060ff83168061204757634e487b7160e01b600052601260045260246000fd5b8060ff84160691505092915050565b60008251612068818460208701611aba565b919091019291505056fea264697066735822122082d4a480e7b0b382c01baad4bf63103083381688bf928b34c7f861d3c55aa65964736f6c63430008180033",
  "linkReferences": {},
  "deployedLinkReferences": {}
}