{
  "_format": "hh-sol-artifact-1",
  "contractName": "Subscription",
  "sourceName": "contracts/Subscription.sol",
  "abi": [
    {
      "inputs": [
        {
          "internalType": "address",
          "name": "tokenAddress",
          "type": "address"
        },
        {
          "internalType": "uint256",
          "name": "initialPrice",
          "type": "uint256"
        },
        {
          "internalType": "uint256",
          "name": "proposal",
          "type": "uint256"
        }
      ],
      "stateMutability": "nonpayable",
      "type": "constructor"
    },
    {
      "inputs": [
        {
          "internalType": "address",
          "name": "target",
          "type": "address"
        }
      ],
      "name": "AddressEmptyCode",
      "type": "error"
    },
    {
      "inputs": [
        {
          "internalType": "address",
          "name": "account",
          "type": "address"
        }
      ],
      "name": "AddressInsufficientBalance",
      "type": "error"
    },
    {
      "inputs": [],
      "name": "FailedInnerCall",
      "type": "error"
    },
    {
      "inputs": [
        {
          "internalType": "address",
          "name": "token",
          "type": "address"
        }
      ],
      "name": "SafeERC20FailedOperation",
      "type": "error"
    },
    {
      "anonymous": false,
      "inputs": [
        {
          "indexed": false,
          "internalType": "uint256",
          "name": "price",
          "type": "uint256"
        }
      ],
      "name": "PriceSet",
      "type": "event"
    },
    {
      "anonymous": false,
      "inputs": [
        {
          "indexed": true,
          "internalType": "address",
          "name": "user",
          "type": "address"
        },
        {
          "indexed": false,
          "internalType": "uint256",
          "name": "months",
          "type": "uint256"
        },
        {
          "indexed": false,
          "internalType": "uint256",
          "name": "amount",
          "type": "uint256"
        }
      ],
      "name": "Subscribed",
      "type": "event"
    },
    {
      "inputs": [
        {
          "internalType": "address",
          "name": "user",
          "type": "address"
        }
      ],
      "name": "getMonthsLeft",
      "outputs": [
        {
          "internalType": "uint256",
          "name": "",
          "type": "uint256"
        }
      ],
      "stateMutability": "view",
      "type": "function"
    },
    {
      "inputs": [],
      "name": "getPrice",
      "outputs": [
        {
          "internalType": "uint256",
          "name": "",
          "type": "uint256"
        }
      ],
      "stateMutability": "view",
      "type": "function"
    },
    {
      "inputs": [],
      "name": "getProposal",
      "outputs": [
        {
          "internalType": "uint256",
          "name": "",
          "type": "uint256"
        }
      ],
      "stateMutability": "view",
      "type": "function"
    },
    {
      "inputs": [
        {
          "internalType": "uint256",
          "name": "price",
          "type": "uint256"
        }
      ],
      "name": "setPrice",
      "outputs": [
        {
          "internalType": "uint256",
          "name": "",
          "type": "uint256"
        }
      ],
      "stateMutability": "nonpayable",
      "type": "function"
    },
    {
      "inputs": [
        {
          "internalType": "uint256",
          "name": "amount",
          "type": "uint256"
        }
      ],
      "name": "subscribe",
      "outputs": [],
      "stateMutability": "nonpayable",
      "type": "function"
    },
    {
      "inputs": [
        {
          "internalType": "address",
          "name": "",
          "type": "address"
        }
      ],
      "name": "subscriptions",
      "outputs": [
        {
          "internalType": "uint256",
          "name": "paidMonths",
          "type": "uint256"
        },
        {
          "internalType": "uint256",
          "name": "lastPaidTimestamp",
          "type": "uint256"
        }
      ],
      "stateMutability": "view",
      "type": "function"
    }
  ],
  "bytecode": "0x608060405234801561001057600080fd5b5060405161094038038061094083398101604081905261002f91610067565b600080546001600160a01b039094166001600160a01b03199485161790556001919091556002805490921633179091556003556100aa565b60008060006060848603121561007c57600080fd5b83516001600160a01b038116811461009357600080fd5b602085015160409095015190969495509392505050565b610887806100b96000396000f3fe608060405234801561001057600080fd5b50600436106100625760003560e01c80630f574ba7146100675780634617ba411461007c57806391b7f5ed146100a257806398d5fdca146100b5578063b9e2bea0146100bd578063f046395a146100c5575b600080fd5b61007a610075366004610714565b610101565b005b61008f61008a36600461072d565b6103bd565b6040519081526020015b60405180910390f35b61008f6100b0366004610714565b61043e565b60015461008f565b60035461008f565b6100ec6100d336600461072d565b6004602052600090815260409020805460019091015482565b60408051928352602083019190915201610099565b6000600154116101485760405162461bcd60e51b815260206004820152600d60248201526c141c9a58d9481b9bdd081cd95d609a1b60448201526064015b60405180910390fd5b600154610155908261076c565b156101b35760405162461bcd60e51b815260206004820152602860248201527f416d6f756e74206d757374206265206d756c7469706c65206f66206d6f6e74686044820152676c7920707269636560c01b606482015260840161013f565b6000600154826101c39190610796565b9050600081116102155760405162461bcd60e51b815260206004820152601f60248201527f4d7573742070617920666f72206174206c65617374206f6e65206d6f6e746800604482015260640161013f565b6000546040516370a0823160e01b815233600482015283916001600160a01b0316906370a0823190602401602060405180830381865afa15801561025d573d6000803e3d6000fd5b505050506040513d601f19601f8201168201806040525081019061028191906107aa565b10156102c25760405162461bcd60e51b815260206004820152601060248201526f4e6f7420656e6f7567682066756e647360801b604482015260640161013f565b6000546102da906001600160a01b0316333085610511565b336000908152600460205260409020805415801590610315575080546103039062278d006107c3565b816001015461031291906107da565b42105b15610373578054600090429061032e9062278d006107c3565b836001015461033d91906107da565b61034791906107ed565b9050600061035862278d0083610796565b905061036484826107da565b8355505042600182015561037d565b8181554260018201555b604080518381526020810185905233917ff94991dcbea6e8ac439cbc93bd9c62a4d39f04e0ad656df9a703f13552c2787f910160405180910390a2505050565b6001600160a01b0381166000908152600460205260408120805482036103e65750600092915050565b80546000906103f89062278d006107c3565b826001015461040791906107da565b905080421061041a575060009392505050565b600061042642836107ed565b905061043562278d0082610796565b95945050505050565b6002546000906001600160a01b031633146104885760405162461bcd60e51b815260206004820152600a60248201526927b7363c9037bbb732b960b11b604482015260640161013f565b600082116104d15760405162461bcd60e51b81526020600482015260166024820152755072696365206d75737420626520706f73697469766560501b604482015260640161013f565b60018290556040518281527f6bfd5e75539a9d2626425a2e2922675256b219fe546d63dad56011759b9a2f669060200160405180910390a1505060015490565b604080516001600160a01b0385811660248301528416604482015260648082018490528251808303909101815260849091019091526020810180516001600160e01b03166323b872dd60e01b17905261056b908590610571565b50505050565b60006105866001600160a01b038416836105d9565b905080516000141580156105ab5750808060200190518101906105a99190610800565b155b156105d457604051635274afe760e01b81526001600160a01b038416600482015260240161013f565b505050565b60606105e7838360006105f0565b90505b92915050565b6060814710156106155760405163cd78605960e01b815230600482015260240161013f565b600080856001600160a01b031684866040516106319190610822565b60006040518083038185875af1925050503d806000811461066e576040519150601f19603f3d011682016040523d82523d6000602084013e610673565b606091505b509150915061068386838361068f565b925050505b9392505050565b6060826106a45761069f826106eb565b610688565b81511580156106bb57506001600160a01b0384163b155b156106e457604051639996b31560e01b81526001600160a01b038516600482015260240161013f565b5080610688565b8051156106fb5780518082602001fd5b604051630a12f52160e11b815260040160405180910390fd5b60006020828403121561072657600080fd5b5035919050565b60006020828403121561073f57600080fd5b81356001600160a01b038116811461068857600080fd5b634e487b7160e01b600052601260045260246000fd5b60008261077b5761077b610756565b500690565b634e487b7160e01b600052601160045260246000fd5b6000826107a5576107a5610756565b500490565b6000602082840312156107bc57600080fd5b5051919050565b80820281158282048414176105ea576105ea610780565b808201808211156105ea576105ea610780565b818103818111156105ea576105ea610780565b60006020828403121561081257600080fd5b8151801515811461068857600080fd5b6000825160005b818110156108435760208186018101518583015201610829565b50600092019182525091905056fea2646970667358221220e818d34ca325a86daa5fca29e114c88784562e360d2d54aa5f350000b9c0f50064736f6c63430008180033",
  "linkReferences": {},
  "deployedLinkReferences": {}
}