{
  "_format": "hh-sol-artifact-1",
  "contractName": "VerifierRewards",
  "sourceName": "contracts/VerifierRewards.sol",
  "abi": [
    {
      "inputs": [
        {
          "internalType": "address",
          "name": "verifier",
          "type": "address"
        },
        {
          "internalType": "contract IERC20",
          "name": "token",
          "type": "address"
        },
        {
          "internalType": "address",
          "name": "owner",
          "type": "address"
        }
      ],
      "stateMutability": "nonpayable",
      "type": "constructor"
    },
    {
      "inputs": [
        {
          "internalType": "address",
          "name": "target",
          "type": "address"
        }
      ],
      "name": "AddressEmptyCode",
      "type": "error"
    },
    {
      "inputs": [
        {
          "internalType": "address",
          "name": "account",
          "type": "address"
        }
      ],
      "name": "AddressInsufficientBalance",
      "type": "error"
    },
    {
      "inputs": [],
      "name": "FailedInnerCall",
      "type": "error"
    },
    {
      "inputs": [
        {
          "internalType": "address",
          "name": "token",
          "type": "address"
        }
      ],
      "name": "SafeERC20FailedOperation",
      "type": "error"
    },
    {
      "anonymous": false,
      "inputs": [
        {
          "indexed": true,
          "internalType": "address",
          "name": "recipient",
          "type": "address"
        },
        {
          "indexed": false,
          "internalType": "uint256",
          "name": "amount",
          "type": "uint256"
        },
        {
          "indexed": false,
          "internalType": "uint256",
          "name": "reportNum",
          "type": "uint256"
        }
      ],
      "name": "RewardSent",
      "type": "event"
    },
    {
      "inputs": [],
      "name": "getRewardCount",
      "outputs": [
        {
          "internalType": "uint256",
          "name": "",
          "type": "uint256"
        }
      ],
      "stateMutability": "view",
      "type": "function"
    },
    {
      "inputs": [
        {
          "internalType": "uint256",
          "name": "index",
          "type": "uint256"
        }
      ],
      "name": "getRewardRecord",
      "outputs": [
        {
          "internalType": "address",
          "name": "",
          "type": "address"
        },
        {
          "internalType": "uint256",
          "name": "",
          "type": "uint256"
        },
        {
          "internalType": "uint256",
          "name": "",
          "type": "uint256"
        }
      ],
      "stateMutability": "view",
      "type": "function"
    },
    {
      "inputs": [
        {
          "internalType": "uint256",
          "name": "",
          "type": "uint256"
        }
      ],
      "name": "rewards",
      "outputs": [
        {
          "internalType": "address",
          "name": "recipient",
          "type": "address"
        },
        {
          "internalType": "uint256",
          "name": "amount",
          "type": "uint256"
        },
        {
          "internalType": "uint256",
          "name": "reportNum",
          "type": "uint256"
        }
      ],
      "stateMutability": "view",
      "type": "function"
    },
    {
      "inputs": [
        {
          "internalType": "address",
          "name": "recipient",
          "type": "address"
        },
        {
          "internalType": "uint256",
          "name": "amount",
          "type": "uint256"
        },
        {
          "internalType": "uint256",
          "name": "reportNum",
          "type": "uint256"
        }
      ],
      "name": "sendReward",
      "outputs": [],
      "stateMutability": "nonpayable",
      "type": "function"
    },
    {
      "inputs": [
        {
          "internalType": "uint256",
          "name": "max",
          "type": "uint256"
        }
      ],
      "name": "setMax",
      "outputs": [],
      "stateMutability": "nonpayable",
      "type": "function"
    },
    {
      "inputs": [],
      "name": "totalRewards",
      "outputs": [
        {
          "internalType": "uint256",
          "name": "",
          "type": "uint256"
        }
      ],
      "stateMutability": "view",
      "type": "function"
    }
  ],
  "bytecode": "0x608060405234801561001057600080fd5b506040516108fa3803806108fa83398101604081905261002f91610089565b600080546001600160a01b039485166001600160a01b0319918216179091556003805493851693821693909317909255600180549190931691161790556100d6565b6001600160a01b038116811461008657600080fd5b50565b60008060006060848603121561009e57600080fd5b83516100a981610071565b60208501519093506100ba81610071565b60408501519092506100cb81610071565b809150509250925092565b610815806100e56000396000f3fe608060405234801561001057600080fd5b50600436106100625760003560e01c80630e15561a146100675780631fe9eabc1461008257806357f989e2146100975780637e7e8eec146100cf578063c35d83a0146100d7578063f301af42146100ea575b600080fd5b61006f6100fd565b6040519081526020015b60405180910390f35b610095610090366004610705565b61016f565b005b6100aa6100a5366004610705565b61018b565b604080516001600160a01b039094168452602084019290925290820152606001610079565b60045461006f565b6100956100e536600461071e565b6101d8565b6100aa6100f8366004610705565b6104d7565b6003546040516370a0823160e01b81523060048201526000916001600160a01b0316906370a0823190602401602060405180830381865afa158015610146573d6000803e3d6000fd5b505050506040513d601f19601f8201168201806040525081019061016a919061075f565b905090565b6001546001600160a01b0316331461018657600080fd5b600255565b600080600080600485815481106101a4576101a4610778565b60009182526020909120600390910201805460018201546002909201546001600160a01b0390911697919650945092505050565b6000546001600160a01b03163314806101fb57506001546001600160a01b031633145b61025c5760405162461bcd60e51b815260206004820152602760248201527f4f6e6c79207665726966696572206f72206f776e65722063616e2073656e64206044820152667265776172647360c81b60648201526084015b60405180910390fd5b6003546040516370a0823160e01b81523060048201526064916001600160a01b0316906370a0823190602401602060405180830381865afa1580156102a5573d6000803e3d6000fd5b505050506040513d601f19601f820116820180604052508101906102c9919061075f565b10156103175760405162461bcd60e51b815260206004820181905260248201527f496e73756666696369656e742062616c616e6365206f6e20636f6e74726163746044820152606401610253565b600254821061032557600080fd5b6001600160a01b03831661036f5760405162461bcd60e51b8152602060048201526011602482015270125b9d985b1a59081c9958da5c1a595b9d607a1b6044820152606401610253565b600082116103bf5760405162461bcd60e51b815260206004820152601760248201527f416d6f756e74206d75737420626520706f7369746976650000000000000000006044820152606401610253565b6003546103d6906001600160a01b03168484610514565b604080516060810182526001600160a01b0385811680835260208084018781528486018781526004805460018101825560009190915295517f8a35acfbc15ff81a39ae7d344fd709f28e8600b4aa8c65c6b64bfe7fe36bd19b600390970296870180546001600160a01b0319169190961617909455517f8a35acfbc15ff81a39ae7d344fd709f28e8600b4aa8c65c6b64bfe7fe36bd19c85015591517f8a35acfbc15ff81a39ae7d344fd709f28e8600b4aa8c65c6b64bfe7fe36bd19d90930192909255825185815290810184905290917f6379339f0ae63e95e65fad18ca2a7ec4e7e3f05f3cc5f7079f4d8da8cec34faa910160405180910390a2505050565b600481815481106104e757600080fd5b60009182526020909120600390910201805460018201546002909201546001600160a01b03909116925083565b604080516001600160a01b038416602482015260448082018490528251808303909101815260649091019091526020810180516001600160e01b031663a9059cbb60e01b17905261056690849061056b565b505050565b60006105806001600160a01b038416836105ce565b905080516000141580156105a55750808060200190518101906105a3919061078e565b155b1561056657604051635274afe760e01b81526001600160a01b0384166004820152602401610253565b60606105dc838360006105e3565b9392505050565b6060814710156106085760405163cd78605960e01b8152306004820152602401610253565b600080856001600160a01b0316848660405161062491906107b0565b60006040518083038185875af1925050503d8060008114610661576040519150601f19603f3d011682016040523d82523d6000602084013e610666565b606091505b5091509150610676868383610680565b9695505050505050565b60608261069557610690826106dc565b6105dc565b81511580156106ac57506001600160a01b0384163b155b156106d557604051639996b31560e01b81526001600160a01b0385166004820152602401610253565b50806105dc565b8051156106ec5780518082602001fd5b604051630a12f52160e11b815260040160405180910390fd5b60006020828403121561071757600080fd5b5035919050565b60008060006060848603121561073357600080fd5b83356001600160a01b038116811461074a57600080fd5b95602085013595506040909401359392505050565b60006020828403121561077157600080fd5b5051919050565b634e487b7160e01b600052603260045260246000fd5b6000602082840312156107a057600080fd5b815180151581146105dc57600080fd5b6000825160005b818110156107d157602081860181015185830152016107b7565b50600092019182525091905056fea264697066735822122079f7935b1139d80da050f34606523d421f39ebff4bdd696791a0217b32a822ae64736f6c63430008180033",
  "linkReferences": {},
  "deployedLinkReferences": {}
}