{
  "_format": "hh-sol-artifact-1",
  "contractName": "SiteRecord",
  "sourceName": "contracts/SiteRecord.sol",
  "abi": [
    {
      "inputs": [
        {
          "internalType": "uint256",
          "name": "num",
          "type": "uint256"
        },
        {
          "internalType": "address",
          "name": "owner",
          "type": "address"
        },
        {
          "internalType": "address",
          "name": "agent",
          "type": "address"
        },
        {
          "internalType": "contract IOpenDirective",
          "name": "direct",
          "type": "address"
        }
      ],
      "stateMutability": "nonpayable",
      "type": "constructor"
    },
    {
      "anonymous": false,
      "inputs": [
        {
          "indexed": true,
          "internalType": "uint256",
          "name": "analystNum",
          "type": "uint256"
        },
        {
          "indexed": true,
          "internalType": "address",
          "name": "submitter",
          "type": "address"
        },
        {
          "indexed": false,
          "internalType": "bytes32",
          "name": "data",
          "type": "bytes32"
        },
        {
          "indexed": false,
          "internalType": "uint256",
          "name": "timestamp",
          "type": "uint256"
        }
      ],
      "name": "AnalystReportAdded",
      "type": "event"
    },
    {
      "anonymous": false,
      "inputs": [
        {
          "indexed": true,
          "internalType": "uint256",
          "name": "reportNum",
          "type": "uint256"
        },
        {
          "indexed": true,
          "internalType": "address",
          "name": "submitter",
          "type": "address"
        },
        {
          "indexed": false,
          "internalType": "bytes32",
          "name": "data",
          "type": "bytes32"
        },
        {
          "indexed": false,
          "internalType": "uint256",
          "name": "amount",
          "type": "uint256"
        },
        {
          "indexed": false,
          "internalType": "uint256",
          "name": "timestamp",
          "type": "uint256"
        }
      ],
      "name": "ValidatorReportAdded",
      "type": "event"
    },
    {
      "anonymous": false,
      "inputs": [
        {
          "indexed": true,
          "internalType": "uint256",
          "name": "submitNum",
          "type": "uint256"
        },
        {
          "indexed": true,
          "internalType": "address",
          "name": "submitter",
          "type": "address"
        },
        {
          "indexed": false,
          "internalType": "bytes32",
          "name": "data",
          "type": "bytes32"
        },
        {
          "indexed": false,
          "internalType": "bool",
          "name": "update",
          "type": "bool"
        },
        {
          "indexed": false,
          "internalType": "bool",
          "name": "approved",
          "type": "bool"
        },
        {
          "indexed": false,
          "internalType": "uint256",
          "name": "timestamp",
          "type": "uint256"
        }
      ],
      "name": "VerifierReportAdded",
      "type": "event"
    },
    {
      "inputs": [
        {
          "internalType": "string",
          "name": "data",
          "type": "string"
        }
      ],
      "name": "addAnalystReport",
      "outputs": [],
      "stateMutability": "nonpayable",
      "type": "function"
    },
    {
      "inputs": [
        {
          "internalType": "string",
          "name": "data",
          "type": "string"
        },
        {
          "internalType": "uint256",
          "name": "amount",
          "type": "uint256"
        }
      ],
      "name": "addValidatorReport",
      "outputs": [
        {
          "internalType": "uint256",
          "name": "",
          "type": "uint256"
        }
      ],
      "stateMutability": "nonpayable",
      "type": "function"
    },
    {
      "inputs": [
        {
          "internalType": "address",
          "name": "user",
          "type": "address"
        }
      ],
      "name": "addVerifier",
      "outputs": [],
      "stateMutability": "nonpayable",
      "type": "function"
    },
    {
      "inputs": [
        {
          "internalType": "string",
          "name": "data",
          "type": "string"
        },
        {
          "internalType": "uint256",
          "name": "submitNum",
          "type": "uint256"
        },
        {
          "internalType": "bool",
          "name": "update",
          "type": "bool"
        },
        {
          "internalType": "bool",
          "name": "approved",
          "type": "bool"
        }
      ],
      "name": "addVerifierReport",
      "outputs": [],
      "stateMutability": "nonpayable",
      "type": "function"
    },
    {
      "inputs": [
        {
          "internalType": "uint256",
          "name": "",
          "type": "uint256"
        }
      ],
      "name": "analystReport",
      "outputs": [
        {
          "internalType": "bytes32",
          "name": "data",
          "type": "bytes32"
        },
        {
          "internalType": "address",
          "name": "submitter",
          "type": "address"
        },
        {
          "internalType": "uint256",
          "name": "time",
          "type": "uint256"
        },
        {
          "internalType": "uint256",
          "name": "submitNum",
          "type": "uint256"
        }
      ],
      "stateMutability": "view",
      "type": "function"
    },
    {
      "inputs": [
        {
          "internalType": "uint256",
          "name": "reportNum",
          "type": "uint256"
        }
      ],
      "name": "checkStatus",
      "outputs": [
        {
          "internalType": "bool",
          "name": "approved",
          "type": "bool"
        },
        {
          "internalType": "bool",
          "name": "update",
          "type": "bool"
        }
      ],
      "stateMutability": "view",
      "type": "function"
    },
    {
      "inputs": [
        {
          "internalType": "address",
          "name": "user",
          "type": "address"
        }
      ],
      "name": "checkValidator",
      "outputs": [
        {
          "internalType": "bool",
          "name": "",
          "type": "bool"
        }
      ],
      "stateMutability": "view",
      "type": "function"
    },
    {
      "inputs": [],
      "name": "getAnalystReport",
      "outputs": [
        {
          "internalType": "bytes32",
          "name": "",
          "type": "bytes32"
        },
        {
          "internalType": "address",
          "name": "",
          "type": "address"
        },
        {
          "internalType": "uint256",
          "name": "",
          "type": "uint256"
        }
      ],
      "stateMutability": "view",
      "type": "function"
    },
    {
      "inputs": [],
      "name": "getAnalystReportNum",
      "outputs": [
        {
          "internalType": "uint256",
          "name": "",
          "type": "uint256"
        }
      ],
      "stateMutability": "view",
      "type": "function"
    },
    {
      "inputs": [],
      "name": "getOwner",
      "outputs": [
        {
          "internalType": "address",
          "name": "",
          "type": "address"
        }
      ],
      "stateMutability": "view",
      "type": "function"
    },
    {
      "inputs": [
        {
          "internalType": "uint256",
          "name": "reportNum",
          "type": "uint256"
        },
        {
          "internalType": "uint256",
          "name": "analystNum",
          "type": "uint256"
        }
      ],
      "name": "getValidatorReport",
      "outputs": [
        {
          "internalType": "bytes32",
          "name": "",
          "type": "bytes32"
        },
        {
          "internalType": "address",
          "name": "",
          "type": "address"
        },
        {
          "internalType": "uint256",
          "name": "",
          "type": "uint256"
        }
      ],
      "stateMutability": "view",
      "type": "function"
    },
    {
      "inputs": [],
      "name": "getValidatorReportCount",
      "outputs": [
        {
          "internalType": "uint256",
          "name": "",
          "type": "uint256"
        }
      ],
      "stateMutability": "view",
      "type": "function"
    },
    {
      "inputs": [],
      "name": "getVerifier",
      "outputs": [
        {
          "internalType": "address",
          "name": "",
          "type": "address"
        }
      ],
      "stateMutability": "view",
      "type": "function"
    },
    {
      "inputs": [
        {
          "internalType": "uint256",
          "name": "submitNum",
          "type": "uint256"
        }
      ],
      "name": "getVerifierReport",
      "outputs": [
        {
          "internalType": "bytes32",
          "name": "",
          "type": "bytes32"
        },
        {
          "internalType": "address",
          "name": "",
          "type": "address"
        },
        {
          "internalType": "uint256",
          "name": "",
          "type": "uint256"
        }
      ],
      "stateMutability": "view",
      "type": "function"
    },
    {
      "inputs": [
        {
          "internalType": "uint256",
          "name": "",
          "type": "uint256"
        },
        {
          "internalType": "uint256",
          "name": "",
          "type": "uint256"
        }
      ],
      "name": "validatorReport",
      "outputs": [
        {
          "internalType": "bytes32",
          "name": "data",
          "type": "bytes32"
        },
        {
          "internalType": "address",
          "name": "submitter",
          "type": "address"
        },
        {
          "internalType": "uint256",
          "name": "time",
          "type": "uint256"
        },
        {
          "internalType": "uint256",
          "name": "submitNum",
          "type": "uint256"
        }
      ],
      "stateMutability": "view",
      "type": "function"
    },
    {
      "inputs": [
        {
          "internalType": "uint256",
          "name": "",
          "type": "uint256"
        }
      ],
      "name": "verifierReport",
      "outputs": [
        {
          "internalType": "bytes32",
          "name": "data",
          "type": "bytes32"
        },
        {
          "internalType": "address",
          "name": "submitter",
          "type": "address"
        },
        {
          "internalType": "uint256",
          "name": "time",
          "type": "uint256"
        },
        {
          "internalType": "uint256",
          "name": "submitNum",
          "type": "uint256"
        }
      ],
      "stateMutability": "view",
      "type": "function"
    }
  ],
  "bytecode": "0x608060405234801561001057600080fd5b50604051610b61380380610b6183398101604081905261002f9161008d565b600180546001600160a01b03199081166001600160a01b0395861617909155600394909455600280548516928416929092179091556006805490931691161790556100e2565b6001600160a01b038116811461008a57600080fd5b50565b600080600080608085870312156100a357600080fd5b8451935060208501516100b581610075565b60408601519093506100c681610075565b60608601519092506100d781610075565b939692955090935050565b610a70806100f16000396000f3fe608060405234801561001057600080fd5b50600436106101005760003560e01c8063828f968c11610097578063b6e2bdc211610066578063b6e2bdc21461032a578063e552a9a914610369578063ecbcf16a14610396578063fd07864b1461039e57600080fd5b8063828f968c146102eb578063893d20e8146102f35780639000b3d6146103045780639e8712b41461031757600080fd5b806366ea468d116100d357806366ea468d146101b05780637015e1ed14610222578063717a456a14610261578063797327ae146102c857600080fd5b806323d1e36e146101055780632858c7641461012b57806346657fe914610176578063525626691461019b575b600080fd5b61011861011336600461086e565b6103d7565b6040519081526020015b60405180910390f35b61015f6101393660046108ba565b6000908152600a6020908152604080832054600b9092529091205460ff91821692911690565b604080519215158352901515602083015201610122565b6004546001600160a01b03165b6040516001600160a01b039091168152602001610122565b6101ae6101a93660046108d3565b61054b565b005b6101fa6101be366004610915565b6008602090815260009283526040808420909152908252902080546001820154600283015460039093015491926001600160a01b039091169184565b604080519485526001600160a01b039093166020850152918301526060820152608001610122565b6101fa6102303660046108ba565b600760205260009081526040902080546001820154600283015460039093015491926001600160a01b039091169184565b6102a561026f366004610915565b600091825260086020908152604080842092845291905290208054600182015460029092015490926001600160a01b0390921691565b604080519384526001600160a01b03909216602084015290820152606001610122565b6102db6102d6366004610937565b610626565b6040519015158152602001610122565b600554610118565b6001546001600160a01b0316610183565b6101ae610312366004610937565b6106a9565b6101ae61032536600461097c565b61072f565b6101fa6103383660046108ba565b600960205260009081526040902080546001820154600283015460039093015491926001600160a01b039091169184565b6000805481526007602052604090208054600182015460029092015490916001600160a01b0316906102a5565b600054610118565b6102a56103ac3660046108ba565b60009081526009602052604090208054600182015460029092015490926001600160a01b0390921691565b60006103e233610626565b6103eb57600080fd5b606482116103f857600080fd5b60016005600082825461040b91906109ea565b90915550506040516000906104269086908690602001610a11565b60408051808303601f19018152828252805160209182012060055460009081526008835283812081548252909252919020600654600354630abf0dbf60e31b8552600485018890523360248601526044850152919350916001600160a01b03909116906355f86df8906064016020604051808303816000875af11580156104b1573d6000803e3d6000fd5b505050506040513d601f19601f820116820180604052508101906104d59190610a21565b508181556001810180546001600160a01b031916339081179091554260028301819055600554604080518681526020810189905290810192909252907f0a0d9a7581eac11ecf910980493cf2f754bb96ac5b748c8c1b759a81e1aad4989060600160405180910390a35050600554949350505050565b6001546001600160a01b0316331461056257600080fd5b60008282604051602001610577929190610a11565b60405160208183030381529060405280519060200120905060016000808282546105a191906109ea565b9091555050600080548152600760205260408082208381556001810180546001600160a01b0319163390811790915542600283018190559354925191939092917f892ae2c8ca7fee102fc889305b5efe88e54b6b83ebefb85e3449d59ce12bc4fc9161061891879190918252602082015260400190565b60405180910390a350505050565b60065460035460405163b52d734360e01b81526001600160a01b03848116600483015260248201929092526000928392169063b52d734390604401602060405180830381865afa15801561067e573d6000803e3d6000fd5b505050506040513d601f19601f820116820180604052508101906106a29190610a21565b1192915050565b6001546001600160a01b03163314806106cc57506002546001600160a01b031633145b61070d5760405162461bcd60e51b815260206004820152600e60248201526d139bdd08185d5d1a1bdc9a5e995960921b604482015260640160405180910390fd5b600480546001600160a01b0319166001600160a01b0392909216919091179055565b6004546001600160a01b0316331461074657600080fd5b6000838152600960209081526040808320905190929161076a918991899101610a11565b60408051601f1981840301815282825280516020918201208086556001860180546001600160a01b03191633908117909155426002880181905560008b8152600a855285812080548b151560ff199182168117909255600b87529187902080548d1515931683179055848852948701529385019290925260608401929092529092509086907f2207657a5159f6874b272de7d524ca1153f298180bccd7feb431a9a37bcacf159060800160405180910390a350505050505050565b60008083601f84011261083757600080fd5b50813567ffffffffffffffff81111561084f57600080fd5b60208301915083602082850101111561086757600080fd5b9250929050565b60008060006040848603121561088357600080fd5b833567ffffffffffffffff81111561089a57600080fd5b6108a686828701610825565b909790965060209590950135949350505050565b6000602082840312156108cc57600080fd5b5035919050565b600080602083850312156108e657600080fd5b823567ffffffffffffffff8111156108fd57600080fd5b61090985828601610825565b90969095509350505050565b6000806040838503121561092857600080fd5b50508035926020909101359150565b60006020828403121561094957600080fd5b81356001600160a01b038116811461096057600080fd5b9392505050565b8035801515811461097757600080fd5b919050565b60008060008060006080868803121561099457600080fd5b853567ffffffffffffffff8111156109ab57600080fd5b6109b788828901610825565b909650945050602086013592506109d060408701610967565b91506109de60608701610967565b90509295509295909350565b80820180821115610a0b57634e487b7160e01b600052601160045260246000fd5b92915050565b8183823760009101908152919050565b600060208284031215610a3357600080fd5b505191905056fea26469706673582212200d1225f9ef7c428fec07e2e70891f220b7677ce7e49a424db532ff5b50085c1264736f6c63430008180033",
  "linkReferences": {},
  "deployedLinkReferences": {}
}